{
  "_format": "hh-sol-artifact-1",
  "contractName": "FarmerRegistry",
  "sourceName": "contracts/FarmerRegistry.sol",
  "abi": [
    {
      "inputs": [],
      "stateMutability": "nonpayable",
      "type": "constructor"
    },
    {
      "anonymous": false,
      "inputs": [
        {
          "indexed": true,
          "internalType": "uint256",
          "name": "farmerId",
          "type": "uint256"
        },
        {
          "indexed": true,
          "internalType": "address",
          "name": "verifier",
          "type": "address"
        }
      ],
      "name": "FarmerApproved",
      "type": "event"
    },
    {
      "anonymous": false,
      "inputs": [
        {
          "indexed": true,
          "internalType": "uint256",
          "name": "farmerId",
          "type": "uint256"
        },
        {
          "indexed": false,
          "internalType": "string",
          "name": "farmerName",
          "type": "string"
        },
        {
          "indexed": true,
          "internalType": "address",
          "name": "walletAddress",
          "type": "address"
        },
        {
          "indexed": false,
          "internalType": "string",
          "name": "cropType",
          "type": "string"
        }
      ],
      "name": "FarmerRegistered",
      "type": "event"
    },
    {
      "anonymous": false,
      "inputs": [
        {
          "indexed": true,
          "internalType": "uint256",
          "name": "farmerId",
          "type": "uint256"
        },
        {
          "indexed": true,
          "internalType": "address",
          "name": "verifier",
          "type": "address"
        }
      ],
      "name": "FarmerRejected",
      "type": "event"
    },
    {
      "anonymous": false,
      "inputs": [
        {
          "indexed": true,
          "internalType": "bytes32",
          "name": "role",
          "type": "bytes32"
        },
        {
          "indexed": true,
          "internalType": "bytes32",
          "name": "previousAdminRole",
          "type": "bytes32"
        },
        {
          "indexed": true,
          "internalType": "bytes32",
          "name": "newAdminRole",
          "type": "bytes32"
        }
      ],
      "name": "RoleAdminChanged",
      "type": "event"
    },
    {
      "anonymous": false,
      "inputs": [
        {
          "indexed": true,
          "internalType": "bytes32",
          "name": "role",
          "type": "bytes32"
        },
        {
          "indexed": true,
          "internalType": "address",
          "name": "account",
          "type": "address"
        },
        {
          "indexed": true,
          "internalType": "address",
          "name": "sender",
          "type": "address"
        }
      ],
      "name": "RoleGranted",
      "type": "event"
    },
    {
      "anonymous": false,
      "inputs": [
        {
          "indexed": true,
          "internalType": "bytes32",
          "name": "role",
          "type": "bytes32"
        },
        {
          "indexed": true,
          "internalType": "address",
          "name": "account",
          "type": "address"
        },
        {
          "indexed": true,
          "internalType": "address",
          "name": "sender",
          "type": "address"
        }
      ],
      "name": "RoleRevoked",
      "type": "event"
    },
    {
      "inputs": [],
      "name": "ADMIN_ROLE",
      "outputs": [
        {
          "internalType": "bytes32",
          "name": "",
          "type": "bytes32"
        }
      ],
      "stateMutability": "view",
      "type": "function"
    },
    {
      "inputs": [],
      "name": "DEFAULT_ADMIN_ROLE",
      "outputs": [
        {
          "internalType": "bytes32",
          "name": "",
          "type": "bytes32"
        }
      ],
      "stateMutability": "view",
      "type": "function"
    },
    {
      "inputs": [],
      "name": "TESTER_ROLE",
      "outputs": [
        {
          "internalType": "bytes32",
          "name": "",
          "type": "bytes32"
        }
      ],
      "stateMutability": "view",
      "type": "function"
    },
    {
      "inputs": [
        {
          "internalType": "uint256",
          "name": "_farmerId",
          "type": "uint256"
        }
      ],
      "name": "approveFarmer",
      "outputs": [],
      "stateMutability": "nonpayable",
      "type": "function"
    },
    {
      "inputs": [
        {
          "internalType": "uint256",
          "name": "",
          "type": "uint256"
        }
      ],
      "name": "farmerIds",
      "outputs": [
        {
          "internalType": "uint256",
          "name": "",
          "type": "uint256"
        }
      ],
      "stateMutability": "view",
      "type": "function"
    },
    {
      "inputs": [
        {
          "internalType": "uint256",
          "name": "",
          "type": "uint256"
        }
      ],
      "name": "farmers",
      "outputs": [
        {
          "internalType": "uint256",
          "name": "farmerId",
          "type": "uint256"
        },
        {
          "internalType": "string",
          "name": "farmerName",
          "type": "string"
        },
        {
          "internalType": "string",
          "name": "farmLocation",
          "type": "string"
        },
        {
          "internalType": "string",
          "name": "farmSize",
          "type": "string"
        },
        {
          "internalType": "string",
          "name": "farmingType",
          "type": "string"
        },
        {
          "internalType": "string",
          "name": "cropType",
          "type": "string"
        },
        {
          "internalType": "uint256",
          "name": "expectedYield",
          "type": "uint256"
        },
        {
          "internalType": "uint256",
          "name": "cultivationDate",
          "type": "uint256"
        },
        {
          "internalType": "address",
          "name": "walletAddress",
          "type": "address"
        },
        {
          "internalType": "bool",
          "name": "isRegistered",
          "type": "bool"
        },
        {
          "internalType": "bool",
          "name": "isApproved",
          "type": "bool"
        }
      ],
      "stateMutability": "view",
      "type": "function"
    },
    {
      "inputs": [
        {
          "internalType": "uint256",
          "name": "_farmerId",
          "type": "uint256"
        }
      ],
      "name": "getFarmer",
      "outputs": [
        {
          "components": [
            {
              "internalType": "uint256",
              "name": "farmerId",
              "type": "uint256"
            },
            {
              "internalType": "string",
              "name": "farmerName",
              "type": "string"
            },
            {
              "internalType": "string",
              "name": "farmLocation",
              "type": "string"
            },
            {
              "internalType": "string",
              "name": "farmSize",
              "type": "string"
            },
            {
              "internalType": "string",
              "name": "farmingType",
              "type": "string"
            },
            {
              "internalType": "string",
              "name": "cropType",
              "type": "string"
            },
            {
              "internalType": "uint256",
              "name": "expectedYield",
              "type": "uint256"
            },
            {
              "internalType": "uint256",
              "name": "cultivationDate",
              "type": "uint256"
            },
            {
              "internalType": "address",
              "name": "walletAddress",
              "type": "address"
            },
            {
              "internalType": "bool",
              "name": "isRegistered",
              "type": "bool"
            },
            {
              "internalType": "bool",
              "name": "isApproved",
              "type": "bool"
            }
          ],
          "internalType": "struct FarmerRegistry.Farmer",
          "name": "",
          "type": "tuple"
        }
      ],
      "stateMutability": "view",
      "type": "function"
    },
    {
      "inputs": [],
      "name": "getFarmerCount",
      "outputs": [
        {
          "internalType": "uint256",
          "name": "",
          "type": "uint256"
        }
      ],
      "stateMutability": "view",
      "type": "function"
    },
    {
      "inputs": [
        {
          "internalType": "bytes32",
          "name": "role",
          "type": "bytes32"
        }
      ],
      "name": "getRoleAdmin",
      "outputs": [
        {
          "internalType": "bytes32",
          "name": "",
          "type": "bytes32"
        }
      ],
      "stateMutability": "view",
      "type": "function"
    },
    {
      "inputs": [
        {
          "internalType": "bytes32",
          "name": "role",
          "type": "bytes32"
        },
        {
          "internalType": "address",
          "name": "account",
          "type": "address"
        }
      ],
      "name": "grantRole",
      "outputs": [],
      "stateMutability": "nonpayable",
      "type": "function"
    },
    {
      "inputs": [
        {
          "internalType": "bytes32",
          "name": "role",
          "type": "bytes32"
        },
        {
          "internalType": "address",
          "name": "account",
          "type": "address"
        }
      ],
      "name": "hasRole",
      "outputs": [
        {
          "internalType": "bool",
          "name": "",
          "type": "bool"
        }
      ],
      "stateMutability": "view",
      "type": "function"
    },
    {
      "inputs": [
        {
          "internalType": "uint256",
          "name": "_farmerId",
          "type": "uint256"
        }
      ],
      "name": "isFarmerApproved",
      "outputs": [
        {
          "internalType": "bool",
          "name": "",
          "type": "bool"
        }
      ],
      "stateMutability": "view",
      "type": "function"
    },
    {
      "inputs": [
        {
          "internalType": "uint256",
          "name": "_farmerId",
          "type": "uint256"
        },
        {
          "internalType": "string",
          "name": "_name",
          "type": "string"
        },
        {
          "internalType": "string",
          "name": "_location",
          "type": "string"
        },
        {
          "internalType": "string",
          "name": "_size",
          "type": "string"
        },
        {
          "internalType": "string",
          "name": "_farmingType",
          "type": "string"
        },
        {
          "internalType": "string",
          "name": "_cropType",
          "type": "string"
        },
        {
          "internalType": "uint256",
          "name": "_expectedYield",
          "type": "uint256"
        },
        {
          "internalType": "uint256",
          "name": "_cultivationDate",
          "type": "uint256"
        }
      ],
      "name": "registerFarmer",
      "outputs": [],
      "stateMutability": "nonpayable",
      "type": "function"
    },
    {
      "inputs": [
        {
          "internalType": "uint256",
          "name": "_farmerId",
          "type": "uint256"
        }
      ],
      "name": "rejectFarmer",
      "outputs": [],
      "stateMutability": "nonpayable",
      "type": "function"
    },
    {
      "inputs": [
        {
          "internalType": "bytes32",
          "name": "role",
          "type": "bytes32"
        },
        {
          "internalType": "address",
          "name": "account",
          "type": "address"
        }
      ],
      "name": "renounceRole",
      "outputs": [],
      "stateMutability": "nonpayable",
      "type": "function"
    },
    {
      "inputs": [
        {
          "internalType": "bytes32",
          "name": "role",
          "type": "bytes32"
        },
        {
          "internalType": "address",
          "name": "account",
          "type": "address"
        }
      ],
      "name": "revokeRole",
      "outputs": [],
      "stateMutability": "nonpayable",
      "type": "function"
    },
    {
      "inputs": [
        {
          "internalType": "bytes4",
          "name": "interfaceId",
          "type": "bytes4"
        }
      ],
      "name": "supportsInterface",
      "outputs": [
        {
          "internalType": "bool",
          "name": "",
          "type": "bool"
        }
      ],
      "stateMutability": "view",
      "type": "function"
    }
  ],
  "bytecode": "0x60806040523480156200001157600080fd5b506200001f60003362000051565b6200004b7fa49807205ce4d355092ef5a8a18f56e8913cf4a201fbe287825b095693c217753362000051565b62000101565b6200005d828262000061565b5050565b6000828152602081815260408083206001600160a01b038516845290915290205460ff166200005d576000828152602081815260408083206001600160a01b03851684529091529020805460ff19166001179055620000bd3390565b6001600160a01b0316816001600160a01b0316837f2f8788117e7eff1d82e926ec794901d17c78024a50270940304540a733656f0d60405160405180910390a45050565b6119dc80620001116000396000f3fe608060405234801561001057600080fd5b506004361061010b5760003560e01c8063782bd499116100a2578063a88ab4f911610071578063a88ab4f91461025d578063ad0caa7614610270578063b6821b7714610290578063c4a8b5d5146102bd578063d547741f146102c557600080fd5b8063782bd499146102055780638afdd6691461021857806391d1485414610242578063a217fddf1461025557600080fd5b80632f92ca10116100de5780632f92ca10146101a557806336568abe146101b85780634ef05121146101cb57806375b238fc146101de57600080fd5b806301ffc9a71461011057806311d2d61114610138578063248a9ca31461016d5780632f2ff15d14610190575b600080fd5b61012361011e3660046112af565b6102d8565b60405190151581526020015b60405180910390f35b61015f7fda6fac9f81a22bb02ed26455dcee2a5f2434c8a3377a2cc986478052c1594f9e81565b60405190815260200161012f565b61015f61017b3660046112d9565b60009081526020819052604090206001015490565b6101a361019e3660046112f2565b61030f565b005b6101a36101b33660046112d9565b610339565b6101a36101c63660046112f2565b61043a565b61015f6101d93660046112d9565b6104b8565b61015f7fa49807205ce4d355092ef5a8a18f56e8913cf4a201fbe287825b095693c2177581565b6101a36102133660046112d9565b6104d9565b61022b6102263660046112d9565b61063f565b60405161012f9b9a9998979695949392919061137e565b6101236102503660046112f2565b61094e565b61015f600081565b6101a361026b3660046114d4565b610977565b61028361027e3660046112d9565b610b97565b60405161012f91906115c3565b61012361029e3660046112d9565b600090815260016020526040902060080154600160a81b900460ff1690565b60025461015f565b6101a36102d33660046112f2565b610f86565b60006001600160e01b03198216637965db0b60e01b148061030957506301ffc9a760e01b6001600160e01b03198316145b92915050565b60008281526020819052604090206001015461032a81610fab565b6103348383610fb8565b505050565b6103637fda6fac9f81a22bb02ed26455dcee2a5f2434c8a3377a2cc986478052c1594f9e3361094e565b8061039357506103937fa49807205ce4d355092ef5a8a18f56e8913cf4a201fbe287825b095693c217753361094e565b6103b85760405162461bcd60e51b81526004016103af906116c1565b60405180910390fd5b600081815260016020526040902060080154600160a01b900460ff166103f05760405162461bcd60e51b81526004016103af9061170c565b600081815260016020526040808220600801805461ffff60a01b1916905551339183917f1b75284d2b0c514a585956a1807161dd81754035016cc7f1cdafbad1980268ca9190a350565b6001600160a01b03811633146104aa5760405162461bcd60e51b815260206004820152602f60248201527f416363657373436f6e74726f6c3a2063616e206f6e6c792072656e6f756e636560448201526e103937b632b9903337b91039b2b63360891b60648201526084016103af565b6104b4828261103c565b5050565b600281815481106104c857600080fd5b600091825260209091200154905081565b6105037fda6fac9f81a22bb02ed26455dcee2a5f2434c8a3377a2cc986478052c1594f9e3361094e565b8061053357506105337fa49807205ce4d355092ef5a8a18f56e8913cf4a201fbe287825b095693c217753361094e565b61054f5760405162461bcd60e51b81526004016103af906116c1565b600081815260016020526040902060080154600160a01b900460ff166105875760405162461bcd60e51b81526004016103af9061170c565b600081815260016020526040902060080154600160a81b900460ff16156105f05760405162461bcd60e51b815260206004820152601760248201527f4661726d657220616c726561647920617070726f76656400000000000000000060448201526064016103af565b600081815260016020526040808220600801805460ff60a81b1916600160a81b17905551339183917f013f356052ac05e072faed603bf550d416a8ae626ee6dc326b30a14443516ba49190a350565b6001602081905260009182526040909120805491810180546106609061173b565b80601f016020809104026020016040519081016040528092919081815260200182805461068c9061173b565b80156106d95780601f106106ae576101008083540402835291602001916106d9565b820191906000526020600020905b8154815290600101906020018083116106bc57829003601f168201915b5050505050908060020180546106ee9061173b565b80601f016020809104026020016040519081016040528092919081815260200182805461071a9061173b565b80156107675780601f1061073c57610100808354040283529160200191610767565b820191906000526020600020905b81548152906001019060200180831161074a57829003601f168201915b50505050509080600301805461077c9061173b565b80601f01602080910402602001604051908101604052809291908181526020018280546107a89061173b565b80156107f55780601f106107ca576101008083540402835291602001916107f5565b820191906000526020600020905b8154815290600101906020018083116107d857829003601f168201915b50505050509080600401805461080a9061173b565b80601f01602080910402602001604051908101604052809291908181526020018280546108369061173b565b80156108835780601f1061085857610100808354040283529160200191610883565b820191906000526020600020905b81548152906001019060200180831161086657829003601f168201915b5050505050908060050180546108989061173b565b80601f01602080910402602001604051908101604052809291908181526020018280546108c49061173b565b80156109115780601f106108e657610100808354040283529160200191610911565b820191906000526020600020905b8154815290600101906020018083116108f457829003601f168201915b50505060068401546007850154600890950154939490939092506001600160a01b038116915060ff600160a01b8204811691600160a81b9004168b565b6000918252602082815260408084206001600160a01b0393909316845291905290205460ff1690565b600088815260016020526040902060080154600160a01b900460ff16156109e05760405162461bcd60e51b815260206004820152601c60248201527f4661726d657220494420616c726561647920726567697374657265640000000060448201526064016103af565b604080516101608101825289815260208082018a81528284018a9052606083018990526080830188905260a0830187905260c0830186905260e083018590523361010084015260016101208401819052600061014085018190528d815292819052939091208251815590519192909190820190610a5d90826117c3565b5060408201516002820190610a7290826117c3565b5060608201516003820190610a8790826117c3565b5060808201516004820190610a9c90826117c3565b5060a08201516005820190610ab190826117c3565b5060c0820151600682015560e0820151600782015561010082015160089091018054610120840151610140909401511515600160a81b0260ff60a81b19941515600160a01b026001600160a81b03199092166001600160a01b03909416939093171792909216179055600280546001810182556000919091527f405787fa12a823e0f2b7631cc41b3ba8828b3321ca811111fa75cd3aa3bb5ace01889055604051339089907fd26126b3d94ac8afcdb59a01b11aa18e848f58440a87e317f35abe4554459be290610b85908b908890611883565b60405180910390a35050505050505050565b610c01604051806101600160405280600081526020016060815260200160608152602001606081526020016060815260200160608152602001600081526020016000815260200160006001600160a01b031681526020016000151581526020016000151581525090565b600082815260016020526040902060080154600160a01b900460ff16610c395760405162461bcd60e51b81526004016103af9061170c565b6000828152600160208181526040928390208351610160810190945280548452918201805491840191610c6b9061173b565b80601f0160208091040260200160405190810160405280929190818152602001828054610c979061173b565b8015610ce45780601f10610cb957610100808354040283529160200191610ce4565b820191906000526020600020905b815481529060010190602001808311610cc757829003601f168201915b50505050508152602001600282018054610cfd9061173b565b80601f0160208091040260200160405190810160405280929190818152602001828054610d299061173b565b8015610d765780601f10610d4b57610100808354040283529160200191610d76565b820191906000526020600020905b815481529060010190602001808311610d5957829003601f168201915b50505050508152602001600382018054610d8f9061173b565b80601f0160208091040260200160405190810160405280929190818152602001828054610dbb9061173b565b8015610e085780601f10610ddd57610100808354040283529160200191610e08565b820191906000526020600020905b815481529060010190602001808311610deb57829003601f168201915b50505050508152602001600482018054610e219061173b565b80601f0160208091040260200160405190810160405280929190818152602001828054610e4d9061173b565b8015610e9a5780601f10610e6f57610100808354040283529160200191610e9a565b820191906000526020600020905b815481529060010190602001808311610e7d57829003601f168201915b50505050508152602001600582018054610eb39061173b565b80601f0160208091040260200160405190810160405280929190818152602001828054610edf9061173b565b8015610f2c5780601f10610f0157610100808354040283529160200191610f2c565b820191906000526020600020905b815481529060010190602001808311610f0f57829003601f168201915b505050918352505060068201546020820152600782015460408201526008909101546001600160a01b038116606083015260ff600160a01b8204811615156080840152600160a81b90910416151560a09091015292915050565b600082815260208190526040902060010154610fa181610fab565b610334838361103c565b610fb581336110a1565b50565b610fc2828261094e565b6104b4576000828152602081815260408083206001600160a01b03851684529091529020805460ff19166001179055610ff83390565b6001600160a01b0316816001600160a01b0316837f2f8788117e7eff1d82e926ec794901d17c78024a50270940304540a733656f0d60405160405180910390a45050565b611046828261094e565b156104b4576000828152602081815260408083206001600160a01b0385168085529252808320805460ff1916905551339285917ff6391f5c32d9c69d2a47ea670b442974b53935d1edc7fd64eb21e047a839171b9190a45050565b6110ab828261094e565b6104b4576110b8816110fa565b6110c383602061110c565b6040516020016110d49291906118b1565b60408051601f198184030181529082905262461bcd60e51b82526103af91600401611926565b60606103096001600160a01b03831660145b6060600061111b83600261194f565b611126906002611966565b67ffffffffffffffff81111561113e5761113e611431565b6040519080825280601f01601f191660200182016040528015611168576020820181803683370190505b509050600360fc1b8160008151811061118357611183611979565b60200101906001600160f81b031916908160001a905350600f60fb1b816001815181106111b2576111b2611979565b60200101906001600160f81b031916908160001a90535060006111d684600261194f565b6111e1906001611966565b90505b6001811115611259576f181899199a1a9b1b9c1cb0b131b232b360811b85600f166010811061121557611215611979565b1a60f81b82828151811061122b5761122b611979565b60200101906001600160f81b031916908160001a90535060049490941c936112528161198f565b90506111e4565b5083156112a85760405162461bcd60e51b815260206004820181905260248201527f537472696e67733a20686578206c656e67746820696e73756666696369656e7460448201526064016103af565b9392505050565b6000602082840312156112c157600080fd5b81356001600160e01b0319811681146112a857600080fd5b6000602082840312156112eb57600080fd5b5035919050565b6000806040838503121561130557600080fd5b8235915060208301356001600160a01b038116811461132357600080fd5b809150509250929050565b60005b83811015611349578181015183820152602001611331565b50506000910152565b6000815180845261136a81602086016020860161132e565b601f01601f19169290920160200192915050565b60006101608d83528060208401526113988184018e611352565b905082810360408401526113ac818d611352565b905082810360608401526113c0818c611352565b905082810360808401526113d4818b611352565b905082810360a08401526113e8818a611352565b60c0840189905260e084018890526001600160a01b03871661010085015285151561012085015284151561014085015291506114219050565b9c9b505050505050505050505050565b634e487b7160e01b600052604160045260246000fd5b600082601f83011261145857600080fd5b813567ffffffffffffffff8082111561147357611473611431565b604051601f8301601f19908116603f0116810190828211818310171561149b5761149b611431565b816040528381528660208588010111156114b457600080fd5b836020870160208301376000602085830101528094505050505092915050565b600080600080600080600080610100898b0312156114f157600080fd5b88359750602089013567ffffffffffffffff8082111561151057600080fd5b61151c8c838d01611447565b985060408b013591508082111561153257600080fd5b61153e8c838d01611447565b975060608b013591508082111561155457600080fd5b6115608c838d01611447565b965060808b013591508082111561157657600080fd5b6115828c838d01611447565b955060a08b013591508082111561159857600080fd5b506115a58b828c01611447565b93505060c0890135915060e089013590509295985092959890939650565b6020815281516020820152600060208301516101608060408501526115ec610180850183611352565b91506040850151601f198086850301606087015261160a8483611352565b935060608701519150808685030160808701526116278483611352565b935060808701519150808685030160a08701526116448483611352565b935060a08701519150808685030160c0870152506116628382611352565b92505060c085015160e085015260e085015161010081818701528087015191505061012061169a818701836001600160a01b03169052565b86015190506101406116af8682018315159052565b90950151151593019290925250919050565b6020808252602b908201527f43616c6c6572206973206e6f7420616e20617574686f72697a6564207465737460408201526a32b91037b91030b236b4b760a91b606082015260800190565b60208082526015908201527411985c9b595c881b9bdd081c9959da5cdd195c9959605a1b604082015260600190565b600181811c9082168061174f57607f821691505b60208210810361176f57634e487b7160e01b600052602260045260246000fd5b50919050565b601f82111561033457600081815260208120601f850160051c8101602086101561179c5750805b601f850160051c820191505b818110156117bb578281556001016117a8565b505050505050565b815167ffffffffffffffff8111156117dd576117dd611431565b6117f1816117eb845461173b565b84611775565b602080601f831160018114611826576000841561180e5750858301515b600019600386901b1c1916600185901b1785556117bb565b600085815260208120601f198616915b8281101561185557888601518255948401946001909101908401611836565b50858210156118735787850151600019600388901b60f8161c191681555b5050505050600190811b01905550565b6040815260006118966040830185611352565b82810360208401526118a88185611352565b95945050505050565b7f416363657373436f6e74726f6c3a206163636f756e74200000000000000000008152600083516118e981601785016020880161132e565b7001034b99036b4b9b9b4b733903937b6329607d1b601791840191820152835161191a81602884016020880161132e565b01602801949350505050565b6020815260006112a86020830184611352565b634e487b7160e01b600052601160045260246000fd5b808202811582820484141761030957610309611939565b8082018082111561030957610309611939565b634e487b7160e01b600052603260045260246000fd5b60008161199e5761199e611939565b50600019019056fea26469706673582212206bc593fdc5c375a259a45348e6ace91283e3a546c2ab61690c844d293bfb6e7464736f6c63430008130033",
  "linkReferences": {},
  "deployedLinkReferences": {}
}