{
  "_format": "hh-sol-artifact-1",
  "contractName": "FarmerRegistry",
  "sourceName": "contracts/FarmerRegistry.sol",
  "abi": [
    {
      "inputs": [],
      "stateMutability": "nonpayable",
      "type": "constructor"
    },
    {
      "anonymous": false,
      "inputs": [
        {
          "indexed": true,
          "internalType": "uint256",
          "name": "farmerId",
          "type": "uint256"
        },
        {
          "indexed": true,
          "internalType": "address",
          "name": "verifier",
          "type": "address"
        }
      ],
      "name": "FarmerApproved",
      "type": "event"
    },
    {
      "anonymous": false,
      "inputs": [
        {
          "indexed": true,
          "internalType": "uint256",
          "name": "farmerId",
          "type": "uint256"
        },
        {
          "indexed": false,
          "internalType": "string",
          "name": "farmerName",
          "type": "string"
        },
        {
          "indexed": true,
          "internalType": "address",
          "name": "walletAddress",
          "type": "address"
        },
        {
          "indexed": false,
          "internalType": "string",
          "name": "cropType",
          "type": "string"
        }
      ],
      "name": "FarmerRegistered",
      "type": "event"
    },
    {
      "anonymous": false,
      "inputs": [
        {
          "indexed": true,
          "internalType": "uint256",
          "name": "farmerId",
          "type": "uint256"
        },
        {
          "indexed": true,
          "internalType": "address",
          "name": "verifier",
          "type": "address"
        }
      ],
      "name": "FarmerRejected",
      "type": "event"
    },
    {
      "anonymous": false,
      "inputs": [
        {
          "indexed": true,
          "internalType": "bytes32",
          "name": "role",
          "type": "bytes32"
        },
        {
          "indexed": true,
          "internalType": "bytes32",
          "name": "previousAdminRole",
          "type": "bytes32"
        },
        {
          "indexed": true,
          "internalType": "bytes32",
          "name": "newAdminRole",
          "type": "bytes32"
        }
      ],
      "name": "RoleAdminChanged",
      "type": "event"
    },
    {
      "anonymous": false,
      "inputs": [
        {
          "indexed": true,
          "internalType": "bytes32",
          "name": "role",
          "type": "bytes32"
        },
        {
          "indexed": true,
          "internalType": "address",
          "name": "account",
          "type": "address"
        },
        {
          "indexed": true,
          "internalType": "address",
          "name": "sender",
          "type": "address"
        }
      ],
      "name": "RoleGranted",
      "type": "event"
    },
    {
      "anonymous": false,
      "inputs": [
        {
          "indexed": true,
          "internalType": "bytes32",
          "name": "role",
          "type": "bytes32"
        },
        {
          "indexed": true,
          "internalType": "address",
          "name": "account",
          "type": "address"
        },
        {
          "indexed": true,
          "internalType": "address",
          "name": "sender",
          "type": "address"
        }
      ],
      "name": "RoleRevoked",
      "type": "event"
    },
    {
      "inputs": [],
      "name": "ADMIN_ROLE",
      "outputs": [
        {
          "internalType": "bytes32",
          "name": "",
          "type": "bytes32"
        }
      ],
      "stateMutability": "view",
      "type": "function"
    },
    {
      "inputs": [],
      "name": "AGRICULTURE_ROLE",
      "outputs": [
        {
          "internalType": "bytes32",
          "name": "",
          "type": "bytes32"
        }
      ],
      "stateMutability": "view",
      "type": "function"
    },
    {
      "inputs": [],
      "name": "DEFAULT_ADMIN_ROLE",
      "outputs": [
        {
          "internalType": "bytes32",
          "name": "",
          "type": "bytes32"
        }
      ],
      "stateMutability": "view",
      "type": "function"
    },
    {
      "inputs": [],
      "name": "INSPECTOR_ROLE",
      "outputs": [
        {
          "internalType": "bytes32",
          "name": "",
          "type": "bytes32"
        }
      ],
      "stateMutability": "view",
      "type": "function"
    },
    {
      "inputs": [],
      "name": "TESTER_ROLE",
      "outputs": [
        {
          "internalType": "bytes32",
          "name": "",
          "type": "bytes32"
        }
      ],
      "stateMutability": "view",
      "type": "function"
    },
    {
      "inputs": [
        {
          "internalType": "uint256",
          "name": "_farmerId",
          "type": "uint256"
        }
      ],
      "name": "approveFarmer",
      "outputs": [],
      "stateMutability": "nonpayable",
      "type": "function"
    },
    {
      "inputs": [
        {
          "internalType": "uint256",
          "name": "_farmerId",
          "type": "uint256"
        },
        {
          "internalType": "string",
          "name": "_name",
          "type": "string"
        },
        {
          "internalType": "string",
          "name": "_location",
          "type": "string"
        },
        {
          "internalType": "string",
          "name": "_size",
          "type": "string"
        },
        {
          "internalType": "string",
          "name": "_farmingType",
          "type": "string"
        },
        {
          "internalType": "string",
          "name": "_cropType",
          "type": "string"
        },
        {
          "internalType": "uint256",
          "name": "_expectedYield",
          "type": "uint256"
        },
        {
          "internalType": "uint256",
          "name": "_cultivationDate",
          "type": "uint256"
        },
        {
          "internalType": "address",
          "name": "_farmerWallet",
          "type": "address"
        }
      ],
      "name": "approveFarmer",
      "outputs": [],
      "stateMutability": "nonpayable",
      "type": "function"
    },
    {
      "inputs": [
        {
          "internalType": "address",
          "name": "_inspector",
          "type": "address"
        },
        {
          "internalType": "bool",
          "name": "_status",
          "type": "bool"
        }
      ],
      "name": "authorizeInspector",
      "outputs": [],
      "stateMutability": "nonpayable",
      "type": "function"
    },
    {
      "inputs": [
        {
          "internalType": "address",
          "name": "",
          "type": "address"
        }
      ],
      "name": "authorizedInspectors",
      "outputs": [
        {
          "internalType": "bool",
          "name": "",
          "type": "bool"
        }
      ],
      "stateMutability": "view",
      "type": "function"
    },
    {
      "inputs": [
        {
          "internalType": "uint256",
          "name": "",
          "type": "uint256"
        }
      ],
      "name": "farmerIds",
      "outputs": [
        {
          "internalType": "uint256",
          "name": "",
          "type": "uint256"
        }
      ],
      "stateMutability": "view",
      "type": "function"
    },
    {
      "inputs": [
        {
          "internalType": "uint256",
          "name": "",
          "type": "uint256"
        }
      ],
      "name": "farmers",
      "outputs": [
        {
          "internalType": "uint256",
          "name": "farmerId",
          "type": "uint256"
        },
        {
          "internalType": "string",
          "name": "farmerName",
          "type": "string"
        },
        {
          "internalType": "string",
          "name": "farmLocation",
          "type": "string"
        },
        {
          "internalType": "string",
          "name": "farmSize",
          "type": "string"
        },
        {
          "internalType": "string",
          "name": "farmingType",
          "type": "string"
        },
        {
          "internalType": "string",
          "name": "cropType",
          "type": "string"
        },
        {
          "internalType": "uint256",
          "name": "expectedYield",
          "type": "uint256"
        },
        {
          "internalType": "uint256",
          "name": "cultivationDate",
          "type": "uint256"
        },
        {
          "internalType": "address",
          "name": "walletAddress",
          "type": "address"
        },
        {
          "internalType": "bool",
          "name": "isRegistered",
          "type": "bool"
        },
        {
          "internalType": "bool",
          "name": "isApproved",
          "type": "bool"
        }
      ],
      "stateMutability": "view",
      "type": "function"
    },
    {
      "inputs": [
        {
          "internalType": "uint256",
          "name": "_farmerId",
          "type": "uint256"
        }
      ],
      "name": "getFarmer",
      "outputs": [
        {
          "components": [
            {
              "internalType": "uint256",
              "name": "farmerId",
              "type": "uint256"
            },
            {
              "internalType": "string",
              "name": "farmerName",
              "type": "string"
            },
            {
              "internalType": "string",
              "name": "farmLocation",
              "type": "string"
            },
            {
              "internalType": "string",
              "name": "farmSize",
              "type": "string"
            },
            {
              "internalType": "string",
              "name": "farmingType",
              "type": "string"
            },
            {
              "internalType": "string",
              "name": "cropType",
              "type": "string"
            },
            {
              "internalType": "uint256",
              "name": "expectedYield",
              "type": "uint256"
            },
            {
              "internalType": "uint256",
              "name": "cultivationDate",
              "type": "uint256"
            },
            {
              "internalType": "address",
              "name": "walletAddress",
              "type": "address"
            },
            {
              "internalType": "bool",
              "name": "isRegistered",
              "type": "bool"
            },
            {
              "internalType": "bool",
              "name": "isApproved",
              "type": "bool"
            }
          ],
          "internalType": "struct FarmerRegistry.Farmer",
          "name": "",
          "type": "tuple"
        }
      ],
      "stateMutability": "view",
      "type": "function"
    },
    {
      "inputs": [],
      "name": "getFarmerCount",
      "outputs": [
        {
          "internalType": "uint256",
          "name": "",
          "type": "uint256"
        }
      ],
      "stateMutability": "view",
      "type": "function"
    },
    {
      "inputs": [
        {
          "internalType": "bytes32",
          "name": "role",
          "type": "bytes32"
        }
      ],
      "name": "getRoleAdmin",
      "outputs": [
        {
          "internalType": "bytes32",
          "name": "",
          "type": "bytes32"
        }
      ],
      "stateMutability": "view",
      "type": "function"
    },
    {
      "inputs": [
        {
          "internalType": "bytes32",
          "name": "role",
          "type": "bytes32"
        },
        {
          "internalType": "address",
          "name": "account",
          "type": "address"
        }
      ],
      "name": "grantRole",
      "outputs": [],
      "stateMutability": "nonpayable",
      "type": "function"
    },
    {
      "inputs": [
        {
          "internalType": "bytes32",
          "name": "role",
          "type": "bytes32"
        },
        {
          "internalType": "address",
          "name": "account",
          "type": "address"
        }
      ],
      "name": "hasRole",
      "outputs": [
        {
          "internalType": "bool",
          "name": "",
          "type": "bool"
        }
      ],
      "stateMutability": "view",
      "type": "function"
    },
    {
      "inputs": [
        {
          "internalType": "uint256",
          "name": "_farmerId",
          "type": "uint256"
        }
      ],
      "name": "isFarmerApproved",
      "outputs": [
        {
          "internalType": "bool",
          "name": "",
          "type": "bool"
        }
      ],
      "stateMutability": "view",
      "type": "function"
    },
    {
      "inputs": [
        {
          "internalType": "uint256",
          "name": "_farmerId",
          "type": "uint256"
        },
        {
          "internalType": "string",
          "name": "_name",
          "type": "string"
        },
        {
          "internalType": "string",
          "name": "_location",
          "type": "string"
        },
        {
          "internalType": "string",
          "name": "_size",
          "type": "string"
        },
        {
          "internalType": "string",
          "name": "_farmingType",
          "type": "string"
        },
        {
          "internalType": "string",
          "name": "_cropType",
          "type": "string"
        },
        {
          "internalType": "uint256",
          "name": "_expectedYield",
          "type": "uint256"
        },
        {
          "internalType": "uint256",
          "name": "_cultivationDate",
          "type": "uint256"
        }
      ],
      "name": "registerFarmer",
      "outputs": [],
      "stateMutability": "nonpayable",
      "type": "function"
    },
    {
      "inputs": [
        {
          "internalType": "uint256",
          "name": "_farmerId",
          "type": "uint256"
        }
      ],
      "name": "rejectFarmer",
      "outputs": [],
      "stateMutability": "nonpayable",
      "type": "function"
    },
    {
      "inputs": [
        {
          "internalType": "bytes32",
          "name": "role",
          "type": "bytes32"
        },
        {
          "internalType": "address",
          "name": "account",
          "type": "address"
        }
      ],
      "name": "renounceRole",
      "outputs": [],
      "stateMutability": "nonpayable",
      "type": "function"
    },
    {
      "inputs": [
        {
          "internalType": "bytes32",
          "name": "role",
          "type": "bytes32"
        },
        {
          "internalType": "address",
          "name": "account",
          "type": "address"
        }
      ],
      "name": "revokeRole",
      "outputs": [],
      "stateMutability": "nonpayable",
      "type": "function"
    },
    {
      "inputs": [
        {
          "internalType": "bytes4",
          "name": "interfaceId",
          "type": "bytes4"
        }
      ],
      "name": "supportsInterface",
      "outputs": [
        {
          "internalType": "bool",
          "name": "",
          "type": "bool"
        }
      ],
      "stateMutability": "view",
      "type": "function"
    }
  ],
  "bytecode": "0x60806040523480156200001157600080fd5b506200001f60003362000051565b6200004b7fa49807205ce4d355092ef5a8a18f56e8913cf4a201fbe287825b095693c217753362000051565b62000101565b6200005d828262000061565b5050565b6000828152602081815260408083206001600160a01b038516845290915290205460ff166200005d576000828152602081815260408083206001600160a01b03851684529091529020805460ff19166001179055620000bd3390565b6001600160a01b0316816001600160a01b0316837f2f8788117e7eff1d82e926ec794901d17c78024a50270940304540a733656f0d60405160405180910390a45050565b611f4180620001116000396000f3fe608060405234801561001057600080fd5b50600436106101425760003560e01c80639320038d116100b8578063c1e608121161007c578063c1e60812146102f5578063c4a8b5d51461031c578063d547741f14610324578063e3a3c52214610337578063f17a06771461035e578063f267964c1461037157600080fd5b80639320038d1461027a578063a217fddf1461028d578063a88ab4f914610295578063ad0caa76146102a8578063b6821b77146102c857600080fd5b806336568abe1161010a57806336568abe146101ef5780634ef051211461020257806375b238fc14610215578063782bd4991461022a5780638afdd6691461023d57806391d148541461026757600080fd5b806301ffc9a71461014757806311d2d6111461016f578063248a9ca3146101a45780632f2ff15d146101c75780632f92ca10146101dc575b600080fd5b61015a61015536600461168e565b610394565b60405190151581526020015b60405180910390f35b6101967fda6fac9f81a22bb02ed26455dcee2a5f2434c8a3377a2cc986478052c1594f9e81565b604051908152602001610166565b6101966101b23660046116b8565b60009081526020819052604090206001015490565b6101da6101d53660046116ed565b6103cb565b005b6101da6101ea3660046116b8565b6103f5565b6101da6101fd3660046116ed565b6104cd565b6101966102103660046116b8565b61054b565b610196600080516020611eec83398151915281565b6101da6102383660046116b8565b61056c565b61025061024b3660046116b8565b6106a3565b6040516101669b9a99989796959493929190611769565b61015a6102753660046116ed565b6109b2565b6101da61028836600461181c565b6109db565b610196600081565b6101da6102a33660046118fb565b610a63565b6102bb6102b63660046116b8565b610c83565b60405161016691906119ea565b61015a6102d63660046116b8565b600090815260016020526040902060080154600160a81b900460ff1690565b6101967f67ece15bd133b11598a907fb44de3d08dcf88cadd66731837f0274813fae477481565b600254610196565b6101da6103323660046116ed565b611072565b6101967f273dcf2136c7d8ef632bb8ef13dbca69a8f36fa620c7468671b3153d46a211c081565b6101da61036c366004611ae8565b611097565b61015a61037f366004611be8565b60036020526000908152604090205460ff1681565b60006001600160e01b03198216637965db0b60e01b14806103c557506301ffc9a760e01b6001600160e01b03198316145b92915050565b6000828152602081905260409020600101546103e68161138a565b6103f08383611397565b505050565b3360009081526003602052604090205460ff16806104265750610426600080516020611eec833981519152336109b2565b61044b5760405162461bcd60e51b815260040161044290611c03565b60405180910390fd5b600081815260016020526040902060080154600160a01b900460ff166104835760405162461bcd60e51b815260040161044290611c51565b600081815260016020526040808220600801805461ffff60a01b1916905551339183917f1b75284d2b0c514a585956a1807161dd81754035016cc7f1cdafbad1980268ca9190a350565b6001600160a01b038116331461053d5760405162461bcd60e51b815260206004820152602f60248201527f416363657373436f6e74726f6c3a2063616e206f6e6c792072656e6f756e636560448201526e103937b632b9903337b91039b2b63360891b6064820152608401610442565b610547828261141b565b5050565b6002818154811061055b57600080fd5b600091825260209091200154905081565b3360009081526003602052604090205460ff168061059d575061059d600080516020611eec833981519152336109b2565b6105b95760405162461bcd60e51b815260040161044290611c03565b600081815260016020526040902060080154600160a01b900460ff166105f15760405162461bcd60e51b815260040161044290611c51565b600081815260016020526040902060080154600160a81b900460ff16156106545760405162461bcd60e51b815260206004820152601760248201527611985c9b595c88185b1c9958591e48185c1c1c9bdd9959604a1b6044820152606401610442565b600081815260016020526040808220600801805460ff60a81b1916600160a81b17905551339183917f013f356052ac05e072faed603bf550d416a8ae626ee6dc326b30a14443516ba49190a350565b6001602081905260009182526040909120805491810180546106c490611c80565b80601f01602080910402602001604051908101604052809291908181526020018280546106f090611c80565b801561073d5780601f106107125761010080835404028352916020019161073d565b820191906000526020600020905b81548152906001019060200180831161072057829003601f168201915b50505050509080600201805461075290611c80565b80601f016020809104026020016040519081016040528092919081815260200182805461077e90611c80565b80156107cb5780601f106107a0576101008083540402835291602001916107cb565b820191906000526020600020905b8154815290600101906020018083116107ae57829003601f168201915b5050505050908060030180546107e090611c80565b80601f016020809104026020016040519081016040528092919081815260200182805461080c90611c80565b80156108595780601f1061082e57610100808354040283529160200191610859565b820191906000526020600020905b81548152906001019060200180831161083c57829003601f168201915b50505050509080600401805461086e90611c80565b80601f016020809104026020016040519081016040528092919081815260200182805461089a90611c80565b80156108e75780601f106108bc576101008083540402835291602001916108e7565b820191906000526020600020905b8154815290600101906020018083116108ca57829003601f168201915b5050505050908060050180546108fc90611c80565b80601f016020809104026020016040519081016040528092919081815260200182805461092890611c80565b80156109755780601f1061094a57610100808354040283529160200191610975565b820191906000526020600020905b81548152906001019060200180831161095857829003601f168201915b50505060068401546007850154600890950154939490939092506001600160a01b038116915060ff600160a01b8204811691600160a81b9004168b565b6000918252602082815260408084206001600160a01b0393909316845291905290205460ff1690565b6109f3600080516020611eec833981519152336109b2565b610a385760405162461bcd60e51b815260206004820152601660248201527521b0b63632b91034b9903737ba1030b71030b236b4b760511b6044820152606401610442565b6001600160a01b03919091166000908152600360205260409020805460ff1916911515919091179055565b600088815260016020526040902060080154600160a01b900460ff1615610acc5760405162461bcd60e51b815260206004820152601c60248201527f4661726d657220494420616c72656164792072656769737465726564000000006044820152606401610442565b604080516101608101825289815260208082018a81528284018a9052606083018990526080830188905260a0830187905260c0830186905260e083018590523361010084015260016101208401819052600061014085018190528d815292819052939091208251815590519192909190820190610b499082611d08565b5060408201516002820190610b5e9082611d08565b5060608201516003820190610b739082611d08565b5060808201516004820190610b889082611d08565b5060a08201516005820190610b9d9082611d08565b5060c0820151600682015560e0820151600782015561010082015160089091018054610120840151610140909401511515600160a81b0260ff60a81b19941515600160a01b026001600160a81b03199092166001600160a01b03909416939093171792909216179055600280546001810182556000919091527f405787fa12a823e0f2b7631cc41b3ba8828b3321ca811111fa75cd3aa3bb5ace01889055604051339089907fd26126b3d94ac8afcdb59a01b11aa18e848f58440a87e317f35abe4554459be290610c71908b908890611dc8565b60405180910390a35050505050505050565b610ced604051806101600160405280600081526020016060815260200160608152602001606081526020016060815260200160608152602001600081526020016000815260200160006001600160a01b031681526020016000151581526020016000151581525090565b600082815260016020526040902060080154600160a01b900460ff16610d255760405162461bcd60e51b815260040161044290611c51565b6000828152600160208181526040928390208351610160810190945280548452918201805491840191610d5790611c80565b80601f0160208091040260200160405190810160405280929190818152602001828054610d8390611c80565b8015610dd05780601f10610da557610100808354040283529160200191610dd0565b820191906000526020600020905b815481529060010190602001808311610db357829003601f168201915b50505050508152602001600282018054610de990611c80565b80601f0160208091040260200160405190810160405280929190818152602001828054610e1590611c80565b8015610e625780601f10610e3757610100808354040283529160200191610e62565b820191906000526020600020905b815481529060010190602001808311610e4557829003601f168201915b50505050508152602001600382018054610e7b90611c80565b80601f0160208091040260200160405190810160405280929190818152602001828054610ea790611c80565b8015610ef45780601f10610ec957610100808354040283529160200191610ef4565b820191906000526020600020905b815481529060010190602001808311610ed757829003601f168201915b50505050508152602001600482018054610f0d90611c80565b80601f0160208091040260200160405190810160405280929190818152602001828054610f3990611c80565b8015610f865780601f10610f5b57610100808354040283529160200191610f86565b820191906000526020600020905b815481529060010190602001808311610f6957829003601f168201915b50505050508152602001600582018054610f9f90611c80565b80601f0160208091040260200160405190810160405280929190818152602001828054610fcb90611c80565b80156110185780601f10610fed57610100808354040283529160200191611018565b820191906000526020600020905b815481529060010190602001808311610ffb57829003601f168201915b505050918352505060068201546020820152600782015460408201526008909101546001600160a01b038116606083015260ff600160a01b8204811615156080840152600160a81b90910416151560a09091015292915050565b60008281526020819052604090206001015461108d8161138a565b6103f0838361141b565b3360009081526003602052604090205460ff16806110c857506110c8600080516020611eec833981519152336109b2565b6110e45760405162461bcd60e51b815260040161044290611c03565b600089815260016020526040902060080154600160a01b900460ff166112cc576040518061016001604052808a8152602001898152602001888152602001878152602001868152602001858152602001848152602001838152602001826001600160a01b0316815260200160011515815260200160011515815250600160008b81526020019081526020016000206000820151816000015560208201518160010190816111919190611d08565b50604082015160028201906111a69082611d08565b50606082015160038201906111bb9082611d08565b50608082015160048201906111d09082611d08565b5060a082015160058201906111e59082611d08565b5060c0820151600682015560e0820151600782015561010082015160089091018054610120840151610140909401511515600160a81b0260ff60a81b19941515600160a01b026001600160a81b03199092166001600160a01b0394851617919091179390931692909217909155600280546001810182556000919091527f405787fa12a823e0f2b7631cc41b3ba8828b3321ca811111fa75cd3aa3bb5ace018a9055604051908216908a907fd26126b3d94ac8afcdb59a01b11aa18e848f58440a87e317f35abe4554459be2906112bf908c908990611dc8565b60405180910390a3611352565b600089815260016020526040902060080154600160a81b900460ff161561132f5760405162461bcd60e51b815260206004820152601760248201527611985c9b595c88185b1c9958591e48185c1c1c9bdd9959604a1b6044820152606401610442565b6000898152600160205260409020600801805460ff60a81b1916600160a81b1790555b60405133908a907f013f356052ac05e072faed603bf550d416a8ae626ee6dc326b30a14443516ba490600090a3505050505050505050565b6113948133611480565b50565b6113a182826109b2565b610547576000828152602081815260408083206001600160a01b03851684529091529020805460ff191660011790556113d73390565b6001600160a01b0316816001600160a01b0316837f2f8788117e7eff1d82e926ec794901d17c78024a50270940304540a733656f0d60405160405180910390a45050565b61142582826109b2565b15610547576000828152602081815260408083206001600160a01b0385168085529252808320805460ff1916905551339285917ff6391f5c32d9c69d2a47ea670b442974b53935d1edc7fd64eb21e047a839171b9190a45050565b61148a82826109b2565b61054757611497816114d9565b6114a28360206114eb565b6040516020016114b3929190611df6565b60408051601f198184030181529082905262461bcd60e51b825261044291600401611e6b565b60606103c56001600160a01b03831660145b606060006114fa836002611e94565b611505906002611eab565b67ffffffffffffffff81111561151d5761151d611858565b6040519080825280601f01601f191660200182016040528015611547576020820181803683370190505b509050600360fc1b8160008151811061156257611562611ebe565b60200101906001600160f81b031916908160001a905350600f60fb1b8160018151811061159157611591611ebe565b60200101906001600160f81b031916908160001a90535060006115b5846002611e94565b6115c0906001611eab565b90505b6001811115611638576f181899199a1a9b1b9c1cb0b131b232b360811b85600f16601081106115f4576115f4611ebe565b1a60f81b82828151811061160a5761160a611ebe565b60200101906001600160f81b031916908160001a90535060049490941c9361163181611ed4565b90506115c3565b5083156116875760405162461bcd60e51b815260206004820181905260248201527f537472696e67733a20686578206c656e67746820696e73756666696369656e746044820152606401610442565b9392505050565b6000602082840312156116a057600080fd5b81356001600160e01b03198116811461168757600080fd5b6000602082840312156116ca57600080fd5b5035919050565b80356001600160a01b03811681146116e857600080fd5b919050565b6000806040838503121561170057600080fd5b82359150611710602084016116d1565b90509250929050565b60005b8381101561173457818101518382015260200161171c565b50506000910152565b60008151808452611755816020860160208601611719565b601f01601f19169290920160200192915050565b60006101608d83528060208401526117838184018e61173d565b90508281036040840152611797818d61173d565b905082810360608401526117ab818c61173d565b905082810360808401526117bf818b61173d565b905082810360a08401526117d3818a61173d565b60c0840189905260e084018890526001600160a01b038716610100850152851515610120850152841515610140850152915061180c9050565b9c9b505050505050505050505050565b6000806040838503121561182f57600080fd5b611838836116d1565b91506020830135801515811461184d57600080fd5b809150509250929050565b634e487b7160e01b600052604160045260246000fd5b600082601f83011261187f57600080fd5b813567ffffffffffffffff8082111561189a5761189a611858565b604051601f8301601f19908116603f011681019082821181831017156118c2576118c2611858565b816040528381528660208588010111156118db57600080fd5b836020870160208301376000602085830101528094505050505092915050565b600080600080600080600080610100898b03121561191857600080fd5b88359750602089013567ffffffffffffffff8082111561193757600080fd5b6119438c838d0161186e565b985060408b013591508082111561195957600080fd5b6119658c838d0161186e565b975060608b013591508082111561197b57600080fd5b6119878c838d0161186e565b965060808b013591508082111561199d57600080fd5b6119a98c838d0161186e565b955060a08b01359150808211156119bf57600080fd5b506119cc8b828c0161186e565b93505060c0890135915060e089013590509295985092959890939650565b602081528151602082015260006020830151610160806040850152611a1361018085018361173d565b91506040850151601f1980868503016060870152611a31848361173d565b93506060870151915080868503016080870152611a4e848361173d565b935060808701519150808685030160a0870152611a6b848361173d565b935060a08701519150808685030160c087015250611a89838261173d565b92505060c085015160e085015260e0850151610100818187015280870151915050610120611ac1818701836001600160a01b03169052565b8601519050610140611ad68682018315159052565b90950151151593019290925250919050565b60008060008060008060008060006101208a8c031215611b0757600080fd5b8935985060208a013567ffffffffffffffff80821115611b2657600080fd5b611b328d838e0161186e565b995060408c0135915080821115611b4857600080fd5b611b548d838e0161186e565b985060608c0135915080821115611b6a57600080fd5b611b768d838e0161186e565b975060808c0135915080821115611b8c57600080fd5b611b988d838e0161186e565b965060a08c0135915080821115611bae57600080fd5b50611bbb8c828d0161186e565b94505060c08a0135925060e08a01359150611bd96101008b016116d1565b90509295985092959850929598565b600060208284031215611bfa57600080fd5b611687826116d1565b6020808252602e908201527f43616c6c6572206973206e6f7420616e20617574686f72697a656420696e737060408201526d32b1ba37b91037b91030b236b4b760911b606082015260800190565b60208082526015908201527411985c9b595c881b9bdd081c9959da5cdd195c9959605a1b604082015260600190565b600181811c90821680611c9457607f821691505b602082108103611cb457634e487b7160e01b600052602260045260246000fd5b50919050565b601f8211156103f057600081815260208120601f850160051c81016020861015611ce15750805b601f850160051c820191505b81811015611d0057828155600101611ced565b505050505050565b815167ffffffffffffffff811115611d2257611d22611858565b611d3681611d308454611c80565b84611cba565b602080601f831160018114611d6b5760008415611d535750858301515b600019600386901b1c1916600185901b178555611d00565b600085815260208120601f198616915b82811015611d9a57888601518255948401946001909101908401611d7b565b5085821015611db85787850151600019600388901b60f8161c191681555b5050505050600190811b01905550565b604081526000611ddb604083018561173d565b8281036020840152611ded818561173d565b95945050505050565b7f416363657373436f6e74726f6c3a206163636f756e7420000000000000000000815260008351611e2e816017850160208801611719565b7001034b99036b4b9b9b4b733903937b6329607d1b6017918401918201528351611e5f816028840160208801611719565b01602801949350505050565b602081526000611687602083018461173d565b634e487b7160e01b600052601160045260246000fd5b80820281158282048414176103c5576103c5611e7e565b808201808211156103c5576103c5611e7e565b634e487b7160e01b600052603260045260246000fd5b600081611ee357611ee3611e7e565b50600019019056fea49807205ce4d355092ef5a8a18f56e8913cf4a201fbe287825b095693c21775a264697066735822122026f5b840c34fd4dc239c280cdd6c8b93635fd649c00fe50ed7f0fd0577396e9064736f6c63430008130033",
  "linkReferences": {},
  "deployedLinkReferences": {}
}