{
  "_format": "hh-sol-artifact-1",
  "contractName": "MicroFinance",
  "sourceName": "contracts/MicroFinance.sol",
  "abi": [
    {
      "inputs": [
        {
          "internalType": "address",
          "name": "_farmerRegistryAddress",
          "type": "address"
        },
        {
          "internalType": "address",
          "name": "_productRegistryAddress",
          "type": "address"
        }
      ],
      "stateMutability": "nonpayable",
      "type": "constructor"
    },
    {
      "anonymous": false,
      "inputs": [
        {
          "indexed": true,
          "internalType": "uint256",
          "name": "investmentId",
          "type": "uint256"
        },
        {
          "indexed": true,
          "internalType": "address",
          "name": "investor",
          "type": "address"
        },
        {
          "indexed": true,
          "internalType": "uint256",
          "name": "farmerId",
          "type": "uint256"
        },
        {
          "indexed": false,
          "internalType": "uint256",
          "name": "lotNumber",
          "type": "uint256"
        },
        {
          "indexed": false,
          "internalType": "uint256",
          "name": "amount",
          "type": "uint256"
        },
        {
          "indexed": false,
          "internalType": "uint256",
          "name": "timestamp",
          "type": "uint256"
        }
      ],
      "name": "InvestmentMade",
      "type": "event"
    },
    {
      "anonymous": false,
      "inputs": [
        {
          "indexed": true,
          "internalType": "uint256",
          "name": "investmentId",
          "type": "uint256"
        },
        {
          "indexed": false,
          "internalType": "string",
          "name": "status",
          "type": "string"
        }
      ],
      "name": "InvestmentStatusUpdated",
      "type": "event"
    },
    {
      "anonymous": false,
      "inputs": [
        {
          "indexed": true,
          "internalType": "address",
          "name": "previousOwner",
          "type": "address"
        },
        {
          "indexed": true,
          "internalType": "address",
          "name": "newOwner",
          "type": "address"
        }
      ],
      "name": "OwnershipTransferred",
      "type": "event"
    },
    {
      "inputs": [
        {
          "internalType": "uint256",
          "name": "",
          "type": "uint256"
        },
        {
          "internalType": "uint256",
          "name": "",
          "type": "uint256"
        }
      ],
      "name": "farmerInvestments",
      "outputs": [
        {
          "internalType": "uint256",
          "name": "",
          "type": "uint256"
        }
      ],
      "stateMutability": "view",
      "type": "function"
    },
    {
      "inputs": [],
      "name": "farmerRegistry",
      "outputs": [
        {
          "internalType": "contract FarmerRegistry",
          "name": "",
          "type": "address"
        }
      ],
      "stateMutability": "view",
      "type": "function"
    },
    {
      "inputs": [
        {
          "internalType": "uint256",
          "name": "_farmerId",
          "type": "uint256"
        }
      ],
      "name": "getFarmerInvestments",
      "outputs": [
        {
          "internalType": "uint256[]",
          "name": "",
          "type": "uint256[]"
        }
      ],
      "stateMutability": "view",
      "type": "function"
    },
    {
      "inputs": [
        {
          "internalType": "uint256",
          "name": "_investmentId",
          "type": "uint256"
        }
      ],
      "name": "getInvestment",
      "outputs": [
        {
          "components": [
            {
              "internalType": "uint256",
              "name": "investmentId",
              "type": "uint256"
            },
            {
              "internalType": "address",
              "name": "investor",
              "type": "address"
            },
            {
              "internalType": "uint256",
              "name": "farmerId",
              "type": "uint256"
            },
            {
              "internalType": "uint256",
              "name": "lotNumber",
              "type": "uint256"
            },
            {
              "internalType": "uint256",
              "name": "amount",
              "type": "uint256"
            },
            {
              "internalType": "uint256",
              "name": "timestamp",
              "type": "uint256"
            },
            {
              "internalType": "uint256",
              "name": "profitPercentage",
              "type": "uint256"
            },
            {
              "internalType": "string",
              "name": "status",
              "type": "string"
            }
          ],
          "internalType": "struct MicroFinance.Investment",
          "name": "",
          "type": "tuple"
        }
      ],
      "stateMutability": "view",
      "type": "function"
    },
    {
      "inputs": [],
      "name": "getInvestmentCount",
      "outputs": [
        {
          "internalType": "uint256",
          "name": "",
          "type": "uint256"
        }
      ],
      "stateMutability": "view",
      "type": "function"
    },
    {
      "inputs": [
        {
          "internalType": "address",
          "name": "_investor",
          "type": "address"
        }
      ],
      "name": "getInvestorInvestments",
      "outputs": [
        {
          "internalType": "uint256[]",
          "name": "",
          "type": "uint256[]"
        }
      ],
      "stateMutability": "view",
      "type": "function"
    },
    {
      "inputs": [
        {
          "internalType": "uint256",
          "name": "_farmerId",
          "type": "uint256"
        },
        {
          "internalType": "uint256",
          "name": "_lotNumber",
          "type": "uint256"
        },
        {
          "internalType": "uint256",
          "name": "_profitPercentage",
          "type": "uint256"
        }
      ],
      "name": "invest",
      "outputs": [],
      "stateMutability": "payable",
      "type": "function"
    },
    {
      "inputs": [
        {
          "internalType": "uint256",
          "name": "",
          "type": "uint256"
        }
      ],
      "name": "investments",
      "outputs": [
        {
          "internalType": "uint256",
          "name": "investmentId",
          "type": "uint256"
        },
        {
          "internalType": "address",
          "name": "investor",
          "type": "address"
        },
        {
          "internalType": "uint256",
          "name": "farmerId",
          "type": "uint256"
        },
        {
          "internalType": "uint256",
          "name": "lotNumber",
          "type": "uint256"
        },
        {
          "internalType": "uint256",
          "name": "amount",
          "type": "uint256"
        },
        {
          "internalType": "uint256",
          "name": "timestamp",
          "type": "uint256"
        },
        {
          "internalType": "uint256",
          "name": "profitPercentage",
          "type": "uint256"
        },
        {
          "internalType": "string",
          "name": "status",
          "type": "string"
        }
      ],
      "stateMutability": "view",
      "type": "function"
    },
    {
      "inputs": [
        {
          "internalType": "address",
          "name": "",
          "type": "address"
        },
        {
          "internalType": "uint256",
          "name": "",
          "type": "uint256"
        }
      ],
      "name": "investorInvestments",
      "outputs": [
        {
          "internalType": "uint256",
          "name": "",
          "type": "uint256"
        }
      ],
      "stateMutability": "view",
      "type": "function"
    },
    {
      "inputs": [],
      "name": "owner",
      "outputs": [
        {
          "internalType": "address",
          "name": "",
          "type": "address"
        }
      ],
      "stateMutability": "view",
      "type": "function"
    },
    {
      "inputs": [],
      "name": "productRegistry",
      "outputs": [
        {
          "internalType": "contract ProductRegistry",
          "name": "",
          "type": "address"
        }
      ],
      "stateMutability": "view",
      "type": "function"
    },
    {
      "inputs": [],
      "name": "renounceOwnership",
      "outputs": [],
      "stateMutability": "nonpayable",
      "type": "function"
    },
    {
      "inputs": [
        {
          "internalType": "address",
          "name": "newOwner",
          "type": "address"
        }
      ],
      "name": "transferOwnership",
      "outputs": [],
      "stateMutability": "nonpayable",
      "type": "function"
    },
    {
      "inputs": [
        {
          "internalType": "uint256",
          "name": "_investmentId",
          "type": "uint256"
        },
        {
          "internalType": "string",
          "name": "_status",
          "type": "string"
        }
      ],
      "name": "updateInvestmentStatus",
      "outputs": [],
      "stateMutability": "nonpayable",
      "type": "function"
    }
  ],
  "bytecode": "0x60806040523480156200001157600080fd5b50604051620017d9380380620017d98339810160408190526200003491620000de565b6200003f3362000071565b600480546001600160a01b039384166001600160a01b0319918216179091556005805492909316911617905562000116565b600080546001600160a01b038381166001600160a01b0319831681178455604051919092169283917f8be0079c531659141344cd1fd0a4f28419497f9722a3daafe3b4186f6b6457e09190a35050565b80516001600160a01b0381168114620000d957600080fd5b919050565b60008060408385031215620000f257600080fd5b620000fd83620000c1565b91506200010d60208401620000c1565b90509250929050565b6116b380620001266000396000f3fe6080604052600436106100dd5760003560e01c80639f37353a1161007f578063eef90b6211610059578063eef90b6214610244578063f2fde38b14610264578063fd345c8a14610284578063fff218c3146102b857600080fd5b80639f37353a146101ef578063b8d846971461020f578063cc42edbd1461022457600080fd5b8063715018a6116100bb578063715018a61461017957806379aba36d146101905780638da5cb5b146101a35780639827cda8146101c157600080fd5b80630da80980146100e257806322ae634f1461011f5780634c431f001461014c575b600080fd5b3480156100ee57600080fd5b50600454610102906001600160a01b031681565b6040516001600160a01b0390911681526020015b60405180910390f35b34801561012b57600080fd5b5061013f61013a366004610fe4565b6102d8565b604051610116919061104d565b34801561015857600080fd5b5061016c6101673660046110d7565b6104a8565b60405161011691906110fb565b34801561018557600080fd5b5061018e610514565b005b61018e61019e36600461113f565b610528565b3480156101af57600080fd5b506000546001600160a01b0316610102565b3480156101cd57600080fd5b506101e16101dc36600461116b565b610b47565b604051908152602001610116565b3480156101fb57600080fd5b5061016c61020a366004610fe4565b610b78565b34801561021b57600080fd5b506001546101e1565b34801561023057600080fd5b5061018e61023f366004611226565b610bd8565b34801561025057600080fd5b506101e161025f3660046112b0565b610db9565b34801561027057600080fd5b5061018e61027f3660046110d7565b610dd5565b34801561029057600080fd5b506102a461029f366004610fe4565b610e4e565b6040516101169897969594939291906112dc565b3480156102c457600080fd5b50600554610102906001600160a01b031681565b6103296040518061010001604052806000815260200160006001600160a01b031681526020016000815260200160008152602001600081526020016000815260200160008152602001606081525090565b60015482106103775760405162461bcd60e51b8152602060048201526015602482015274125b9d985b1a59081a5b9d995cdd1b595b9d081251605a1b60448201526064015b60405180910390fd5b6001828154811061038a5761038a611331565b906000526020600020906008020160405180610100016040529081600082015481526020016001820160009054906101000a90046001600160a01b03166001600160a01b03166001600160a01b03168152602001600282015481526020016003820154815260200160048201548152602001600582015481526020016006820154815260200160078201805461041f90611347565b80601f016020809104026020016040519081016040528092919081815260200182805461044b90611347565b80156104985780601f1061046d57610100808354040283529160200191610498565b820191906000526020600020905b81548152906001019060200180831161047b57829003601f168201915b5050505050815250509050919050565b6001600160a01b03811660009081526003602090815260409182902080548351818402810184019094528084526060939283018282801561050857602002820191906000526020600020905b8154815260200190600101908083116104f4575b50505050509050919050565b61051c610f3a565b6105266000610f94565b565b6000341161058c5760405162461bcd60e51b815260206004820152602b60248201527f496e766573746d656e7420616d6f756e74206d7573742062652067726561746560448201526a72207468616e207a65726f60a81b606482015260840161036e565b6004805460405163b6821b7760e01b81529182018590526001600160a01b03169063b6821b7790602401602060405180830381865afa1580156105d3573d6000803e3d6000fd5b505050506040513d601f19601f820116820180604052508101906105f79190611396565b61064f5760405162461bcd60e51b8152602060048201526024808201527f4661726d6572206d75737420626520617070726f76656420627920617574686f6044820152637269747960e01b606482015260840161036e565b60048054604051635686553b60e11b81529182018590526000916001600160a01b039091169063ad0caa7690602401600060405180830381865afa15801561069b573d6000803e3d6000fd5b505050506040513d6000823e601f3d908101601f191682016040526106c39190810190611401565b610100015190506001600160a01b0381166107205760405162461bcd60e51b815260206004820152601f60248201527f4661726d65722077616c6c65742061646472657373206e6f7420666f756e6400604482015260640161036e565b336001600160a01b038216036107895760405162461bcd60e51b815260206004820152602860248201527f4661726d6572732063616e6e6f7420696e7665737420696e207468656972206f604482015267776e2063726f707360c01b606482015260840161036e565b6005546040516354fcd1b760e11b8152600481018590526001600160a01b039091169063a9f9a36e90602401602060405180830381865afa1580156107d2573d6000803e3d6000fd5b505050506040513d601f19601f820116820180604052508101906107f69190611396565b6108425760405162461bcd60e51b815260206004820152601a60248201527f50726f64756374206c6f7420646f6573206e6f74206578697374000000000000604482015260640161036e565b6001805460408051610100810182528281523360208083019182528284018a8152606084018a815234608086019081524260a0870190815260c087018c81528851808a01909952600689526541435449564560d01b9589019590955260e08701978852888a018a5560009990995285517fb10e2d527612073b26eecdfd717e6a320cf44b4afac2b0732d9fcbe2b7fa0cf660088a0290810191825595517fb10e2d527612073b26eecdfd717e6a320cf44b4afac2b0732d9fcbe2b7fa0cf7870180546001600160a01b0319166001600160a01b0390921691909117905592517fb10e2d527612073b26eecdfd717e6a320cf44b4afac2b0732d9fcbe2b7fa0cf886015590517fb10e2d527612073b26eecdfd717e6a320cf44b4afac2b0732d9fcbe2b7fa0cf9850155517fb10e2d527612073b26eecdfd717e6a320cf44b4afac2b0732d9fcbe2b7fa0cfa84015595517fb10e2d527612073b26eecdfd717e6a320cf44b4afac2b0732d9fcbe2b7fa0cfb830155517fb10e2d527612073b26eecdfd717e6a320cf44b4afac2b0732d9fcbe2b7fa0cfc82015591519293909290917fb10e2d527612073b26eecdfd717e6a320cf44b4afac2b0732d9fcbe2b7fa0cfd0190610a1090826115aa565b50505060008581526002602090815260408083208054600180820183559185528385200185905533845260038352818420805491820181558452918320909101839055516001600160a01b0384169034908381818185875af1925050503d8060008114610a99576040519150601f19603f3d011682016040523d82523d6000602084013e610a9e565b606091505b5050905080610afa5760405162461bcd60e51b815260206004820152602260248201527f4661696c656420746f207472616e736665722066756e647320746f206661726d60448201526132b960f11b606482015260840161036e565b60408051868152346020820152428183015290518791339185917f988ee0ce356371bd02e26905d798551f68fb405c9440e599d1f7148045980832919081900360600190a4505050505050565b60026020528160005260406000208181548110610b6357600080fd5b90600052602060002001600091509150505481565b60008181526002602090815260409182902080548351818402810184019094528084526060939283018282801561050857602002820191906000526020600020908154815260200190600101908083116104f45750505050509050919050565b6001548210610c215760405162461bcd60e51b8152602060048201526015602482015274125b9d985b1a59081a5b9d995cdd1b595b9d081251605a1b604482015260640161036e565b600060018381548110610c3657610c36611331565b6000918252602082206002600890920201015460048054604051635686553b60e11b81529294506001600160a01b03169163ad0caa7691610c7d9186910190815260200190565b600060405180830381865afa158015610c9a573d6000803e3d6000fd5b505050506040513d6000823e601f3d908101601f19168201604052610cc29190810190611401565b61010001519050336001600160a01b0382161480610cea57506000546001600160a01b031633145b610d495760405162461bcd60e51b815260206004820152602a60248201527f4f6e6c7920746865206661726d6572206f72206f776e65722063616e207570646044820152696174652073746174757360b01b606482015260840161036e565b8260018581548110610d5d57610d5d611331565b90600052602060002090600802016007019081610d7a91906115aa565b50837f67a7dccddda0f01bd21939ce27532437f60d9ca7b32d6395f3d89fe50a572cc484604051610dab919061166a565b60405180910390a250505050565b60036020528160005260406000208181548110610b6357600080fd5b610ddd610f3a565b6001600160a01b038116610e425760405162461bcd60e51b815260206004820152602660248201527f4f776e61626c653a206e6577206f776e657220697320746865207a65726f206160448201526564647265737360d01b606482015260840161036e565b610e4b81610f94565b50565b60018181548110610e5e57600080fd5b6000918252602090912060089091020180546001820154600283015460038401546004850154600586015460068701546007880180549799506001600160a01b03909616979496939592949193909290610eb790611347565b80601f0160208091040260200160405190810160405280929190818152602001828054610ee390611347565b8015610f305780601f10610f0557610100808354040283529160200191610f30565b820191906000526020600020905b815481529060010190602001808311610f1357829003601f168201915b5050505050905088565b6000546001600160a01b031633146105265760405162461bcd60e51b815260206004820181905260248201527f4f776e61626c653a2063616c6c6572206973206e6f7420746865206f776e6572604482015260640161036e565b600080546001600160a01b038381166001600160a01b0319831681178455604051919092169283917f8be0079c531659141344cd1fd0a4f28419497f9722a3daafe3b4186f6b6457e09190a35050565b600060208284031215610ff657600080fd5b5035919050565b60005b83811015611018578181015183820152602001611000565b50506000910152565b60008151808452611039816020860160208601610ffd565b601f01601f19169290920160200192915050565b602081528151602082015260018060a01b0360208301511660408201526040820151606082015260608201516080820152608082015160a082015260a082015160c082015260c082015160e0820152600060e08301516101008081850152506110ba610120840182611021565b949350505050565b6001600160a01b0381168114610e4b57600080fd5b6000602082840312156110e957600080fd5b81356110f4816110c2565b9392505050565b6020808252825182820181905260009190848201906040850190845b8181101561113357835183529284019291840191600101611117565b50909695505050505050565b60008060006060848603121561115457600080fd5b505081359360208301359350604090920135919050565b6000806040838503121561117e57600080fd5b50508035926020909101359150565b634e487b7160e01b600052604160045260246000fd5b604051610160810167ffffffffffffffff811182821017156111c7576111c761118d565b60405290565b604051601f8201601f1916810167ffffffffffffffff811182821017156111f6576111f661118d565b604052919050565b600067ffffffffffffffff8211156112185761121861118d565b50601f01601f191660200190565b6000806040838503121561123957600080fd5b82359150602083013567ffffffffffffffff81111561125757600080fd5b8301601f8101851361126857600080fd5b803561127b611276826111fe565b6111cd565b81815286602083850101111561129057600080fd5b816020840160208301376000602083830101528093505050509250929050565b600080604083850312156112c357600080fd5b82356112ce816110c2565b946020939093013593505050565b60006101008a835260018060a01b038a1660208401528860408401528760608401528660808401528560a08401528460c08401528060e084015261132281840185611021565b9b9a5050505050505050505050565b634e487b7160e01b600052603260045260246000fd5b600181811c9082168061135b57607f821691505b60208210810361137b57634e487b7160e01b600052602260045260246000fd5b50919050565b8051801515811461139157600080fd5b919050565b6000602082840312156113a857600080fd5b6110f482611381565b600082601f8301126113c257600080fd5b81516113d0611276826111fe565b8181528460208386010111156113e557600080fd5b6110ba826020830160208701610ffd565b8051611391816110c2565b60006020828403121561141357600080fd5b815167ffffffffffffffff8082111561142b57600080fd5b90830190610160828603121561144057600080fd5b6114486111a3565b8251815260208301518281111561145e57600080fd5b61146a878286016113b1565b60208301525060408301518281111561148257600080fd5b61148e878286016113b1565b6040830152506060830151828111156114a657600080fd5b6114b2878286016113b1565b6060830152506080830151828111156114ca57600080fd5b6114d6878286016113b1565b60808301525060a0830151828111156114ee57600080fd5b6114fa878286016113b1565b60a08301525060c083015160c082015260e083015160e082015261010091506115248284016113f6565b828201526101209150611538828401611381565b82820152610140915061154c828401611381565b91810191909152949350505050565b601f8211156115a557600081815260208120601f850160051c810160208610156115825750805b601f850160051c820191505b818110156115a15782815560010161158e565b5050505b505050565b815167ffffffffffffffff8111156115c4576115c461118d565b6115d8816115d28454611347565b8461155b565b602080601f83116001811461160d57600084156115f55750858301515b600019600386901b1c1916600185901b1785556115a1565b600085815260208120601f198616915b8281101561163c5788860151825594840194600190910190840161161d565b508582101561165a5787850151600019600388901b60f8161c191681555b5050505050600190811b01905550565b6020815260006110f4602083018461102156fea2646970667358221220000ae366bb2c0e788ea1c8f9ce83aea35ddb26f97cf6e9125ce910cbe90e822864736f6c63430008130033",
  "linkReferences": {},
  "deployedLinkReferences": {}
}