{
  "_format": "hh-sol-artifact-1",
  "contractName": "ProductRegistry",
  "sourceName": "contracts/ProductRegistry.sol",
  "abi": [
    {
      "inputs": [
        {
          "internalType": "address",
          "name": "_farmerRegistryAddress",
          "type": "address"
        }
      ],
      "stateMutability": "nonpayable",
      "type": "constructor"
    },
    {
      "anonymous": false,
      "inputs": [
        {
          "indexed": true,
          "internalType": "uint256",
          "name": "lotNumber",
          "type": "uint256"
        },
        {
          "indexed": true,
          "internalType": "uint256",
          "name": "farmerId",
          "type": "uint256"
        },
        {
          "indexed": false,
          "internalType": "string",
          "name": "cropName",
          "type": "string"
        },
        {
          "indexed": false,
          "internalType": "string",
          "name": "qualityGrade",
          "type": "string"
        },
        {
          "indexed": false,
          "internalType": "uint256",
          "name": "price",
          "type": "uint256"
        },
        {
          "indexed": true,
          "internalType": "address",
          "name": "tester",
          "type": "address"
        }
      ],
      "name": "ProductRegistered",
      "type": "event"
    },
    {
      "anonymous": false,
      "inputs": [
        {
          "indexed": true,
          "internalType": "bytes32",
          "name": "role",
          "type": "bytes32"
        },
        {
          "indexed": true,
          "internalType": "bytes32",
          "name": "previousAdminRole",
          "type": "bytes32"
        },
        {
          "indexed": true,
          "internalType": "bytes32",
          "name": "newAdminRole",
          "type": "bytes32"
        }
      ],
      "name": "RoleAdminChanged",
      "type": "event"
    },
    {
      "anonymous": false,
      "inputs": [
        {
          "indexed": true,
          "internalType": "bytes32",
          "name": "role",
          "type": "bytes32"
        },
        {
          "indexed": true,
          "internalType": "address",
          "name": "account",
          "type": "address"
        },
        {
          "indexed": true,
          "internalType": "address",
          "name": "sender",
          "type": "address"
        }
      ],
      "name": "RoleGranted",
      "type": "event"
    },
    {
      "anonymous": false,
      "inputs": [
        {
          "indexed": true,
          "internalType": "bytes32",
          "name": "role",
          "type": "bytes32"
        },
        {
          "indexed": true,
          "internalType": "address",
          "name": "account",
          "type": "address"
        },
        {
          "indexed": true,
          "internalType": "address",
          "name": "sender",
          "type": "address"
        }
      ],
      "name": "RoleRevoked",
      "type": "event"
    },
    {
      "inputs": [],
      "name": "ADMIN_ROLE",
      "outputs": [
        {
          "internalType": "bytes32",
          "name": "",
          "type": "bytes32"
        }
      ],
      "stateMutability": "view",
      "type": "function"
    },
    {
      "inputs": [],
      "name": "DEFAULT_ADMIN_ROLE",
      "outputs": [
        {
          "internalType": "bytes32",
          "name": "",
          "type": "bytes32"
        }
      ],
      "stateMutability": "view",
      "type": "function"
    },
    {
      "inputs": [
        {
          "internalType": "address",
          "name": "_tester",
          "type": "address"
        },
        {
          "internalType": "bool",
          "name": "_status",
          "type": "bool"
        }
      ],
      "name": "authorizeTester",
      "outputs": [],
      "stateMutability": "nonpayable",
      "type": "function"
    },
    {
      "inputs": [
        {
          "internalType": "address",
          "name": "",
          "type": "address"
        }
      ],
      "name": "authorizedTesters",
      "outputs": [
        {
          "internalType": "bool",
          "name": "",
          "type": "bool"
        }
      ],
      "stateMutability": "view",
      "type": "function"
    },
    {
      "inputs": [],
      "name": "farmerRegistry",
      "outputs": [
        {
          "internalType": "contract FarmerRegistry",
          "name": "",
          "type": "address"
        }
      ],
      "stateMutability": "view",
      "type": "function"
    },
    {
      "inputs": [
        {
          "internalType": "uint256",
          "name": "_lotNumber",
          "type": "uint256"
        }
      ],
      "name": "getProduct",
      "outputs": [
        {
          "components": [
            {
              "internalType": "uint256",
              "name": "lotNumber",
              "type": "uint256"
            },
            {
              "internalType": "uint256",
              "name": "farmerId",
              "type": "uint256"
            },
            {
              "internalType": "string",
              "name": "cropName",
              "type": "string"
            },
            {
              "internalType": "string",
              "name": "qualityGrade",
              "type": "string"
            },
            {
              "internalType": "uint256",
              "name": "price",
              "type": "uint256"
            },
            {
              "internalType": "uint256",
              "name": "testDate",
              "type": "uint256"
            },
            {
              "internalType": "uint256",
              "name": "expiryDate",
              "type": "uint256"
            },
            {
              "internalType": "string",
              "name": "certificationStatus",
              "type": "string"
            },
            {
              "internalType": "address",
              "name": "testerAddress",
              "type": "address"
            },
            {
              "internalType": "bool",
              "name": "exists",
              "type": "bool"
            }
          ],
          "internalType": "struct ProductRegistry.Product",
          "name": "",
          "type": "tuple"
        }
      ],
      "stateMutability": "view",
      "type": "function"
    },
    {
      "inputs": [],
      "name": "getProductCount",
      "outputs": [
        {
          "internalType": "uint256",
          "name": "",
          "type": "uint256"
        }
      ],
      "stateMutability": "view",
      "type": "function"
    },
    {
      "inputs": [
        {
          "internalType": "bytes32",
          "name": "role",
          "type": "bytes32"
        }
      ],
      "name": "getRoleAdmin",
      "outputs": [
        {
          "internalType": "bytes32",
          "name": "",
          "type": "bytes32"
        }
      ],
      "stateMutability": "view",
      "type": "function"
    },
    {
      "inputs": [
        {
          "internalType": "bytes32",
          "name": "role",
          "type": "bytes32"
        },
        {
          "internalType": "address",
          "name": "account",
          "type": "address"
        }
      ],
      "name": "grantRole",
      "outputs": [],
      "stateMutability": "nonpayable",
      "type": "function"
    },
    {
      "inputs": [
        {
          "internalType": "bytes32",
          "name": "role",
          "type": "bytes32"
        },
        {
          "internalType": "address",
          "name": "account",
          "type": "address"
        }
      ],
      "name": "hasRole",
      "outputs": [
        {
          "internalType": "bool",
          "name": "",
          "type": "bool"
        }
      ],
      "stateMutability": "view",
      "type": "function"
    },
    {
      "inputs": [
        {
          "internalType": "uint256",
          "name": "_lotNumber",
          "type": "uint256"
        }
      ],
      "name": "isProductExists",
      "outputs": [
        {
          "internalType": "bool",
          "name": "",
          "type": "bool"
        }
      ],
      "stateMutability": "view",
      "type": "function"
    },
    {
      "inputs": [
        {
          "internalType": "uint256",
          "name": "",
          "type": "uint256"
        }
      ],
      "name": "lotNumbers",
      "outputs": [
        {
          "internalType": "uint256",
          "name": "",
          "type": "uint256"
        }
      ],
      "stateMutability": "view",
      "type": "function"
    },
    {
      "inputs": [
        {
          "internalType": "uint256",
          "name": "",
          "type": "uint256"
        }
      ],
      "name": "products",
      "outputs": [
        {
          "internalType": "uint256",
          "name": "lotNumber",
          "type": "uint256"
        },
        {
          "internalType": "uint256",
          "name": "farmerId",
          "type": "uint256"
        },
        {
          "internalType": "string",
          "name": "cropName",
          "type": "string"
        },
        {
          "internalType": "string",
          "name": "qualityGrade",
          "type": "string"
        },
        {
          "internalType": "uint256",
          "name": "price",
          "type": "uint256"
        },
        {
          "internalType": "uint256",
          "name": "testDate",
          "type": "uint256"
        },
        {
          "internalType": "uint256",
          "name": "expiryDate",
          "type": "uint256"
        },
        {
          "internalType": "string",
          "name": "certificationStatus",
          "type": "string"
        },
        {
          "internalType": "address",
          "name": "testerAddress",
          "type": "address"
        },
        {
          "internalType": "bool",
          "name": "exists",
          "type": "bool"
        }
      ],
      "stateMutability": "view",
      "type": "function"
    },
    {
      "inputs": [
        {
          "internalType": "uint256",
          "name": "_lotNumber",
          "type": "uint256"
        },
        {
          "internalType": "uint256",
          "name": "_farmerId",
          "type": "uint256"
        },
        {
          "internalType": "string",
          "name": "_cropName",
          "type": "string"
        },
        {
          "internalType": "string",
          "name": "_qualityGrade",
          "type": "string"
        },
        {
          "internalType": "uint256",
          "name": "_price",
          "type": "uint256"
        },
        {
          "internalType": "uint256",
          "name": "_testDate",
          "type": "uint256"
        },
        {
          "internalType": "uint256",
          "name": "_expiryDate",
          "type": "uint256"
        },
        {
          "internalType": "string",
          "name": "_certificationStatus",
          "type": "string"
        }
      ],
      "name": "registerProduct",
      "outputs": [],
      "stateMutability": "nonpayable",
      "type": "function"
    },
    {
      "inputs": [
        {
          "internalType": "bytes32",
          "name": "role",
          "type": "bytes32"
        },
        {
          "internalType": "address",
          "name": "account",
          "type": "address"
        }
      ],
      "name": "renounceRole",
      "outputs": [],
      "stateMutability": "nonpayable",
      "type": "function"
    },
    {
      "inputs": [
        {
          "internalType": "bytes32",
          "name": "role",
          "type": "bytes32"
        },
        {
          "internalType": "address",
          "name": "account",
          "type": "address"
        }
      ],
      "name": "revokeRole",
      "outputs": [],
      "stateMutability": "nonpayable",
      "type": "function"
    },
    {
      "inputs": [
        {
          "internalType": "bytes4",
          "name": "interfaceId",
          "type": "bytes4"
        }
      ],
      "name": "supportsInterface",
      "outputs": [
        {
          "internalType": "bool",
          "name": "",
          "type": "bool"
        }
      ],
      "stateMutability": "view",
      "type": "function"
    }
  ],
  "bytecode": "0x60806040523480156200001157600080fd5b506040516200185238038062001852833981016040819052620000349162000143565b6200004160003362000093565b6200006d7fa49807205ce4d355092ef5a8a18f56e8913cf4a201fbe287825b095693c217753362000093565b600380546001600160a01b0319166001600160a01b039290921691909117905562000175565b6200009f8282620000a3565b5050565b6000828152602081815260408083206001600160a01b038516845290915290205460ff166200009f576000828152602081815260408083206001600160a01b03851684529091529020805460ff19166001179055620000ff3390565b6001600160a01b0316816001600160a01b0316837f2f8788117e7eff1d82e926ec794901d17c78024a50270940304540a733656f0d60405160405180910390a45050565b6000602082840312156200015657600080fd5b81516001600160a01b03811681146200016e57600080fd5b9392505050565b6116cd80620001856000396000f3fe608060405234801561001057600080fd5b506004361061010b5760003560e01c806375b238fc116100a2578063a9f9a36e11610071578063a9f9a36e14610255578063b9db15b414610282578063beb09a77146102a2578063d547741f146102b5578063db9f4409146102c857600080fd5b806375b238fc146101ea5780637acc0b201461021157806391d148541461023a578063a217fddf1461024d57600080fd5b806336568abe116100de57806336568abe146101a95780634a348da9146101bc5780636c8ecb2d146101c45780636f1d7c08146101d757600080fd5b806301ffc9a7146101105780630da8098014610138578063248a9ca3146101635780632f2ff15d14610194575b600080fd5b61012361011e36600461102b565b6102eb565b60405190151581526020015b60405180910390f35b60035461014b906001600160a01b031681565b6040516001600160a01b03909116815260200161012f565b610186610171366004611055565b60009081526020819052604090206001015490565b60405190815260200161012f565b6101a76101a236600461108a565b610322565b005b6101a76101b736600461108a565b61034c565b600254610186565b6101a76101d23660046110c4565b6103cf565b6101a76101e536600461119e565b610469565b6101867fa49807205ce4d355092ef5a8a18f56e8913cf4a201fbe287825b095693c2177581565b61022461021f366004611055565b6107c5565b60405161012f9a999897969594939291906112a7565b61012361024836600461108a565b6109bb565b610186600081565b610123610263366004611055565b600090815260016020526040902060080154600160a01b900460ff1690565b610295610290366004611055565b6109e4565b60405161012f919061132b565b6101866102b0366004611055565b610ce1565b6101a76102c336600461108a565b610d02565b6101236102d63660046113ec565b60046020526000908152604090205460ff1681565b60006001600160e01b03198216637965db0b60e01b148061031c57506301ffc9a760e01b6001600160e01b03198316145b92915050565b60008281526020819052604090206001015461033d81610d27565b6103478383610d34565b505050565b6001600160a01b03811633146103c15760405162461bcd60e51b815260206004820152602f60248201527f416363657373436f6e74726f6c3a2063616e206f6e6c792072656e6f756e636560448201526e103937b632b9903337b91039b2b63360891b60648201526084015b60405180910390fd5b6103cb8282610db8565b5050565b6103f97fa49807205ce4d355092ef5a8a18f56e8913cf4a201fbe287825b095693c21775336109bb565b61043e5760405162461bcd60e51b815260206004820152601660248201527521b0b63632b91034b9903737ba1030b71030b236b4b760511b60448201526064016103b8565b6001600160a01b03919091166000908152600460205260409020805460ff1916911515919091179055565b3360009081526004602052604090205460ff16806104ac57506104ac7fa49807205ce4d355092ef5a8a18f56e8913cf4a201fbe287825b095693c21775336109bb565b61050c5760405162461bcd60e51b815260206004820152602b60248201527f43616c6c6572206973206e6f7420616e20617574686f72697a6564207465737460448201526a32b91037b91030b236b4b760a91b60648201526084016103b8565b600088815260016020526040902060080154600160a01b900460ff16156105755760405162461bcd60e51b815260206004820152601d60248201527f4c6f74206e756d62657220616c7265616479207265676973746572656400000060448201526064016103b8565b60035460405163b6821b7760e01b8152600481018990526001600160a01b039091169063b6821b7790602401602060405180830381865afa1580156105be573d6000803e3d6000fd5b505050506040513d601f19601f820116820180604052508101906105e29190611407565b6106425760405162461bcd60e51b815260206004820152602b60248201527f4661726d6572206973206e6f7420617070726f766564206279205175616c697460448201526a7920417574686f7269747960a81b60648201526084016103b8565b604080516101408101825289815260208082018a81528284018a8152606084018a90526080840189905260a0840188905260c0840187905260e08401869052336101008501526001610120850181905260008e81529381905294909220835181559051938101939093555190919060028201906106bf90826114ac565b50606082015160038201906106d490826114ac565b506080820151600482015560a0820151600582015560c0820151600682015560e0820151600782019061070790826114ac565b5061010082015160089091018054610120909301511515600160a01b026001600160a81b03199093166001600160a01b0390921691909117919091179055600280546001810182556000919091527f405787fa12a823e0f2b7631cc41b3ba8828b3321ca811111fa75cd3aa3bb5ace01889055604051339088908a907e96fbaac2b52e52ae4a8721265c7656d34b7afe986d5f5d2b5d99585dd66882906107b3908b908b908b9061156c565b60405180910390a45050505050505050565b60016020819052600091825260409091208054918101546002820180549192916107ee90611424565b80601f016020809104026020016040519081016040528092919081815260200182805461081a90611424565b80156108675780601f1061083c57610100808354040283529160200191610867565b820191906000526020600020905b81548152906001019060200180831161084a57829003601f168201915b50505050509080600301805461087c90611424565b80601f01602080910402602001604051908101604052809291908181526020018280546108a890611424565b80156108f55780601f106108ca576101008083540402835291602001916108f5565b820191906000526020600020905b8154815290600101906020018083116108d857829003601f168201915b50505050509080600401549080600501549080600601549080600701805461091c90611424565b80601f016020809104026020016040519081016040528092919081815260200182805461094890611424565b80156109955780601f1061096a57610100808354040283529160200191610995565b820191906000526020600020905b81548152906001019060200180831161097857829003601f168201915b505050600890930154919250506001600160a01b0381169060ff600160a01b909104168a565b6000918252602082815260408084206001600160a01b0393909316845291905290205460ff1690565b610a45604051806101400160405280600081526020016000815260200160608152602001606081526020016000815260200160008152602001600081526020016060815260200160006001600160a01b031681526020016000151581525090565b600082815260016020526040902060080154600160a01b900460ff16610aad5760405162461bcd60e51b815260206004820152601a60248201527f50726f64756374206c6f7420646f6573206e6f7420657869737400000000000060448201526064016103b8565b60016000838152602001908152602001600020604051806101400160405290816000820154815260200160018201548152602001600282018054610af090611424565b80601f0160208091040260200160405190810160405280929190818152602001828054610b1c90611424565b8015610b695780601f10610b3e57610100808354040283529160200191610b69565b820191906000526020600020905b815481529060010190602001808311610b4c57829003601f168201915b50505050508152602001600382018054610b8290611424565b80601f0160208091040260200160405190810160405280929190818152602001828054610bae90611424565b8015610bfb5780601f10610bd057610100808354040283529160200191610bfb565b820191906000526020600020905b815481529060010190602001808311610bde57829003601f168201915b50505050508152602001600482015481526020016005820154815260200160068201548152602001600782018054610c3290611424565b80601f0160208091040260200160405190810160405280929190818152602001828054610c5e90611424565b8015610cab5780601f10610c8057610100808354040283529160200191610cab565b820191906000526020600020905b815481529060010190602001808311610c8e57829003601f168201915b5050509183525050600891909101546001600160a01b0381166020830152600160a01b900460ff16151560409091015292915050565b60028181548110610cf157600080fd5b600091825260209091200154905081565b600082815260208190526040902060010154610d1d81610d27565b6103478383610db8565b610d318133610e1d565b50565b610d3e82826109bb565b6103cb576000828152602081815260408083206001600160a01b03851684529091529020805460ff19166001179055610d743390565b6001600160a01b0316816001600160a01b0316837f2f8788117e7eff1d82e926ec794901d17c78024a50270940304540a733656f0d60405160405180910390a45050565b610dc282826109bb565b156103cb576000828152602081815260408083206001600160a01b0385168085529252808320805460ff1916905551339285917ff6391f5c32d9c69d2a47ea670b442974b53935d1edc7fd64eb21e047a839171b9190a45050565b610e2782826109bb565b6103cb57610e3481610e76565b610e3f836020610e88565b604051602001610e509291906115a2565b60408051601f198184030181529082905262461bcd60e51b82526103b891600401611617565b606061031c6001600160a01b03831660145b60606000610e97836002611640565b610ea2906002611657565b67ffffffffffffffff811115610eba57610eba6110fb565b6040519080825280601f01601f191660200182016040528015610ee4576020820181803683370190505b509050600360fc1b81600081518110610eff57610eff61166a565b60200101906001600160f81b031916908160001a905350600f60fb1b81600181518110610f2e57610f2e61166a565b60200101906001600160f81b031916908160001a9053506000610f52846002611640565b610f5d906001611657565b90505b6001811115610fd5576f181899199a1a9b1b9c1cb0b131b232b360811b85600f1660108110610f9157610f9161166a565b1a60f81b828281518110610fa757610fa761166a565b60200101906001600160f81b031916908160001a90535060049490941c93610fce81611680565b9050610f60565b5083156110245760405162461bcd60e51b815260206004820181905260248201527f537472696e67733a20686578206c656e67746820696e73756666696369656e7460448201526064016103b8565b9392505050565b60006020828403121561103d57600080fd5b81356001600160e01b03198116811461102457600080fd5b60006020828403121561106757600080fd5b5035919050565b80356001600160a01b038116811461108557600080fd5b919050565b6000806040838503121561109d57600080fd5b823591506110ad6020840161106e565b90509250929050565b8015158114610d3157600080fd5b600080604083850312156110d757600080fd5b6110e08361106e565b915060208301356110f0816110b6565b809150509250929050565b634e487b7160e01b600052604160045260246000fd5b600082601f83011261112257600080fd5b813567ffffffffffffffff8082111561113d5761113d6110fb565b604051601f8301601f19908116603f01168101908282118183101715611165576111656110fb565b8160405283815286602085880101111561117e57600080fd5b836020870160208301376000602085830101528094505050505092915050565b600080600080600080600080610100898b0312156111bb57600080fd5b8835975060208901359650604089013567ffffffffffffffff808211156111e157600080fd5b6111ed8c838d01611111565b975060608b013591508082111561120357600080fd5b61120f8c838d01611111565b965060808b0135955060a08b0135945060c08b0135935060e08b013591508082111561123a57600080fd5b506112478b828c01611111565b9150509295985092959890939650565b60005b8381101561127257818101518382015260200161125a565b50506000910152565b60008151808452611293816020860160208601611257565b601f01601f19169290920160200192915050565b60006101408c83528b60208401528060408401526112c78184018c61127b565b905082810360608401526112db818b61127b565b90508860808401528760a08401528660c084015282810360e0840152611301818761127b565b6001600160a01b039590951661010084015250509015156101209091015298975050505050505050565b6020815281516020820152602082015160408201526000604083015161014080606085015261135e61016085018361127b565b91506060850151601f198086850301608087015261137c848361127b565b9350608087015160a087015260a087015160c087015260c087015160e087015260e087015191506101008187860301818801526113b9858461127b565b945080880151925050506101206113da818701836001600160a01b03169052565b90950151151593019290925250919050565b6000602082840312156113fe57600080fd5b6110248261106e565b60006020828403121561141957600080fd5b8151611024816110b6565b600181811c9082168061143857607f821691505b60208210810361145857634e487b7160e01b600052602260045260246000fd5b50919050565b601f82111561034757600081815260208120601f850160051c810160208610156114855750805b601f850160051c820191505b818110156114a457828155600101611491565b505050505050565b815167ffffffffffffffff8111156114c6576114c66110fb565b6114da816114d48454611424565b8461145e565b602080601f83116001811461150f57600084156114f75750858301515b600019600386901b1c1916600185901b1785556114a4565b600085815260208120601f198616915b8281101561153e5788860151825594840194600190910190840161151f565b508582101561155c5787850151600019600388901b60f8161c191681555b5050505050600190811b01905550565b60608152600061157f606083018661127b565b8281036020840152611591818661127b565b915050826040830152949350505050565b7f416363657373436f6e74726f6c3a206163636f756e74200000000000000000008152600083516115da816017850160208801611257565b7001034b99036b4b9b9b4b733903937b6329607d1b601791840191820152835161160b816028840160208801611257565b01602801949350505050565b602081526000611024602083018461127b565b634e487b7160e01b600052601160045260246000fd5b808202811582820484141761031c5761031c61162a565b8082018082111561031c5761031c61162a565b634e487b7160e01b600052603260045260246000fd5b60008161168f5761168f61162a565b50600019019056fea2646970667358221220f08da36f5a9f2392b38a40c21c1f3ae64663c5a83586f2fa7ae3b7e10e0781f864736f6c63430008130033",
  "linkReferences": {},
  "deployedLinkReferences": {}
}