{
  "_format": "hh-sol-artifact-1",
  "contractName": "ProductRegistry",
  "sourceName": "contracts/ProductRegistry.sol",
  "abi": [
    {
      "inputs": [
        {
          "internalType": "address",
          "name": "_farmerRegistryAddress",
          "type": "address"
        }
      ],
      "stateMutability": "nonpayable",
      "type": "constructor"
    },
    {
      "anonymous": false,
      "inputs": [
        {
          "indexed": true,
          "internalType": "uint256",
          "name": "lotNumber",
          "type": "uint256"
        },
        {
          "indexed": true,
          "internalType": "uint256",
          "name": "farmerId",
          "type": "uint256"
        },
        {
          "indexed": false,
          "internalType": "string",
          "name": "cropName",
          "type": "string"
        },
        {
          "indexed": false,
          "internalType": "string",
          "name": "qualityGrade",
          "type": "string"
        },
        {
          "indexed": false,
          "internalType": "uint256",
          "name": "price",
          "type": "uint256"
        },
        {
          "indexed": true,
          "internalType": "address",
          "name": "tester",
          "type": "address"
        }
      ],
      "name": "ProductRegistered",
      "type": "event"
    },
    {
      "anonymous": false,
      "inputs": [
        {
          "indexed": true,
          "internalType": "bytes32",
          "name": "role",
          "type": "bytes32"
        },
        {
          "indexed": true,
          "internalType": "bytes32",
          "name": "previousAdminRole",
          "type": "bytes32"
        },
        {
          "indexed": true,
          "internalType": "bytes32",
          "name": "newAdminRole",
          "type": "bytes32"
        }
      ],
      "name": "RoleAdminChanged",
      "type": "event"
    },
    {
      "anonymous": false,
      "inputs": [
        {
          "indexed": true,
          "internalType": "bytes32",
          "name": "role",
          "type": "bytes32"
        },
        {
          "indexed": true,
          "internalType": "address",
          "name": "account",
          "type": "address"
        },
        {
          "indexed": true,
          "internalType": "address",
          "name": "sender",
          "type": "address"
        }
      ],
      "name": "RoleGranted",
      "type": "event"
    },
    {
      "anonymous": false,
      "inputs": [
        {
          "indexed": true,
          "internalType": "bytes32",
          "name": "role",
          "type": "bytes32"
        },
        {
          "indexed": true,
          "internalType": "address",
          "name": "account",
          "type": "address"
        },
        {
          "indexed": true,
          "internalType": "address",
          "name": "sender",
          "type": "address"
        }
      ],
      "name": "RoleRevoked",
      "type": "event"
    },
    {
      "inputs": [],
      "name": "ADMIN_ROLE",
      "outputs": [
        {
          "internalType": "bytes32",
          "name": "",
          "type": "bytes32"
        }
      ],
      "stateMutability": "view",
      "type": "function"
    },
    {
      "inputs": [],
      "name": "DEFAULT_ADMIN_ROLE",
      "outputs": [
        {
          "internalType": "bytes32",
          "name": "",
          "type": "bytes32"
        }
      ],
      "stateMutability": "view",
      "type": "function"
    },
    {
      "inputs": [],
      "name": "TESTER_ROLE",
      "outputs": [
        {
          "internalType": "bytes32",
          "name": "",
          "type": "bytes32"
        }
      ],
      "stateMutability": "view",
      "type": "function"
    },
    {
      "inputs": [],
      "name": "farmerRegistry",
      "outputs": [
        {
          "internalType": "contract FarmerRegistry",
          "name": "",
          "type": "address"
        }
      ],
      "stateMutability": "view",
      "type": "function"
    },
    {
      "inputs": [
        {
          "internalType": "uint256",
          "name": "_lotNumber",
          "type": "uint256"
        }
      ],
      "name": "getProduct",
      "outputs": [
        {
          "components": [
            {
              "internalType": "uint256",
              "name": "lotNumber",
              "type": "uint256"
            },
            {
              "internalType": "uint256",
              "name": "farmerId",
              "type": "uint256"
            },
            {
              "internalType": "string",
              "name": "cropName",
              "type": "string"
            },
            {
              "internalType": "string",
              "name": "qualityGrade",
              "type": "string"
            },
            {
              "internalType": "uint256",
              "name": "price",
              "type": "uint256"
            },
            {
              "internalType": "uint256",
              "name": "testDate",
              "type": "uint256"
            },
            {
              "internalType": "uint256",
              "name": "expiryDate",
              "type": "uint256"
            },
            {
              "internalType": "string",
              "name": "certificationStatus",
              "type": "string"
            },
            {
              "internalType": "address",
              "name": "testerAddress",
              "type": "address"
            },
            {
              "internalType": "bool",
              "name": "exists",
              "type": "bool"
            }
          ],
          "internalType": "struct ProductRegistry.Product",
          "name": "",
          "type": "tuple"
        }
      ],
      "stateMutability": "view",
      "type": "function"
    },
    {
      "inputs": [],
      "name": "getProductCount",
      "outputs": [
        {
          "internalType": "uint256",
          "name": "",
          "type": "uint256"
        }
      ],
      "stateMutability": "view",
      "type": "function"
    },
    {
      "inputs": [
        {
          "internalType": "bytes32",
          "name": "role",
          "type": "bytes32"
        }
      ],
      "name": "getRoleAdmin",
      "outputs": [
        {
          "internalType": "bytes32",
          "name": "",
          "type": "bytes32"
        }
      ],
      "stateMutability": "view",
      "type": "function"
    },
    {
      "inputs": [
        {
          "internalType": "bytes32",
          "name": "role",
          "type": "bytes32"
        },
        {
          "internalType": "address",
          "name": "account",
          "type": "address"
        }
      ],
      "name": "grantRole",
      "outputs": [],
      "stateMutability": "nonpayable",
      "type": "function"
    },
    {
      "inputs": [
        {
          "internalType": "bytes32",
          "name": "role",
          "type": "bytes32"
        },
        {
          "internalType": "address",
          "name": "account",
          "type": "address"
        }
      ],
      "name": "hasRole",
      "outputs": [
        {
          "internalType": "bool",
          "name": "",
          "type": "bool"
        }
      ],
      "stateMutability": "view",
      "type": "function"
    },
    {
      "inputs": [
        {
          "internalType": "uint256",
          "name": "_lotNumber",
          "type": "uint256"
        }
      ],
      "name": "isProductExists",
      "outputs": [
        {
          "internalType": "bool",
          "name": "",
          "type": "bool"
        }
      ],
      "stateMutability": "view",
      "type": "function"
    },
    {
      "inputs": [
        {
          "internalType": "uint256",
          "name": "",
          "type": "uint256"
        }
      ],
      "name": "lotNumbers",
      "outputs": [
        {
          "internalType": "uint256",
          "name": "",
          "type": "uint256"
        }
      ],
      "stateMutability": "view",
      "type": "function"
    },
    {
      "inputs": [
        {
          "internalType": "uint256",
          "name": "",
          "type": "uint256"
        }
      ],
      "name": "products",
      "outputs": [
        {
          "internalType": "uint256",
          "name": "lotNumber",
          "type": "uint256"
        },
        {
          "internalType": "uint256",
          "name": "farmerId",
          "type": "uint256"
        },
        {
          "internalType": "string",
          "name": "cropName",
          "type": "string"
        },
        {
          "internalType": "string",
          "name": "qualityGrade",
          "type": "string"
        },
        {
          "internalType": "uint256",
          "name": "price",
          "type": "uint256"
        },
        {
          "internalType": "uint256",
          "name": "testDate",
          "type": "uint256"
        },
        {
          "internalType": "uint256",
          "name": "expiryDate",
          "type": "uint256"
        },
        {
          "internalType": "string",
          "name": "certificationStatus",
          "type": "string"
        },
        {
          "internalType": "address",
          "name": "testerAddress",
          "type": "address"
        },
        {
          "internalType": "bool",
          "name": "exists",
          "type": "bool"
        }
      ],
      "stateMutability": "view",
      "type": "function"
    },
    {
      "inputs": [
        {
          "internalType": "uint256",
          "name": "_lotNumber",
          "type": "uint256"
        },
        {
          "internalType": "uint256",
          "name": "_farmerId",
          "type": "uint256"
        },
        {
          "internalType": "string",
          "name": "_cropName",
          "type": "string"
        },
        {
          "internalType": "string",
          "name": "_qualityGrade",
          "type": "string"
        },
        {
          "internalType": "uint256",
          "name": "_price",
          "type": "uint256"
        },
        {
          "internalType": "uint256",
          "name": "_testDate",
          "type": "uint256"
        },
        {
          "internalType": "uint256",
          "name": "_expiryDate",
          "type": "uint256"
        },
        {
          "internalType": "string",
          "name": "_certificationStatus",
          "type": "string"
        }
      ],
      "name": "registerProduct",
      "outputs": [],
      "stateMutability": "nonpayable",
      "type": "function"
    },
    {
      "inputs": [
        {
          "internalType": "bytes32",
          "name": "role",
          "type": "bytes32"
        },
        {
          "internalType": "address",
          "name": "account",
          "type": "address"
        }
      ],
      "name": "renounceRole",
      "outputs": [],
      "stateMutability": "nonpayable",
      "type": "function"
    },
    {
      "inputs": [
        {
          "internalType": "bytes32",
          "name": "role",
          "type": "bytes32"
        },
        {
          "internalType": "address",
          "name": "account",
          "type": "address"
        }
      ],
      "name": "revokeRole",
      "outputs": [],
      "stateMutability": "nonpayable",
      "type": "function"
    },
    {
      "inputs": [
        {
          "internalType": "bytes4",
          "name": "interfaceId",
          "type": "bytes4"
        }
      ],
      "name": "supportsInterface",
      "outputs": [
        {
          "internalType": "bool",
          "name": "",
          "type": "bool"
        }
      ],
      "stateMutability": "view",
      "type": "function"
    }
  ],
  "bytecode": "0x60806040523480156200001157600080fd5b506040516200174e3803806200174e833981016040819052620000349162000143565b6200004160003362000093565b6200006d7fa49807205ce4d355092ef5a8a18f56e8913cf4a201fbe287825b095693c217753362000093565b600380546001600160a01b0319166001600160a01b039290921691909117905562000175565b6200009f8282620000a3565b5050565b6000828152602081815260408083206001600160a01b038516845290915290205460ff166200009f576000828152602081815260408083206001600160a01b03851684529091529020805460ff19166001179055620000ff3390565b6001600160a01b0316816001600160a01b0316837f2f8788117e7eff1d82e926ec794901d17c78024a50270940304540a733656f0d60405160405180910390a45050565b6000602082840312156200015657600080fd5b81516001600160a01b03811681146200016e57600080fd5b9392505050565b6115c980620001856000396000f3fe608060405234801561001057600080fd5b50600436106101005760003560e01c806375b238fc11610097578063a9f9a36e11610066578063a9f9a36e1461025e578063b9db15b41461028b578063beb09a77146102ab578063d547741f146102be57600080fd5b806375b238fc146101f35780637acc0b201461021a57806391d1485414610243578063a217fddf1461025657600080fd5b80632f2ff15d116100d35780632f2ff15d146101b057806336568abe146101c55780634a348da9146101d85780636f1d7c08146101e057600080fd5b806301ffc9a7146101055780630da809801461012d57806311d2d61114610158578063248a9ca31461018d575b600080fd5b610118610113366004610f8e565b6102d1565b60405190151581526020015b60405180910390f35b600354610140906001600160a01b031681565b6040516001600160a01b039091168152602001610124565b61017f7fda6fac9f81a22bb02ed26455dcee2a5f2434c8a3377a2cc986478052c1594f9e81565b604051908152602001610124565b61017f61019b366004610fb8565b60009081526020819052604090206001015490565b6101c36101be366004610fd1565b610308565b005b6101c36101d3366004610fd1565b610332565b60025461017f565b6101c36101ee3660046110b0565b6103b5565b61017f7fa49807205ce4d355092ef5a8a18f56e8913cf4a201fbe287825b095693c2177581565b61022d610228366004610fb8565b610728565b6040516101249a999897969594939291906111b9565b610118610251366004610fd1565b61091e565b61017f600081565b61011861026c366004610fb8565b600090815260016020526040902060080154600160a01b900460ff1690565b61029e610299366004610fb8565b610947565b604051610124919061123d565b61017f6102b9366004610fb8565b610c44565b6101c36102cc366004610fd1565b610c65565b60006001600160e01b03198216637965db0b60e01b148061030257506301ffc9a760e01b6001600160e01b03198316145b92915050565b60008281526020819052604090206001015461032381610c8a565b61032d8383610c97565b505050565b6001600160a01b03811633146103a75760405162461bcd60e51b815260206004820152602f60248201527f416363657373436f6e74726f6c3a2063616e206f6e6c792072656e6f756e636560448201526e103937b632b9903337b91039b2b63360891b60648201526084015b60405180910390fd5b6103b18282610d1b565b5050565b6103df7fda6fac9f81a22bb02ed26455dcee2a5f2434c8a3377a2cc986478052c1594f9e3361091e565b8061040f575061040f7fa49807205ce4d355092ef5a8a18f56e8913cf4a201fbe287825b095693c217753361091e565b61046f5760405162461bcd60e51b815260206004820152602b60248201527f43616c6c6572206973206e6f7420616e20617574686f72697a6564207465737460448201526a32b91037b91030b236b4b760a91b606482015260840161039e565b600088815260016020526040902060080154600160a01b900460ff16156104d85760405162461bcd60e51b815260206004820152601d60248201527f4c6f74206e756d62657220616c72656164792072656769737465726564000000604482015260640161039e565b60035460405163b6821b7760e01b8152600481018990526001600160a01b039091169063b6821b7790602401602060405180830381865afa158015610521573d6000803e3d6000fd5b505050506040513d601f19601f8201168201806040525081019061054591906112fe565b6105a55760405162461bcd60e51b815260206004820152602b60248201527f4661726d6572206973206e6f7420617070726f766564206279205175616c697460448201526a7920417574686f7269747960a81b606482015260840161039e565b604080516101408101825289815260208082018a81528284018a8152606084018a90526080840189905260a0840188905260c0840187905260e08401869052336101008501526001610120850181905260008e815293819052949092208351815590519381019390935551909190600282019061062290826113a8565b506060820151600382019061063790826113a8565b506080820151600482015560a0820151600582015560c0820151600682015560e0820151600782019061066a90826113a8565b5061010082015160089091018054610120909301511515600160a01b026001600160a81b03199093166001600160a01b0390921691909117919091179055600280546001810182556000919091527f405787fa12a823e0f2b7631cc41b3ba8828b3321ca811111fa75cd3aa3bb5ace01889055604051339088908a907e96fbaac2b52e52ae4a8721265c7656d34b7afe986d5f5d2b5d99585dd6688290610716908b908b908b90611468565b60405180910390a45050505050505050565b600160208190526000918252604090912080549181015460028201805491929161075190611320565b80601f016020809104026020016040519081016040528092919081815260200182805461077d90611320565b80156107ca5780601f1061079f576101008083540402835291602001916107ca565b820191906000526020600020905b8154815290600101906020018083116107ad57829003601f168201915b5050505050908060030180546107df90611320565b80601f016020809104026020016040519081016040528092919081815260200182805461080b90611320565b80156108585780601f1061082d57610100808354040283529160200191610858565b820191906000526020600020905b81548152906001019060200180831161083b57829003601f168201915b50505050509080600401549080600501549080600601549080600701805461087f90611320565b80601f01602080910402602001604051908101604052809291908181526020018280546108ab90611320565b80156108f85780601f106108cd576101008083540402835291602001916108f8565b820191906000526020600020905b8154815290600101906020018083116108db57829003601f168201915b505050600890930154919250506001600160a01b0381169060ff600160a01b909104168a565b6000918252602082815260408084206001600160a01b0393909316845291905290205460ff1690565b6109a8604051806101400160405280600081526020016000815260200160608152602001606081526020016000815260200160008152602001600081526020016060815260200160006001600160a01b031681526020016000151581525090565b600082815260016020526040902060080154600160a01b900460ff16610a105760405162461bcd60e51b815260206004820152601a60248201527f50726f64756374206c6f7420646f6573206e6f74206578697374000000000000604482015260640161039e565b60016000838152602001908152602001600020604051806101400160405290816000820154815260200160018201548152602001600282018054610a5390611320565b80601f0160208091040260200160405190810160405280929190818152602001828054610a7f90611320565b8015610acc5780601f10610aa157610100808354040283529160200191610acc565b820191906000526020600020905b815481529060010190602001808311610aaf57829003601f168201915b50505050508152602001600382018054610ae590611320565b80601f0160208091040260200160405190810160405280929190818152602001828054610b1190611320565b8015610b5e5780601f10610b3357610100808354040283529160200191610b5e565b820191906000526020600020905b815481529060010190602001808311610b4157829003601f168201915b50505050508152602001600482015481526020016005820154815260200160068201548152602001600782018054610b9590611320565b80601f0160208091040260200160405190810160405280929190818152602001828054610bc190611320565b8015610c0e5780601f10610be357610100808354040283529160200191610c0e565b820191906000526020600020905b815481529060010190602001808311610bf157829003601f168201915b5050509183525050600891909101546001600160a01b0381166020830152600160a01b900460ff16151560409091015292915050565b60028181548110610c5457600080fd5b600091825260209091200154905081565b600082815260208190526040902060010154610c8081610c8a565b61032d8383610d1b565b610c948133610d80565b50565b610ca1828261091e565b6103b1576000828152602081815260408083206001600160a01b03851684529091529020805460ff19166001179055610cd73390565b6001600160a01b0316816001600160a01b0316837f2f8788117e7eff1d82e926ec794901d17c78024a50270940304540a733656f0d60405160405180910390a45050565b610d25828261091e565b156103b1576000828152602081815260408083206001600160a01b0385168085529252808320805460ff1916905551339285917ff6391f5c32d9c69d2a47ea670b442974b53935d1edc7fd64eb21e047a839171b9190a45050565b610d8a828261091e565b6103b157610d9781610dd9565b610da2836020610deb565b604051602001610db392919061149e565b60408051601f198184030181529082905262461bcd60e51b825261039e91600401611513565b60606103026001600160a01b03831660145b60606000610dfa83600261153c565b610e05906002611553565b67ffffffffffffffff811115610e1d57610e1d61100d565b6040519080825280601f01601f191660200182016040528015610e47576020820181803683370190505b509050600360fc1b81600081518110610e6257610e62611566565b60200101906001600160f81b031916908160001a905350600f60fb1b81600181518110610e9157610e91611566565b60200101906001600160f81b031916908160001a9053506000610eb584600261153c565b610ec0906001611553565b90505b6001811115610f38576f181899199a1a9b1b9c1cb0b131b232b360811b85600f1660108110610ef457610ef4611566565b1a60f81b828281518110610f0a57610f0a611566565b60200101906001600160f81b031916908160001a90535060049490941c93610f318161157c565b9050610ec3565b508315610f875760405162461bcd60e51b815260206004820181905260248201527f537472696e67733a20686578206c656e67746820696e73756666696369656e74604482015260640161039e565b9392505050565b600060208284031215610fa057600080fd5b81356001600160e01b031981168114610f8757600080fd5b600060208284031215610fca57600080fd5b5035919050565b60008060408385031215610fe457600080fd5b8235915060208301356001600160a01b038116811461100257600080fd5b809150509250929050565b634e487b7160e01b600052604160045260246000fd5b600082601f83011261103457600080fd5b813567ffffffffffffffff8082111561104f5761104f61100d565b604051601f8301601f19908116603f011681019082821181831017156110775761107761100d565b8160405283815286602085880101111561109057600080fd5b836020870160208301376000602085830101528094505050505092915050565b600080600080600080600080610100898b0312156110cd57600080fd5b8835975060208901359650604089013567ffffffffffffffff808211156110f357600080fd5b6110ff8c838d01611023565b975060608b013591508082111561111557600080fd5b6111218c838d01611023565b965060808b0135955060a08b0135945060c08b0135935060e08b013591508082111561114c57600080fd5b506111598b828c01611023565b9150509295985092959890939650565b60005b8381101561118457818101518382015260200161116c565b50506000910152565b600081518084526111a5816020860160208601611169565b601f01601f19169290920160200192915050565b60006101408c83528b60208401528060408401526111d98184018c61118d565b905082810360608401526111ed818b61118d565b90508860808401528760a08401528660c084015282810360e0840152611213818761118d565b6001600160a01b039590951661010084015250509015156101209091015298975050505050505050565b6020815281516020820152602082015160408201526000604083015161014080606085015261127061016085018361118d565b91506060850151601f198086850301608087015261128e848361118d565b9350608087015160a087015260a087015160c087015260c087015160e087015260e087015191506101008187860301818801526112cb858461118d565b945080880151925050506101206112ec818701836001600160a01b03169052565b90950151151593019290925250919050565b60006020828403121561131057600080fd5b81518015158114610f8757600080fd5b600181811c9082168061133457607f821691505b60208210810361135457634e487b7160e01b600052602260045260246000fd5b50919050565b601f82111561032d57600081815260208120601f850160051c810160208610156113815750805b601f850160051c820191505b818110156113a05782815560010161138d565b505050505050565b815167ffffffffffffffff8111156113c2576113c261100d565b6113d6816113d08454611320565b8461135a565b602080601f83116001811461140b57600084156113f35750858301515b600019600386901b1c1916600185901b1785556113a0565b600085815260208120601f198616915b8281101561143a5788860151825594840194600190910190840161141b565b50858210156114585787850151600019600388901b60f8161c191681555b5050505050600190811b01905550565b60608152600061147b606083018661118d565b828103602084015261148d818661118d565b915050826040830152949350505050565b7f416363657373436f6e74726f6c3a206163636f756e74200000000000000000008152600083516114d6816017850160208801611169565b7001034b99036b4b9b9b4b733903937b6329607d1b6017918401918201528351611507816028840160208801611169565b01602801949350505050565b602081526000610f87602083018461118d565b634e487b7160e01b600052601160045260246000fd5b808202811582820484141761030257610302611526565b8082018082111561030257610302611526565b634e487b7160e01b600052603260045260246000fd5b60008161158b5761158b611526565b50600019019056fea26469706673582212202c3288e7de177affc8a97b358c833d11a5f260da1462c97f1366da188ad957f864736f6c63430008130033",
  "linkReferences": {},
  "deployedLinkReferences": {}
}