{
  "_format": "hh-sol-artifact-1",
  "contractName": "RatingSystem",
  "sourceName": "contracts/RatingSystem.sol",
  "abi": [
    {
      "inputs": [
        {
          "internalType": "address",
          "name": "_farmerRegistryAddress",
          "type": "address"
        }
      ],
      "stateMutability": "nonpayable",
      "type": "constructor"
    },
    {
      "anonymous": false,
      "inputs": [
        {
          "indexed": true,
          "internalType": "uint256",
          "name": "ratingId",
          "type": "uint256"
        },
        {
          "indexed": true,
          "internalType": "address",
          "name": "consumer",
          "type": "address"
        },
        {
          "indexed": true,
          "internalType": "uint256",
          "name": "farmerId",
          "type": "uint256"
        },
        {
          "indexed": false,
          "internalType": "uint256",
          "name": "lotNumber",
          "type": "uint256"
        },
        {
          "indexed": false,
          "internalType": "uint8",
          "name": "reliability",
          "type": "uint8"
        },
        {
          "indexed": false,
          "internalType": "uint8",
          "name": "productQuality",
          "type": "uint8"
        },
        {
          "indexed": false,
          "internalType": "uint8",
          "name": "deliverySatisfaction",
          "type": "uint8"
        },
        {
          "indexed": false,
          "internalType": "uint256",
          "name": "timestamp",
          "type": "uint256"
        }
      ],
      "name": "RatingAdded",
      "type": "event"
    },
    {
      "inputs": [
        {
          "internalType": "uint256",
          "name": "_farmerId",
          "type": "uint256"
        },
        {
          "internalType": "uint256",
          "name": "_lotNumber",
          "type": "uint256"
        },
        {
          "internalType": "uint8",
          "name": "_reliability",
          "type": "uint8"
        },
        {
          "internalType": "uint8",
          "name": "_productQuality",
          "type": "uint8"
        },
        {
          "internalType": "uint8",
          "name": "_deliverySatisfaction",
          "type": "uint8"
        },
        {
          "internalType": "string",
          "name": "_comment",
          "type": "string"
        }
      ],
      "name": "addRating",
      "outputs": [],
      "stateMutability": "nonpayable",
      "type": "function"
    },
    {
      "inputs": [
        {
          "internalType": "uint256",
          "name": "",
          "type": "uint256"
        },
        {
          "internalType": "uint256",
          "name": "",
          "type": "uint256"
        }
      ],
      "name": "farmerRatings",
      "outputs": [
        {
          "internalType": "uint256",
          "name": "",
          "type": "uint256"
        }
      ],
      "stateMutability": "view",
      "type": "function"
    },
    {
      "inputs": [],
      "name": "farmerRegistry",
      "outputs": [
        {
          "internalType": "contract FarmerRegistry",
          "name": "",
          "type": "address"
        }
      ],
      "stateMutability": "view",
      "type": "function"
    },
    {
      "inputs": [
        {
          "internalType": "uint256",
          "name": "_farmerId",
          "type": "uint256"
        }
      ],
      "name": "getFarmerAverageRating",
      "outputs": [
        {
          "internalType": "uint256",
          "name": "",
          "type": "uint256"
        }
      ],
      "stateMutability": "view",
      "type": "function"
    },
    {
      "inputs": [
        {
          "internalType": "uint256",
          "name": "_farmerId",
          "type": "uint256"
        }
      ],
      "name": "getFarmerRatingCount",
      "outputs": [
        {
          "internalType": "uint256",
          "name": "",
          "type": "uint256"
        }
      ],
      "stateMutability": "view",
      "type": "function"
    },
    {
      "inputs": [
        {
          "internalType": "uint256",
          "name": "",
          "type": "uint256"
        }
      ],
      "name": "ratings",
      "outputs": [
        {
          "internalType": "uint256",
          "name": "ratingId",
          "type": "uint256"
        },
        {
          "internalType": "address",
          "name": "consumer",
          "type": "address"
        },
        {
          "internalType": "uint256",
          "name": "farmerId",
          "type": "uint256"
        },
        {
          "internalType": "uint256",
          "name": "lotNumber",
          "type": "uint256"
        },
        {
          "internalType": "uint8",
          "name": "reliability",
          "type": "uint8"
        },
        {
          "internalType": "uint8",
          "name": "productQuality",
          "type": "uint8"
        },
        {
          "internalType": "uint8",
          "name": "deliverySatisfaction",
          "type": "uint8"
        },
        {
          "internalType": "string",
          "name": "comment",
          "type": "string"
        },
        {
          "internalType": "uint256",
          "name": "timestamp",
          "type": "uint256"
        }
      ],
      "stateMutability": "view",
      "type": "function"
    }
  ],
  "bytecode": "0x608060405234801561001057600080fd5b50604051610c5a380380610c5a83398101604081905261002f91610054565b600280546001600160a01b0319166001600160a01b0392909216919091179055610084565b60006020828403121561006657600080fd5b81516001600160a01b038116811461007d57600080fd5b9392505050565b610bc7806100936000396000f3fe608060405234801561001057600080fd5b50600436106100625760003560e01c80630c57556b146100675780630da809801461008d57806347a7116b146100b85780634dd6c6e1146100cd5780635d30e84d146100e0578063b50c109d14610108575b600080fd5b61007a610075366004610747565b610128565b6040519081526020015b60405180910390f35b6002546100a0906001600160a01b031681565b6040516001600160a01b039091168152602001610084565b6100cb6100c636600461078c565b610270565b005b61007a6100db366004610881565b610619565b6100f36100ee366004610747565b61064a565b604051610084999897969594939291906108a3565b61007a610116366004610747565b60009081526001602052604090205490565b6000818152600160205260408120548082036101475750600092915050565b6000805b8281101561025157600085815260016020526040812080548390811061017357610173610945565b9060005260206000200154905060036000828154811061019557610195610945565b906000526020600020906007020160040160029054906101000a900460ff16600083815481106101c7576101c7610945565b906000526020600020906007020160040160019054906101000a900460ff16600084815481106101f9576101f9610945565b600091825260209091206004600790920201015461021a919060ff16610971565b6102249190610971565b61022e91906109a6565b61023b9060ff16846109c8565b9250508080610249906109db565b91505061014b565b508161025e82600a6109f4565b6102689190610a0b565b949350505050565b60025460405163b6821b7760e01b8152600481018890526001600160a01b039091169063b6821b7790602401602060405180830381865afa1580156102b9573d6000803e3d6000fd5b505050506040513d601f19601f820116820180604052508101906102dd9190610a1f565b61033a5760405162461bcd60e51b8152602060048201526024808201527f4661726d6572206d75737420626520617070726f76656420627920617574686f6044820152637269747960e01b60648201526084015b60405180910390fd5b60018460ff1610158015610352575060058460ff1611155b8015610362575060018360ff1610155b8015610372575060058360ff1611155b8015610382575060018260ff1610155b8015610392575060058260ff1611155b6103de5760405162461bcd60e51b815260206004820152601f60248201527f526174696e6773206d757374206265206265747765656e203120616e642035006044820152606401610331565b60008054604080516101208101825282815233602082019081529181018a8152606082018a815260ff808b16608085019081528a821660a086019081528a831660c0870190815260e087018b815242610100808a019190915260018b018c559a8052875160078b027f290decd9548b62a8d60345a988386fc84ba6bc95484008f6362f93160ef3e563810191825599517f290decd9548b62a8d60345a988386fc84ba6bc95484008f6362f93160ef3e5648b0180546001600160a01b03929092166001600160a01b031990921691909117905596517f290decd9548b62a8d60345a988386fc84ba6bc95484008f6362f93160ef3e5658a015594517f290decd9548b62a8d60345a988386fc84ba6bc95484008f6362f93160ef3e56689015591517f290decd9548b62a8d60345a988386fc84ba6bc95484008f6362f93160ef3e56788018054925193518516620100000262ff000019948616909b0261ffff19909316919094161717169690961790955593519293909290917f290decd9548b62a8d60345a988386fc84ba6bc95484008f6362f93160ef3e56801906105849082610ad1565b506101009190910151600690910155600087815260016020818152604080842080549384018155845292819020909101839055815188815260ff8881169282019290925286821681840152908516606082015242608082015290518891339184917f4a5d77ce29b26b4feb2d23bd7c9c52ed8c0d863fa7da643adbf6b43c273b86ff919081900360a00190a450505050505050565b6001602052816000526040600020818154811061063557600080fd5b90600052602060002001600091509150505481565b6000818154811061065a57600080fd5b60009182526020909120600790910201805460018201546002830154600384015460048501546005860180549597506001600160a01b03909416959294919360ff80831694610100840482169462010000909404909116929091906106be90610a48565b80601f01602080910402602001604051908101604052809291908181526020018280546106ea90610a48565b80156107375780601f1061070c57610100808354040283529160200191610737565b820191906000526020600020905b81548152906001019060200180831161071a57829003601f168201915b5050505050908060060154905089565b60006020828403121561075957600080fd5b5035919050565b803560ff8116811461077157600080fd5b919050565b634e487b7160e01b600052604160045260246000fd5b60008060008060008060c087890312156107a557600080fd5b86359550602087013594506107bc60408801610760565b93506107ca60608801610760565b92506107d860808801610760565b915060a087013567ffffffffffffffff808211156107f557600080fd5b818901915089601f83011261080957600080fd5b81358181111561081b5761081b610776565b604051601f8201601f19908116603f0116810190838211818310171561084357610843610776565b816040528281528c602084870101111561085c57600080fd5b8260208601602083013760006020848301015280955050505050509295509295509295565b6000806040838503121561089457600080fd5b50508035926020909101359150565b60006101208b8352602060018060a01b038c16818501528a604085015289606085015260ff8916608085015260ff881660a085015260ff871660c08501528160e085015285518083860152600092505b80831015610912578683018201518584016101400152918101916108f3565b6101409250600083828701015282601f19601f8301168601019350505050826101008301529a9950505050505050505050565b634e487b7160e01b600052603260045260246000fd5b634e487b7160e01b600052601160045260246000fd5b60ff818116838216019081111561098a5761098a61095b565b92915050565b634e487b7160e01b600052601260045260246000fd5b600060ff8316806109b9576109b9610990565b8060ff84160491505092915050565b8082018082111561098a5761098a61095b565b6000600182016109ed576109ed61095b565b5060010190565b808202811582820484141761098a5761098a61095b565b600082610a1a57610a1a610990565b500490565b600060208284031215610a3157600080fd5b81518015158114610a4157600080fd5b9392505050565b600181811c90821680610a5c57607f821691505b602082108103610a7c57634e487b7160e01b600052602260045260246000fd5b50919050565b601f821115610acc57600081815260208120601f850160051c81016020861015610aa95750805b601f850160051c820191505b81811015610ac857828155600101610ab5565b5050505b505050565b815167ffffffffffffffff811115610aeb57610aeb610776565b610aff81610af98454610a48565b84610a82565b602080601f831160018114610b345760008415610b1c5750858301515b600019600386901b1c1916600185901b178555610ac8565b600085815260208120601f198616915b82811015610b6357888601518255948401946001909101908401610b44565b5085821015610b815787850151600019600388901b60f8161c191681555b5050505050600190811b0190555056fea26469706673582212203424de1b35ee0475aa0fe72079e566e7786550a8a6fa792cd39f8b2cd94a74aa64736f6c63430008130033",
  "linkReferences": {},
  "deployedLinkReferences": {}
}