{
  "_format": "hh-sol-artifact-1",
  "contractName": "FarmerRegistry",
  "sourceName": "contracts/FarmerRegistry.sol",
  "abi": [
    {
      "inputs": [],
      "stateMutability": "nonpayable",
      "type": "constructor"
    },
    {
      "anonymous": false,
      "inputs": [
        {
          "indexed": true,
          "internalType": "uint256",
          "name": "farmerId",
          "type": "uint256"
        },
        {
          "indexed": true,
          "internalType": "address",
          "name": "verifier",
          "type": "address"
        }
      ],
      "name": "FarmerApproved",
      "type": "event"
    },
    {
      "anonymous": false,
      "inputs": [
        {
          "indexed": true,
          "internalType": "uint256",
          "name": "farmerId",
          "type": "uint256"
        },
        {
          "indexed": false,
          "internalType": "string",
          "name": "farmerName",
          "type": "string"
        },
        {
          "indexed": true,
          "internalType": "address",
          "name": "walletAddress",
          "type": "address"
        },
        {
          "indexed": false,
          "internalType": "string",
          "name": "cropType",
          "type": "string"
        }
      ],
      "name": "FarmerRegistered",
      "type": "event"
    },
    {
      "anonymous": false,
      "inputs": [
        {
          "indexed": true,
          "internalType": "uint256",
          "name": "farmerId",
          "type": "uint256"
        },
        {
          "indexed": true,
          "internalType": "address",
          "name": "verifier",
          "type": "address"
        }
      ],
      "name": "FarmerRejected",
      "type": "event"
    },
    {
      "anonymous": false,
      "inputs": [
        {
          "indexed": true,
          "internalType": "bytes32",
          "name": "role",
          "type": "bytes32"
        },
        {
          "indexed": true,
          "internalType": "bytes32",
          "name": "previousAdminRole",
          "type": "bytes32"
        },
        {
          "indexed": true,
          "internalType": "bytes32",
          "name": "newAdminRole",
          "type": "bytes32"
        }
      ],
      "name": "RoleAdminChanged",
      "type": "event"
    },
    {
      "anonymous": false,
      "inputs": [
        {
          "indexed": true,
          "internalType": "bytes32",
          "name": "role",
          "type": "bytes32"
        },
        {
          "indexed": true,
          "internalType": "address",
          "name": "account",
          "type": "address"
        },
        {
          "indexed": true,
          "internalType": "address",
          "name": "sender",
          "type": "address"
        }
      ],
      "name": "RoleGranted",
      "type": "event"
    },
    {
      "anonymous": false,
      "inputs": [
        {
          "indexed": true,
          "internalType": "bytes32",
          "name": "role",
          "type": "bytes32"
        },
        {
          "indexed": true,
          "internalType": "address",
          "name": "account",
          "type": "address"
        },
        {
          "indexed": true,
          "internalType": "address",
          "name": "sender",
          "type": "address"
        }
      ],
      "name": "RoleRevoked",
      "type": "event"
    },
    {
      "inputs": [],
      "name": "ADMIN_ROLE",
      "outputs": [
        {
          "internalType": "bytes32",
          "name": "",
          "type": "bytes32"
        }
      ],
      "stateMutability": "view",
      "type": "function"
    },
    {
      "inputs": [],
      "name": "DEFAULT_ADMIN_ROLE",
      "outputs": [
        {
          "internalType": "bytes32",
          "name": "",
          "type": "bytes32"
        }
      ],
      "stateMutability": "view",
      "type": "function"
    },
    {
      "inputs": [],
      "name": "TESTER_ROLE",
      "outputs": [
        {
          "internalType": "bytes32",
          "name": "",
          "type": "bytes32"
        }
      ],
      "stateMutability": "view",
      "type": "function"
    },
    {
      "inputs": [
        {
          "internalType": "uint256",
          "name": "_farmerId",
          "type": "uint256"
        }
      ],
      "name": "approveFarmer",
      "outputs": [],
      "stateMutability": "nonpayable",
      "type": "function"
    },
    {
      "inputs": [
        {
          "internalType": "uint256",
          "name": "_farmerId",
          "type": "uint256"
        },
        {
          "internalType": "string",
          "name": "_name",
          "type": "string"
        },
        {
          "internalType": "string",
          "name": "_location",
          "type": "string"
        },
        {
          "internalType": "string",
          "name": "_size",
          "type": "string"
        },
        {
          "internalType": "string",
          "name": "_farmingType",
          "type": "string"
        },
        {
          "internalType": "string",
          "name": "_cropType",
          "type": "string"
        },
        {
          "internalType": "uint256",
          "name": "_expectedYield",
          "type": "uint256"
        },
        {
          "internalType": "uint256",
          "name": "_cultivationDate",
          "type": "uint256"
        },
        {
          "internalType": "address",
          "name": "_farmerWallet",
          "type": "address"
        }
      ],
      "name": "approveFarmer",
      "outputs": [],
      "stateMutability": "nonpayable",
      "type": "function"
    },
    {
      "inputs": [
        {
          "internalType": "uint256",
          "name": "",
          "type": "uint256"
        }
      ],
      "name": "farmerIds",
      "outputs": [
        {
          "internalType": "uint256",
          "name": "",
          "type": "uint256"
        }
      ],
      "stateMutability": "view",
      "type": "function"
    },
    {
      "inputs": [
        {
          "internalType": "uint256",
          "name": "",
          "type": "uint256"
        }
      ],
      "name": "farmers",
      "outputs": [
        {
          "internalType": "uint256",
          "name": "farmerId",
          "type": "uint256"
        },
        {
          "internalType": "string",
          "name": "farmerName",
          "type": "string"
        },
        {
          "internalType": "string",
          "name": "farmLocation",
          "type": "string"
        },
        {
          "internalType": "string",
          "name": "farmSize",
          "type": "string"
        },
        {
          "internalType": "string",
          "name": "farmingType",
          "type": "string"
        },
        {
          "internalType": "string",
          "name": "cropType",
          "type": "string"
        },
        {
          "internalType": "uint256",
          "name": "expectedYield",
          "type": "uint256"
        },
        {
          "internalType": "uint256",
          "name": "cultivationDate",
          "type": "uint256"
        },
        {
          "internalType": "address",
          "name": "walletAddress",
          "type": "address"
        },
        {
          "internalType": "bool",
          "name": "isRegistered",
          "type": "bool"
        },
        {
          "internalType": "bool",
          "name": "isApproved",
          "type": "bool"
        }
      ],
      "stateMutability": "view",
      "type": "function"
    },
    {
      "inputs": [
        {
          "internalType": "uint256",
          "name": "_farmerId",
          "type": "uint256"
        }
      ],
      "name": "getFarmer",
      "outputs": [
        {
          "components": [
            {
              "internalType": "uint256",
              "name": "farmerId",
              "type": "uint256"
            },
            {
              "internalType": "string",
              "name": "farmerName",
              "type": "string"
            },
            {
              "internalType": "string",
              "name": "farmLocation",
              "type": "string"
            },
            {
              "internalType": "string",
              "name": "farmSize",
              "type": "string"
            },
            {
              "internalType": "string",
              "name": "farmingType",
              "type": "string"
            },
            {
              "internalType": "string",
              "name": "cropType",
              "type": "string"
            },
            {
              "internalType": "uint256",
              "name": "expectedYield",
              "type": "uint256"
            },
            {
              "internalType": "uint256",
              "name": "cultivationDate",
              "type": "uint256"
            },
            {
              "internalType": "address",
              "name": "walletAddress",
              "type": "address"
            },
            {
              "internalType": "bool",
              "name": "isRegistered",
              "type": "bool"
            },
            {
              "internalType": "bool",
              "name": "isApproved",
              "type": "bool"
            }
          ],
          "internalType": "struct FarmerRegistry.Farmer",
          "name": "",
          "type": "tuple"
        }
      ],
      "stateMutability": "view",
      "type": "function"
    },
    {
      "inputs": [],
      "name": "getFarmerCount",
      "outputs": [
        {
          "internalType": "uint256",
          "name": "",
          "type": "uint256"
        }
      ],
      "stateMutability": "view",
      "type": "function"
    },
    {
      "inputs": [
        {
          "internalType": "bytes32",
          "name": "role",
          "type": "bytes32"
        }
      ],
      "name": "getRoleAdmin",
      "outputs": [
        {
          "internalType": "bytes32",
          "name": "",
          "type": "bytes32"
        }
      ],
      "stateMutability": "view",
      "type": "function"
    },
    {
      "inputs": [
        {
          "internalType": "bytes32",
          "name": "role",
          "type": "bytes32"
        },
        {
          "internalType": "address",
          "name": "account",
          "type": "address"
        }
      ],
      "name": "grantRole",
      "outputs": [],
      "stateMutability": "nonpayable",
      "type": "function"
    },
    {
      "inputs": [
        {
          "internalType": "bytes32",
          "name": "role",
          "type": "bytes32"
        },
        {
          "internalType": "address",
          "name": "account",
          "type": "address"
        }
      ],
      "name": "hasRole",
      "outputs": [
        {
          "internalType": "bool",
          "name": "",
          "type": "bool"
        }
      ],
      "stateMutability": "view",
      "type": "function"
    },
    {
      "inputs": [
        {
          "internalType": "uint256",
          "name": "_farmerId",
          "type": "uint256"
        }
      ],
      "name": "isFarmerApproved",
      "outputs": [
        {
          "internalType": "bool",
          "name": "",
          "type": "bool"
        }
      ],
      "stateMutability": "view",
      "type": "function"
    },
    {
      "inputs": [
        {
          "internalType": "uint256",
          "name": "_farmerId",
          "type": "uint256"
        },
        {
          "internalType": "string",
          "name": "_name",
          "type": "string"
        },
        {
          "internalType": "string",
          "name": "_location",
          "type": "string"
        },
        {
          "internalType": "string",
          "name": "_size",
          "type": "string"
        },
        {
          "internalType": "string",
          "name": "_farmingType",
          "type": "string"
        },
        {
          "internalType": "string",
          "name": "_cropType",
          "type": "string"
        },
        {
          "internalType": "uint256",
          "name": "_expectedYield",
          "type": "uint256"
        },
        {
          "internalType": "uint256",
          "name": "_cultivationDate",
          "type": "uint256"
        }
      ],
      "name": "registerFarmer",
      "outputs": [],
      "stateMutability": "nonpayable",
      "type": "function"
    },
    {
      "inputs": [
        {
          "internalType": "uint256",
          "name": "_farmerId",
          "type": "uint256"
        }
      ],
      "name": "rejectFarmer",
      "outputs": [],
      "stateMutability": "nonpayable",
      "type": "function"
    },
    {
      "inputs": [
        {
          "internalType": "bytes32",
          "name": "role",
          "type": "bytes32"
        },
        {
          "internalType": "address",
          "name": "account",
          "type": "address"
        }
      ],
      "name": "renounceRole",
      "outputs": [],
      "stateMutability": "nonpayable",
      "type": "function"
    },
    {
      "inputs": [
        {
          "internalType": "bytes32",
          "name": "role",
          "type": "bytes32"
        },
        {
          "internalType": "address",
          "name": "account",
          "type": "address"
        }
      ],
      "name": "revokeRole",
      "outputs": [],
      "stateMutability": "nonpayable",
      "type": "function"
    },
    {
      "inputs": [
        {
          "internalType": "bytes4",
          "name": "interfaceId",
          "type": "bytes4"
        }
      ],
      "name": "supportsInterface",
      "outputs": [
        {
          "internalType": "bool",
          "name": "",
          "type": "bool"
        }
      ],
      "stateMutability": "view",
      "type": "function"
    }
  ],
  "bytecode": "0x60806040523480156200001157600080fd5b506200001f60003362000051565b6200004b7fa49807205ce4d355092ef5a8a18f56e8913cf4a201fbe287825b095693c217753362000051565b62000101565b6200005d828262000061565b5050565b6000828152602081815260408083206001600160a01b038516845290915290205460ff166200005d576000828152602081815260408083206001600160a01b03851684529091529020805460ff19166001179055620000bd3390565b6001600160a01b0316816001600160a01b0316837f2f8788117e7eff1d82e926ec794901d17c78024a50270940304540a733656f0d60405160405180910390a45050565b611dcc80620001116000396000f3fe608060405234801561001057600080fd5b50600436106101165760003560e01c80638afdd669116100a2578063ad0caa7611610071578063ad0caa7614610257578063b6821b7714610277578063c4a8b5d5146102a4578063d547741f146102ac578063f17a0677146102bf57600080fd5b80638afdd669146101ff57806391d1485414610229578063a217fddf1461023c578063a88ab4f91461024457600080fd5b80632f92ca10116100e95780632f92ca101461019e57806336568abe146101b15780634ef05121146101c457806375b238fc146101d7578063782bd499146101ec57600080fd5b806301ffc9a71461011b57806311d2d61114610143578063248a9ca3146101665780632f2ff15d14610189575b600080fd5b61012e610129366004611553565b6102d2565b60405190151581526020015b60405180910390f35b610158600080516020611d5783398151915281565b60405190815260200161013a565b61015861017436600461157d565b60009081526020819052604090206001015490565b61019c6101973660046115b2565b610309565b005b61019c6101ac36600461157d565b610333565b61019c6101bf3660046115b2565b610410565b6101586101d236600461157d565b61048e565b610158600080516020611d7783398151915281565b61019c6101fa36600461157d565b6104af565b61021261020d36600461157d565b6105eb565b60405161013a9b9a9998979695949392919061162e565b61012e6102373660046115b2565b6108fa565b610158600081565b61019c610252366004611784565b610923565b61026a61026536600461157d565b610b43565b60405161013a9190611873565b61012e61028536600461157d565b600090815260016020526040902060080154600160a81b900460ff1690565b600254610158565b61019c6102ba3660046115b2565b610f32565b61019c6102cd366004611971565b610f57565b60006001600160e01b03198216637965db0b60e01b148061030357506301ffc9a760e01b6001600160e01b03198316145b92915050565b6000828152602081905260409020600101546103248161124f565b61032e838361125c565b505050565b61034b600080516020611d57833981519152336108fa565b806103695750610369600080516020611d77833981519152336108fa565b61038e5760405162461bcd60e51b815260040161038590611a71565b60405180910390fd5b600081815260016020526040902060080154600160a01b900460ff166103c65760405162461bcd60e51b815260040161038590611abc565b600081815260016020526040808220600801805461ffff60a01b1916905551339183917f1b75284d2b0c514a585956a1807161dd81754035016cc7f1cdafbad1980268ca9190a350565b6001600160a01b03811633146104805760405162461bcd60e51b815260206004820152602f60248201527f416363657373436f6e74726f6c3a2063616e206f6e6c792072656e6f756e636560448201526e103937b632b9903337b91039b2b63360891b6064820152608401610385565b61048a82826112e0565b5050565b6002818154811061049e57600080fd5b600091825260209091200154905081565b6104c7600080516020611d57833981519152336108fa565b806104e557506104e5600080516020611d77833981519152336108fa565b6105015760405162461bcd60e51b815260040161038590611a71565b600081815260016020526040902060080154600160a01b900460ff166105395760405162461bcd60e51b815260040161038590611abc565b600081815260016020526040902060080154600160a81b900460ff161561059c5760405162461bcd60e51b815260206004820152601760248201527611985c9b595c88185b1c9958591e48185c1c1c9bdd9959604a1b6044820152606401610385565b600081815260016020526040808220600801805460ff60a81b1916600160a81b17905551339183917f013f356052ac05e072faed603bf550d416a8ae626ee6dc326b30a14443516ba49190a350565b60016020819052600091825260409091208054918101805461060c90611aeb565b80601f016020809104026020016040519081016040528092919081815260200182805461063890611aeb565b80156106855780601f1061065a57610100808354040283529160200191610685565b820191906000526020600020905b81548152906001019060200180831161066857829003601f168201915b50505050509080600201805461069a90611aeb565b80601f01602080910402602001604051908101604052809291908181526020018280546106c690611aeb565b80156107135780601f106106e857610100808354040283529160200191610713565b820191906000526020600020905b8154815290600101906020018083116106f657829003601f168201915b50505050509080600301805461072890611aeb565b80601f016020809104026020016040519081016040528092919081815260200182805461075490611aeb565b80156107a15780601f10610776576101008083540402835291602001916107a1565b820191906000526020600020905b81548152906001019060200180831161078457829003601f168201915b5050505050908060040180546107b690611aeb565b80601f01602080910402602001604051908101604052809291908181526020018280546107e290611aeb565b801561082f5780601f106108045761010080835404028352916020019161082f565b820191906000526020600020905b81548152906001019060200180831161081257829003601f168201915b50505050509080600501805461084490611aeb565b80601f016020809104026020016040519081016040528092919081815260200182805461087090611aeb565b80156108bd5780601f10610892576101008083540402835291602001916108bd565b820191906000526020600020905b8154815290600101906020018083116108a057829003601f168201915b50505060068401546007850154600890950154939490939092506001600160a01b038116915060ff600160a01b8204811691600160a81b9004168b565b6000918252602082815260408084206001600160a01b0393909316845291905290205460ff1690565b600088815260016020526040902060080154600160a01b900460ff161561098c5760405162461bcd60e51b815260206004820152601c60248201527f4661726d657220494420616c72656164792072656769737465726564000000006044820152606401610385565b604080516101608101825289815260208082018a81528284018a9052606083018990526080830188905260a0830187905260c0830186905260e083018590523361010084015260016101208401819052600061014085018190528d815292819052939091208251815590519192909190820190610a099082611b73565b5060408201516002820190610a1e9082611b73565b5060608201516003820190610a339082611b73565b5060808201516004820190610a489082611b73565b5060a08201516005820190610a5d9082611b73565b5060c0820151600682015560e0820151600782015561010082015160089091018054610120840151610140909401511515600160a81b0260ff60a81b19941515600160a01b026001600160a81b03199092166001600160a01b03909416939093171792909216179055600280546001810182556000919091527f405787fa12a823e0f2b7631cc41b3ba8828b3321ca811111fa75cd3aa3bb5ace01889055604051339089907fd26126b3d94ac8afcdb59a01b11aa18e848f58440a87e317f35abe4554459be290610b31908b908890611c33565b60405180910390a35050505050505050565b610bad604051806101600160405280600081526020016060815260200160608152602001606081526020016060815260200160608152602001600081526020016000815260200160006001600160a01b031681526020016000151581526020016000151581525090565b600082815260016020526040902060080154600160a01b900460ff16610be55760405162461bcd60e51b815260040161038590611abc565b6000828152600160208181526040928390208351610160810190945280548452918201805491840191610c1790611aeb565b80601f0160208091040260200160405190810160405280929190818152602001828054610c4390611aeb565b8015610c905780601f10610c6557610100808354040283529160200191610c90565b820191906000526020600020905b815481529060010190602001808311610c7357829003601f168201915b50505050508152602001600282018054610ca990611aeb565b80601f0160208091040260200160405190810160405280929190818152602001828054610cd590611aeb565b8015610d225780601f10610cf757610100808354040283529160200191610d22565b820191906000526020600020905b815481529060010190602001808311610d0557829003601f168201915b50505050508152602001600382018054610d3b90611aeb565b80601f0160208091040260200160405190810160405280929190818152602001828054610d6790611aeb565b8015610db45780601f10610d8957610100808354040283529160200191610db4565b820191906000526020600020905b815481529060010190602001808311610d9757829003601f168201915b50505050508152602001600482018054610dcd90611aeb565b80601f0160208091040260200160405190810160405280929190818152602001828054610df990611aeb565b8015610e465780601f10610e1b57610100808354040283529160200191610e46565b820191906000526020600020905b815481529060010190602001808311610e2957829003601f168201915b50505050508152602001600582018054610e5f90611aeb565b80601f0160208091040260200160405190810160405280929190818152602001828054610e8b90611aeb565b8015610ed85780601f10610ead57610100808354040283529160200191610ed8565b820191906000526020600020905b815481529060010190602001808311610ebb57829003601f168201915b505050918352505060068201546020820152600782015460408201526008909101546001600160a01b038116606083015260ff600160a01b8204811615156080840152600160a81b90910416151560a09091015292915050565b600082815260208190526040902060010154610f4d8161124f565b61032e83836112e0565b610f6f600080516020611d57833981519152336108fa565b80610f8d5750610f8d600080516020611d77833981519152336108fa565b610fa95760405162461bcd60e51b815260040161038590611a71565b600089815260016020526040902060080154600160a01b900460ff16611191576040518061016001604052808a8152602001898152602001888152602001878152602001868152602001858152602001848152602001838152602001826001600160a01b0316815260200160011515815260200160011515815250600160008b81526020019081526020016000206000820151816000015560208201518160010190816110569190611b73565b506040820151600282019061106b9082611b73565b50606082015160038201906110809082611b73565b50608082015160048201906110959082611b73565b5060a082015160058201906110aa9082611b73565b5060c0820151600682015560e0820151600782015561010082015160089091018054610120840151610140909401511515600160a81b0260ff60a81b19941515600160a01b026001600160a81b03199092166001600160a01b0394851617919091179390931692909217909155600280546001810182556000919091527f405787fa12a823e0f2b7631cc41b3ba8828b3321ca811111fa75cd3aa3bb5ace018a9055604051908216908a907fd26126b3d94ac8afcdb59a01b11aa18e848f58440a87e317f35abe4554459be290611184908c908990611c33565b60405180910390a3611217565b600089815260016020526040902060080154600160a81b900460ff16156111f45760405162461bcd60e51b815260206004820152601760248201527611985c9b595c88185b1c9958591e48185c1c1c9bdd9959604a1b6044820152606401610385565b6000898152600160205260409020600801805460ff60a81b1916600160a81b1790555b60405133908a907f013f356052ac05e072faed603bf550d416a8ae626ee6dc326b30a14443516ba490600090a3505050505050505050565b6112598133611345565b50565b61126682826108fa565b61048a576000828152602081815260408083206001600160a01b03851684529091529020805460ff1916600117905561129c3390565b6001600160a01b0316816001600160a01b0316837f2f8788117e7eff1d82e926ec794901d17c78024a50270940304540a733656f0d60405160405180910390a45050565b6112ea82826108fa565b1561048a576000828152602081815260408083206001600160a01b0385168085529252808320805460ff1916905551339285917ff6391f5c32d9c69d2a47ea670b442974b53935d1edc7fd64eb21e047a839171b9190a45050565b61134f82826108fa565b61048a5761135c8161139e565b6113678360206113b0565b604051602001611378929190611c61565b60408051601f198184030181529082905262461bcd60e51b825261038591600401611cd6565b60606103036001600160a01b03831660145b606060006113bf836002611cff565b6113ca906002611d16565b67ffffffffffffffff8111156113e2576113e26116e1565b6040519080825280601f01601f19166020018201604052801561140c576020820181803683370190505b509050600360fc1b8160008151811061142757611427611d29565b60200101906001600160f81b031916908160001a905350600f60fb1b8160018151811061145657611456611d29565b60200101906001600160f81b031916908160001a905350600061147a846002611cff565b611485906001611d16565b90505b60018111156114fd576f181899199a1a9b1b9c1cb0b131b232b360811b85600f16601081106114b9576114b9611d29565b1a60f81b8282815181106114cf576114cf611d29565b60200101906001600160f81b031916908160001a90535060049490941c936114f681611d3f565b9050611488565b50831561154c5760405162461bcd60e51b815260206004820181905260248201527f537472696e67733a20686578206c656e67746820696e73756666696369656e746044820152606401610385565b9392505050565b60006020828403121561156557600080fd5b81356001600160e01b03198116811461154c57600080fd5b60006020828403121561158f57600080fd5b5035919050565b80356001600160a01b03811681146115ad57600080fd5b919050565b600080604083850312156115c557600080fd5b823591506115d560208401611596565b90509250929050565b60005b838110156115f95781810151838201526020016115e1565b50506000910152565b6000815180845261161a8160208601602086016115de565b601f01601f19169290920160200192915050565b60006101608d83528060208401526116488184018e611602565b9050828103604084015261165c818d611602565b90508281036060840152611670818c611602565b90508281036080840152611684818b611602565b905082810360a0840152611698818a611602565b60c0840189905260e084018890526001600160a01b03871661010085015285151561012085015284151561014085015291506116d19050565b9c9b505050505050505050505050565b634e487b7160e01b600052604160045260246000fd5b600082601f83011261170857600080fd5b813567ffffffffffffffff80821115611723576117236116e1565b604051601f8301601f19908116603f0116810190828211818310171561174b5761174b6116e1565b8160405283815286602085880101111561176457600080fd5b836020870160208301376000602085830101528094505050505092915050565b600080600080600080600080610100898b0312156117a157600080fd5b88359750602089013567ffffffffffffffff808211156117c057600080fd5b6117cc8c838d016116f7565b985060408b01359150808211156117e257600080fd5b6117ee8c838d016116f7565b975060608b013591508082111561180457600080fd5b6118108c838d016116f7565b965060808b013591508082111561182657600080fd5b6118328c838d016116f7565b955060a08b013591508082111561184857600080fd5b506118558b828c016116f7565b93505060c0890135915060e089013590509295985092959890939650565b60208152815160208201526000602083015161016080604085015261189c610180850183611602565b91506040850151601f19808685030160608701526118ba8483611602565b935060608701519150808685030160808701526118d78483611602565b935060808701519150808685030160a08701526118f48483611602565b935060a08701519150808685030160c0870152506119128382611602565b92505060c085015160e085015260e085015161010081818701528087015191505061012061194a818701836001600160a01b03169052565b860151905061014061195f8682018315159052565b90950151151593019290925250919050565b60008060008060008060008060006101208a8c03121561199057600080fd5b8935985060208a013567ffffffffffffffff808211156119af57600080fd5b6119bb8d838e016116f7565b995060408c01359150808211156119d157600080fd5b6119dd8d838e016116f7565b985060608c01359150808211156119f357600080fd5b6119ff8d838e016116f7565b975060808c0135915080821115611a1557600080fd5b611a218d838e016116f7565b965060a08c0135915080821115611a3757600080fd5b50611a448c828d016116f7565b94505060c08a0135925060e08a01359150611a626101008b01611596565b90509295985092959850929598565b6020808252602b908201527f43616c6c6572206973206e6f7420616e20617574686f72697a6564207465737460408201526a32b91037b91030b236b4b760a91b606082015260800190565b60208082526015908201527411985c9b595c881b9bdd081c9959da5cdd195c9959605a1b604082015260600190565b600181811c90821680611aff57607f821691505b602082108103611b1f57634e487b7160e01b600052602260045260246000fd5b50919050565b601f82111561032e57600081815260208120601f850160051c81016020861015611b4c5750805b601f850160051c820191505b81811015611b6b57828155600101611b58565b505050505050565b815167ffffffffffffffff811115611b8d57611b8d6116e1565b611ba181611b9b8454611aeb565b84611b25565b602080601f831160018114611bd65760008415611bbe5750858301515b600019600386901b1c1916600185901b178555611b6b565b600085815260208120601f198616915b82811015611c0557888601518255948401946001909101908401611be6565b5085821015611c235787850151600019600388901b60f8161c191681555b5050505050600190811b01905550565b604081526000611c466040830185611602565b8281036020840152611c588185611602565b95945050505050565b7f416363657373436f6e74726f6c3a206163636f756e7420000000000000000000815260008351611c998160178501602088016115de565b7001034b99036b4b9b9b4b733903937b6329607d1b6017918401918201528351611cca8160288401602088016115de565b01602801949350505050565b60208152600061154c6020830184611602565b634e487b7160e01b600052601160045260246000fd5b808202811582820484141761030357610303611ce9565b8082018082111561030357610303611ce9565b634e487b7160e01b600052603260045260246000fd5b600081611d4e57611d4e611ce9565b50600019019056feda6fac9f81a22bb02ed26455dcee2a5f2434c8a3377a2cc986478052c1594f9ea49807205ce4d355092ef5a8a18f56e8913cf4a201fbe287825b095693c21775a26469706673582212200b4270f2ba7e64bce267d890b74cf4a2c1708ccad51c51166fd0c6ed63bcd54b64736f6c63430008130033",
  "linkReferences": {},
  "deployedLinkReferences": {}
}