{"contracts/MicroFinance.sol":{"MicroFinance":{"abi":[{"inputs":[{"internalType":"address","name":"_farmerRegistryAddress","type":"address"},{"internalType":"address","name":"_productRegistryAddress","type":"address"}],"stateMutability":"nonpayable","type":"constructor"},{"anonymous":false,"inputs":[{"indexed":true,"internalType":"uint256","name":"investmentId","type":"uint256"},{"indexed":true,"internalType":"address","name":"investor","type":"address"},{"indexed":true,"internalType":"uint256","name":"farmerId","type":"uint256"},{"indexed":false,"internalType":"uint256","name":"lotNumber","type":"uint256"},{"indexed":false,"internalType":"uint256","name":"amount","type":"uint256"},{"indexed":false,"internalType":"uint256","name":"timestamp","type":"uint256"}],"name":"InvestmentMade","type":"event"},{"anonymous":false,"inputs":[{"indexed":true,"internalType":"uint256","name":"investmentId","type":"uint256"},{"indexed":false,"internalType":"string","name":"status","type":"string"}],"name":"InvestmentStatusUpdated","type":"event"},{"anonymous":false,"inputs":[{"indexed":true,"internalType":"address","name":"previousOwner","type":"address"},{"indexed":true,"internalType":"address","name":"newOwner","type":"address"}],"name":"OwnershipTransferred","type":"event"},{"inputs":[{"internalType":"uint256","name":"","type":"uint256"},{"internalType":"uint256","name":"","type":"uint256"}],"name":"farmerInvestments","outputs":[{"internalType":"uint256","name":"","type":"uint256"}],"stateMutability":"view","type":"function"},{"inputs":[],"name":"farmerRegistry","outputs":[{"internalType":"contract FarmerRegistry","name":"","type":"address"}],"stateMutability":"view","type":"function"},{"inputs":[{"internalType":"uint256","name":"_farmerId","type":"uint256"}],"name":"getFarmerInvestments","outputs":[{"internalType":"uint256[]","name":"","type":"uint256[]"}],"stateMutability":"view","type":"function"},{"inputs":[{"internalType":"uint256","name":"_investmentId","type":"uint256"}],"name":"getInvestment","outputs":[{"components":[{"internalType":"uint256","name":"investmentId","type":"uint256"},{"internalType":"address","name":"investor","type":"address"},{"internalType":"uint256","name":"farmerId","type":"uint256"},{"internalType":"uint256","name":"lotNumber","type":"uint256"},{"internalType":"uint256","name":"amount","type":"uint256"},{"internalType":"uint256","name":"timestamp","type":"uint256"},{"internalType":"uint256","name":"profitPercentage","type":"uint256"},{"internalType":"string","name":"status","type":"string"}],"internalType":"struct MicroFinance.Investment","name":"","type":"tuple"}],"stateMutability":"view","type":"function"},{"inputs":[],"name":"getInvestmentCount","outputs":[{"internalType":"uint256","name":"","type":"uint256"}],"stateMutability":"view","type":"function"},{"inputs":[{"internalType":"address","name":"_investor","type":"address"}],"name":"getInvestorInvestments","outputs":[{"internalType":"uint256[]","name":"","type":"uint256[]"}],"stateMutability":"view","type":"function"},{"inputs":[{"internalType":"uint256","name":"_farmerId","type":"uint256"},{"internalType":"uint256","name":"_lotNumber","type":"uint256"},{"internalType":"uint256","name":"_profitPercentage","type":"uint256"}],"name":"invest","outputs":[],"stateMutability":"payable","type":"function"},{"inputs":[{"internalType":"uint256","name":"","type":"uint256"}],"name":"investments","outputs":[{"internalType":"uint256","name":"investmentId","type":"uint256"},{"internalType":"address","name":"investor","type":"address"},{"internalType":"uint256","name":"farmerId","type":"uint256"},{"internalType":"uint256","name":"lotNumber","type":"uint256"},{"internalType":"uint256","name":"amount","type":"uint256"},{"internalType":"uint256","name":"timestamp","type":"uint256"},{"internalType":"uint256","name":"profitPercentage","type":"uint256"},{"internalType":"string","name":"status","type":"string"}],"stateMutability":"view","type":"function"},{"inputs":[{"internalType":"address","name":"","type":"address"},{"internalType":"uint256","name":"","type":"uint256"}],"name":"investorInvestments","outputs":[{"internalType":"uint256","name":"","type":"uint256"}],"stateMutability":"view","type":"function"},{"inputs":[],"name":"owner","outputs":[{"internalType":"address","name":"","type":"address"}],"stateMutability":"view","type":"function"},{"inputs":[],"name":"productRegistry","outputs":[{"internalType":"contract ProductRegistry","name":"","type":"address"}],"stateMutability":"view","type":"function"},{"inputs":[],"name":"renounceOwnership","outputs":[],"stateMutability":"nonpayable","type":"function"},{"inputs":[{"internalType":"address","name":"newOwner","type":"address"}],"name":"transferOwnership","outputs":[],"stateMutability":"nonpayable","type":"function"},{"inputs":[{"internalType":"uint256","name":"_investmentId","type":"uint256"},{"internalType":"string","name":"_status","type":"string"}],"name":"updateInvestmentStatus","outputs":[],"stateMutability":"nonpayable","type":"function"}],"evm":{"bytecode":{"linkReferences":{},"object":"60806040523480156200001157600080fd5b50604051620017d9380380620017d98339810160408190526200003491620000de565b6200003f3362000071565b600480546001600160a01b039384166001600160a01b0319918216179091556005805492909316911617905562000116565b600080546001600160a01b038381166001600160a01b0319831681178455604051919092169283917f8be0079c531659141344cd1fd0a4f28419497f9722a3daafe3b4186f6b6457e09190a35050565b80516001600160a01b0381168114620000d957600080fd5b919050565b60008060408385031215620000f257600080fd5b620000fd83620000c1565b91506200010d60208401620000c1565b90509250929050565b6116b380620001266000396000f3fe6080604052600436106100dd5760003560e01c80639f37353a1161007f578063eef90b6211610059578063eef90b6214610244578063f2fde38b14610264578063fd345c8a14610284578063fff218c3146102b857600080fd5b80639f37353a146101ef578063b8d846971461020f578063cc42edbd1461022457600080fd5b8063715018a6116100bb578063715018a61461017957806379aba36d146101905780638da5cb5b146101a35780639827cda8146101c157600080fd5b80630da80980146100e257806322ae634f1461011f5780634c431f001461014c575b600080fd5b3480156100ee57600080fd5b50600454610102906001600160a01b031681565b6040516001600160a01b0390911681526020015b60405180910390f35b34801561012b57600080fd5b5061013f61013a366004610fe4565b6102d8565b604051610116919061104d565b34801561015857600080fd5b5061016c6101673660046110d7565b6104a8565b60405161011691906110fb565b34801561018557600080fd5b5061018e610514565b005b61018e61019e36600461113f565b610528565b3480156101af57600080fd5b506000546001600160a01b0316610102565b3480156101cd57600080fd5b506101e16101dc36600461116b565b610b47565b604051908152602001610116565b3480156101fb57600080fd5b5061016c61020a366004610fe4565b610b78565b34801561021b57600080fd5b506001546101e1565b34801561023057600080fd5b5061018e61023f366004611226565b610bd8565b34801561025057600080fd5b506101e161025f3660046112b0565b610db9565b34801561027057600080fd5b5061018e61027f3660046110d7565b610dd5565b34801561029057600080fd5b506102a461029f366004610fe4565b610e4e565b6040516101169897969594939291906112dc565b3480156102c457600080fd5b50600554610102906001600160a01b031681565b6103296040518061010001604052806000815260200160006001600160a01b031681526020016000815260200160008152602001600081526020016000815260200160008152602001606081525090565b60015482106103775760405162461bcd60e51b8152602060048201526015602482015274125b9d985b1a59081a5b9d995cdd1b595b9d081251605a1b60448201526064015b60405180910390fd5b6001828154811061038a5761038a611331565b906000526020600020906008020160405180610100016040529081600082015481526020016001820160009054906101000a90046001600160a01b03166001600160a01b03166001600160a01b03168152602001600282015481526020016003820154815260200160048201548152602001600582015481526020016006820154815260200160078201805461041f90611347565b80601f016020809104026020016040519081016040528092919081815260200182805461044b90611347565b80156104985780601f1061046d57610100808354040283529160200191610498565b820191906000526020600020905b81548152906001019060200180831161047b57829003601f168201915b5050505050815250509050919050565b6001600160a01b03811660009081526003602090815260409182902080548351818402810184019094528084526060939283018282801561050857602002820191906000526020600020905b8154815260200190600101908083116104f4575b50505050509050919050565b61051c610f3a565b6105266000610f94565b565b6000341161058c5760405162461bcd60e51b815260206004820152602b60248201527f496e766573746d656e7420616d6f756e74206d7573742062652067726561746560448201526a72207468616e207a65726f60a81b606482015260840161036e565b6004805460405163b6821b7760e01b81529182018590526001600160a01b03169063b6821b7790602401602060405180830381865afa1580156105d3573d6000803e3d6000fd5b505050506040513d601f19601f820116820180604052508101906105f79190611396565b61064f5760405162461bcd60e51b8152602060048201526024808201527f4661726d6572206d75737420626520617070726f76656420627920617574686f6044820152637269747960e01b606482015260840161036e565b60048054604051635686553b60e11b81529182018590526000916001600160a01b039091169063ad0caa7690602401600060405180830381865afa15801561069b573d6000803e3d6000fd5b505050506040513d6000823e601f3d908101601f191682016040526106c39190810190611401565b610100015190506001600160a01b0381166107205760405162461bcd60e51b815260206004820152601f60248201527f4661726d65722077616c6c65742061646472657373206e6f7420666f756e6400604482015260640161036e565b336001600160a01b038216036107895760405162461bcd60e51b815260206004820152602860248201527f4661726d6572732063616e6e6f7420696e7665737420696e207468656972206f604482015267776e2063726f707360c01b606482015260840161036e565b6005546040516354fcd1b760e11b8152600481018590526001600160a01b039091169063a9f9a36e90602401602060405180830381865afa1580156107d2573d6000803e3d6000fd5b505050506040513d601f19601f820116820180604052508101906107f69190611396565b6108425760405162461bcd60e51b815260206004820152601a60248201527f50726f64756374206c6f7420646f6573206e6f74206578697374000000000000604482015260640161036e565b6001805460408051610100810182528281523360208083019182528284018a8152606084018a815234608086019081524260a0870190815260c087018c81528851808a01909952600689526541435449564560d01b9589019590955260e08701978852888a018a5560009990995285517fb10e2d527612073b26eecdfd717e6a320cf44b4afac2b0732d9fcbe2b7fa0cf660088a0290810191825595517fb10e2d527612073b26eecdfd717e6a320cf44b4afac2b0732d9fcbe2b7fa0cf7870180546001600160a01b0319166001600160a01b0390921691909117905592517fb10e2d527612073b26eecdfd717e6a320cf44b4afac2b0732d9fcbe2b7fa0cf886015590517fb10e2d527612073b26eecdfd717e6a320cf44b4afac2b0732d9fcbe2b7fa0cf9850155517fb10e2d527612073b26eecdfd717e6a320cf44b4afac2b0732d9fcbe2b7fa0cfa84015595517fb10e2d527612073b26eecdfd717e6a320cf44b4afac2b0732d9fcbe2b7fa0cfb830155517fb10e2d527612073b26eecdfd717e6a320cf44b4afac2b0732d9fcbe2b7fa0cfc82015591519293909290917fb10e2d527612073b26eecdfd717e6a320cf44b4afac2b0732d9fcbe2b7fa0cfd0190610a1090826115aa565b50505060008581526002602090815260408083208054600180820183559185528385200185905533845260038352818420805491820181558452918320909101839055516001600160a01b0384169034908381818185875af1925050503d8060008114610a99576040519150601f19603f3d011682016040523d82523d6000602084013e610a9e565b606091505b5050905080610afa5760405162461bcd60e51b815260206004820152602260248201527f4661696c656420746f207472616e736665722066756e647320746f206661726d60448201526132b960f11b606482015260840161036e565b60408051868152346020820152428183015290518791339185917f988ee0ce356371bd02e26905d798551f68fb405c9440e599d1f7148045980832919081900360600190a4505050505050565b60026020528160005260406000208181548110610b6357600080fd5b90600052602060002001600091509150505481565b60008181526002602090815260409182902080548351818402810184019094528084526060939283018282801561050857602002820191906000526020600020908154815260200190600101908083116104f45750505050509050919050565b6001548210610c215760405162461bcd60e51b8152602060048201526015602482015274125b9d985b1a59081a5b9d995cdd1b595b9d081251605a1b604482015260640161036e565b600060018381548110610c3657610c36611331565b6000918252602082206002600890920201015460048054604051635686553b60e11b81529294506001600160a01b03169163ad0caa7691610c7d9186910190815260200190565b600060405180830381865afa158015610c9a573d6000803e3d6000fd5b505050506040513d6000823e601f3d908101601f19168201604052610cc29190810190611401565b61010001519050336001600160a01b0382161480610cea57506000546001600160a01b031633145b610d495760405162461bcd60e51b815260206004820152602a60248201527f4f6e6c7920746865206661726d6572206f72206f776e65722063616e207570646044820152696174652073746174757360b01b606482015260840161036e565b8260018581548110610d5d57610d5d611331565b90600052602060002090600802016007019081610d7a91906115aa565b50837f67a7dccddda0f01bd21939ce27532437f60d9ca7b32d6395f3d89fe50a572cc484604051610dab919061166a565b60405180910390a250505050565b60036020528160005260406000208181548110610b6357600080fd5b610ddd610f3a565b6001600160a01b038116610e425760405162461bcd60e51b815260206004820152602660248201527f4f776e61626c653a206e6577206f776e657220697320746865207a65726f206160448201526564647265737360d01b606482015260840161036e565b610e4b81610f94565b50565b60018181548110610e5e57600080fd5b6000918252602090912060089091020180546001820154600283015460038401546004850154600586015460068701546007880180549799506001600160a01b03909616979496939592949193909290610eb790611347565b80601f0160208091040260200160405190810160405280929190818152602001828054610ee390611347565b8015610f305780601f10610f0557610100808354040283529160200191610f30565b820191906000526020600020905b815481529060010190602001808311610f1357829003601f168201915b5050505050905088565b6000546001600160a01b031633146105265760405162461bcd60e51b815260206004820181905260248201527f4f776e61626c653a2063616c6c6572206973206e6f7420746865206f776e6572604482015260640161036e565b600080546001600160a01b038381166001600160a01b0319831681178455604051919092169283917f8be0079c531659141344cd1fd0a4f28419497f9722a3daafe3b4186f6b6457e09190a35050565b600060208284031215610ff657600080fd5b5035919050565b60005b83811015611018578181015183820152602001611000565b50506000910152565b60008151808452611039816020860160208601610ffd565b601f01601f19169290920160200192915050565b602081528151602082015260018060a01b0360208301511660408201526040820151606082015260608201516080820152608082015160a082015260a082015160c082015260c082015160e0820152600060e08301516101008081850152506110ba610120840182611021565b949350505050565b6001600160a01b0381168114610e4b57600080fd5b6000602082840312156110e957600080fd5b81356110f4816110c2565b9392505050565b6020808252825182820181905260009190848201906040850190845b8181101561113357835183529284019291840191600101611117565b50909695505050505050565b60008060006060848603121561115457600080fd5b505081359360208301359350604090920135919050565b6000806040838503121561117e57600080fd5b50508035926020909101359150565b634e487b7160e01b600052604160045260246000fd5b604051610160810167ffffffffffffffff811182821017156111c7576111c761118d565b60405290565b604051601f8201601f1916810167ffffffffffffffff811182821017156111f6576111f661118d565b604052919050565b600067ffffffffffffffff8211156112185761121861118d565b50601f01601f191660200190565b6000806040838503121561123957600080fd5b82359150602083013567ffffffffffffffff81111561125757600080fd5b8301601f8101851361126857600080fd5b803561127b611276826111fe565b6111cd565b81815286602083850101111561129057600080fd5b816020840160208301376000602083830101528093505050509250929050565b600080604083850312156112c357600080fd5b82356112ce816110c2565b946020939093013593505050565b60006101008a835260018060a01b038a1660208401528860408401528760608401528660808401528560a08401528460c08401528060e084015261132281840185611021565b9b9a5050505050505050505050565b634e487b7160e01b600052603260045260246000fd5b600181811c9082168061135b57607f821691505b60208210810361137b57634e487b7160e01b600052602260045260246000fd5b50919050565b8051801515811461139157600080fd5b919050565b6000602082840312156113a857600080fd5b6110f482611381565b600082601f8301126113c257600080fd5b81516113d0611276826111fe565b8181528460208386010111156113e557600080fd5b6110ba826020830160208701610ffd565b8051611391816110c2565b60006020828403121561141357600080fd5b815167ffffffffffffffff8082111561142b57600080fd5b90830190610160828603121561144057600080fd5b6114486111a3565b8251815260208301518281111561145e57600080fd5b61146a878286016113b1565b60208301525060408301518281111561148257600080fd5b61148e878286016113b1565b6040830152506060830151828111156114a657600080fd5b6114b2878286016113b1565b6060830152506080830151828111156114ca57600080fd5b6114d6878286016113b1565b60808301525060a0830151828111156114ee57600080fd5b6114fa878286016113b1565b60a08301525060c083015160c082015260e083015160e082015261010091506115248284016113f6565b828201526101209150611538828401611381565b82820152610140915061154c828401611381565b91810191909152949350505050565b601f8211156115a557600081815260208120601f850160051c810160208610156115825750805b601f850160051c820191505b818110156115a15782815560010161158e565b5050505b505050565b815167ffffffffffffffff8111156115c4576115c461118d565b6115d8816115d28454611347565b8461155b565b602080601f83116001811461160d57600084156115f55750858301515b600019600386901b1c1916600185901b1785556115a1565b600085815260208120601f198616915b8281101561163c5788860151825594840194600190910190840161161d565b508582101561165a5787850151600019600388901b60f8161c191681555b5050505050600190811b01905550565b6020815260006110f4602083018461102156fea2646970667358221220e48e4b80164a4974b9cf5d5fa9fb4be93d6928abacc3eb3f96fd1b1b48be1ba564736f6c63430008130033","opcodes":"PUSH1 0x80 PUSH1 0x40 MSTORE CALLVALUE DUP1 ISZERO PUSH3 0x11 JUMPI PUSH1 0x0 DUP1 REVERT JUMPDEST POP PUSH1 0x40 MLOAD PUSH3 0x17D9 CODESIZE SUB DUP1 PUSH3 0x17D9 DUP4 CODECOPY DUP2 ADD PUSH1 0x40 DUP2 SWAP1 MSTORE PUSH3 0x34 SWAP2 PUSH3 0xDE JUMP JUMPDEST PUSH3 0x3F CALLER PUSH3 0x71 JUMP JUMPDEST PUSH1 0x4 DUP1 SLOAD PUSH1 0x1 PUSH1 0x1 PUSH1 0xA0 SHL SUB SWAP4 DUP5 AND PUSH1 0x1 PUSH1 0x1 PUSH1 0xA0 SHL SUB NOT SWAP2 DUP3 AND OR SWAP1 SWAP2 SSTORE PUSH1 0x5 DUP1 SLOAD SWAP3 SWAP1 SWAP4 AND SWAP2 AND OR SWAP1 SSTORE PUSH3 0x116 JUMP JUMPDEST PUSH1 0x0 DUP1 SLOAD PUSH1 0x1 PUSH1 0x1 PUSH1 0xA0 SHL SUB DUP4 DUP2 AND PUSH1 0x1 PUSH1 0x1 PUSH1 0xA0 SHL SUB NOT DUP4 AND DUP2 OR DUP5 SSTORE PUSH1 0x40 MLOAD SWAP2 SWAP1 SWAP3 AND SWAP3 DUP4 SWAP2 PUSH32 0x8BE0079C531659141344CD1FD0A4F28419497F9722A3DAAFE3B4186F6B6457E0 SWAP2 SWAP1 LOG3 POP POP JUMP JUMPDEST DUP1 MLOAD PUSH1 0x1 PUSH1 0x1 PUSH1 0xA0 SHL SUB DUP2 AND DUP2 EQ PUSH3 0xD9 JUMPI PUSH1 0x0 DUP1 REVERT JUMPDEST SWAP2 SWAP1 POP JUMP JUMPDEST PUSH1 0x0 DUP1 PUSH1 0x40 DUP4 DUP6 SUB SLT ISZERO PUSH3 0xF2 JUMPI PUSH1 0x0 DUP1 REVERT JUMPDEST PUSH3 0xFD DUP4 PUSH3 0xC1 JUMP JUMPDEST SWAP2 POP PUSH3 0x10D PUSH1 0x20 DUP5 ADD PUSH3 0xC1 JUMP JUMPDEST SWAP1 POP SWAP3 POP SWAP3 SWAP1 POP JUMP JUMPDEST PUSH2 0x16B3 DUP1 PUSH3 0x126 PUSH1 0x0 CODECOPY PUSH1 0x0 RETURN INVALID PUSH1 0x80 PUSH1 0x40 MSTORE PUSH1 0x4 CALLDATASIZE LT PUSH2 0xDD JUMPI PUSH1 0x0 CALLDATALOAD PUSH1 0xE0 SHR DUP1 PUSH4 0x9F37353A GT PUSH2 0x7F JUMPI DUP1 PUSH4 0xEEF90B62 GT PUSH2 0x59 JUMPI DUP1 PUSH4 0xEEF90B62 EQ PUSH2 0x244 JUMPI DUP1 PUSH4 0xF2FDE38B EQ PUSH2 0x264 JUMPI DUP1 PUSH4 0xFD345C8A EQ PUSH2 0x284 JUMPI DUP1 PUSH4 0xFFF218C3 EQ PUSH2 0x2B8 JUMPI PUSH1 0x0 DUP1 REVERT JUMPDEST DUP1 PUSH4 0x9F37353A EQ PUSH2 0x1EF JUMPI DUP1 PUSH4 0xB8D84697 EQ PUSH2 0x20F JUMPI DUP1 PUSH4 0xCC42EDBD EQ PUSH2 0x224 JUMPI PUSH1 0x0 DUP1 REVERT JUMPDEST DUP1 PUSH4 0x715018A6 GT PUSH2 0xBB JUMPI DUP1 PUSH4 0x715018A6 EQ PUSH2 0x179 JUMPI DUP1 PUSH4 0x79ABA36D EQ PUSH2 0x190 JUMPI DUP1 PUSH4 0x8DA5CB5B EQ PUSH2 0x1A3 JUMPI DUP1 PUSH4 0x9827CDA8 EQ PUSH2 0x1C1 JUMPI PUSH1 0x0 DUP1 REVERT JUMPDEST DUP1 PUSH4 0xDA80980 EQ PUSH2 0xE2 JUMPI DUP1 PUSH4 0x22AE634F EQ PUSH2 0x11F JUMPI DUP1 PUSH4 0x4C431F00 EQ PUSH2 0x14C JUMPI JUMPDEST PUSH1 0x0 DUP1 REVERT JUMPDEST CALLVALUE DUP1 ISZERO PUSH2 0xEE JUMPI PUSH1 0x0 DUP1 REVERT JUMPDEST POP PUSH1 0x4 SLOAD PUSH2 0x102 SWAP1 PUSH1 0x1 PUSH1 0x1 PUSH1 0xA0 SHL SUB AND DUP2 JUMP JUMPDEST PUSH1 0x40 MLOAD PUSH1 0x1 PUSH1 0x1 PUSH1 0xA0 SHL SUB SWAP1 SWAP2 AND DUP2 MSTORE PUSH1 0x20 ADD JUMPDEST PUSH1 0x40 MLOAD DUP1 SWAP2 SUB SWAP1 RETURN JUMPDEST CALLVALUE DUP1 ISZERO PUSH2 0x12B JUMPI PUSH1 0x0 DUP1 REVERT JUMPDEST POP PUSH2 0x13F PUSH2 0x13A CALLDATASIZE PUSH1 0x4 PUSH2 0xFE4 JUMP JUMPDEST PUSH2 0x2D8 JUMP JUMPDEST PUSH1 0x40 MLOAD PUSH2 0x116 SWAP2 SWAP1 PUSH2 0x104D JUMP JUMPDEST CALLVALUE DUP1 ISZERO PUSH2 0x158 JUMPI PUSH1 0x0 DUP1 REVERT JUMPDEST POP PUSH2 0x16C PUSH2 0x167 CALLDATASIZE PUSH1 0x4 PUSH2 0x10D7 JUMP JUMPDEST PUSH2 0x4A8 JUMP JUMPDEST PUSH1 0x40 MLOAD PUSH2 0x116 SWAP2 SWAP1 PUSH2 0x10FB JUMP JUMPDEST CALLVALUE DUP1 ISZERO PUSH2 0x185 JUMPI PUSH1 0x0 DUP1 REVERT JUMPDEST POP PUSH2 0x18E PUSH2 0x514 JUMP JUMPDEST STOP JUMPDEST PUSH2 0x18E PUSH2 0x19E CALLDATASIZE PUSH1 0x4 PUSH2 0x113F JUMP JUMPDEST PUSH2 0x528 JUMP JUMPDEST CALLVALUE DUP1 ISZERO PUSH2 0x1AF JUMPI PUSH1 0x0 DUP1 REVERT JUMPDEST POP PUSH1 0x0 SLOAD PUSH1 0x1 PUSH1 0x1 PUSH1 0xA0 SHL SUB AND PUSH2 0x102 JUMP JUMPDEST CALLVALUE DUP1 ISZERO PUSH2 0x1CD JUMPI PUSH1 0x0 DUP1 REVERT JUMPDEST POP PUSH2 0x1E1 PUSH2 0x1DC CALLDATASIZE PUSH1 0x4 PUSH2 0x116B JUMP JUMPDEST PUSH2 0xB47 JUMP JUMPDEST PUSH1 0x40 MLOAD SWAP1 DUP2 MSTORE PUSH1 0x20 ADD PUSH2 0x116 JUMP JUMPDEST CALLVALUE DUP1 ISZERO PUSH2 0x1FB JUMPI PUSH1 0x0 DUP1 REVERT JUMPDEST POP PUSH2 0x16C PUSH2 0x20A CALLDATASIZE PUSH1 0x4 PUSH2 0xFE4 JUMP JUMPDEST PUSH2 0xB78 JUMP JUMPDEST CALLVALUE DUP1 ISZERO PUSH2 0x21B JUMPI PUSH1 0x0 DUP1 REVERT JUMPDEST POP PUSH1 0x1 SLOAD PUSH2 0x1E1 JUMP JUMPDEST CALLVALUE DUP1 ISZERO PUSH2 0x230 JUMPI PUSH1 0x0 DUP1 REVERT JUMPDEST POP PUSH2 0x18E PUSH2 0x23F CALLDATASIZE PUSH1 0x4 PUSH2 0x1226 JUMP JUMPDEST PUSH2 0xBD8 JUMP JUMPDEST CALLVALUE DUP1 ISZERO PUSH2 0x250 JUMPI PUSH1 0x0 DUP1 REVERT JUMPDEST POP PUSH2 0x1E1 PUSH2 0x25F CALLDATASIZE PUSH1 0x4 PUSH2 0x12B0 JUMP JUMPDEST PUSH2 0xDB9 JUMP JUMPDEST CALLVALUE DUP1 ISZERO PUSH2 0x270 JUMPI PUSH1 0x0 DUP1 REVERT JUMPDEST POP PUSH2 0x18E PUSH2 0x27F CALLDATASIZE PUSH1 0x4 PUSH2 0x10D7 JUMP JUMPDEST PUSH2 0xDD5 JUMP JUMPDEST CALLVALUE DUP1 ISZERO PUSH2 0x290 JUMPI PUSH1 0x0 DUP1 REVERT JUMPDEST POP PUSH2 0x2A4 PUSH2 0x29F CALLDATASIZE PUSH1 0x4 PUSH2 0xFE4 JUMP JUMPDEST PUSH2 0xE4E JUMP JUMPDEST PUSH1 0x40 MLOAD PUSH2 0x116 SWAP9 SWAP8 SWAP7 SWAP6 SWAP5 SWAP4 SWAP3 SWAP2 SWAP1 PUSH2 0x12DC JUMP JUMPDEST CALLVALUE DUP1 ISZERO PUSH2 0x2C4 JUMPI PUSH1 0x0 DUP1 REVERT JUMPDEST POP PUSH1 0x5 SLOAD PUSH2 0x102 SWAP1 PUSH1 0x1 PUSH1 0x1 PUSH1 0xA0 SHL SUB AND DUP2 JUMP JUMPDEST PUSH2 0x329 PUSH1 0x40 MLOAD DUP1 PUSH2 0x100 ADD PUSH1 0x40 MSTORE DUP1 PUSH1 0x0 DUP2 MSTORE PUSH1 0x20 ADD PUSH1 0x0 PUSH1 0x1 PUSH1 0x1 PUSH1 0xA0 SHL SUB AND DUP2 MSTORE PUSH1 0x20 ADD PUSH1 0x0 DUP2 MSTORE PUSH1 0x20 ADD PUSH1 0x0 DUP2 MSTORE PUSH1 0x20 ADD PUSH1 0x0 DUP2 MSTORE PUSH1 0x20 ADD PUSH1 0x0 DUP2 MSTORE PUSH1 0x20 ADD PUSH1 0x0 DUP2 MSTORE PUSH1 0x20 ADD PUSH1 0x60 DUP2 MSTORE POP SWAP1 JUMP JUMPDEST PUSH1 0x1 SLOAD DUP3 LT PUSH2 0x377 JUMPI PUSH1 0x40 MLOAD PUSH3 0x461BCD PUSH1 0xE5 SHL DUP2 MSTORE PUSH1 0x20 PUSH1 0x4 DUP3 ADD MSTORE PUSH1 0x15 PUSH1 0x24 DUP3 ADD MSTORE PUSH21 0x125B9D985B1A59081A5B9D995CDD1B595B9D081251 PUSH1 0x5A SHL PUSH1 0x44 DUP3 ADD MSTORE PUSH1 0x64 ADD JUMPDEST PUSH1 0x40 MLOAD DUP1 SWAP2 SUB SWAP1 REVERT JUMPDEST PUSH1 0x1 DUP3 DUP2 SLOAD DUP2 LT PUSH2 0x38A JUMPI PUSH2 0x38A PUSH2 0x1331 JUMP JUMPDEST SWAP1 PUSH1 0x0 MSTORE PUSH1 0x20 PUSH1 0x0 KECCAK256 SWAP1 PUSH1 0x8 MUL ADD PUSH1 0x40 MLOAD DUP1 PUSH2 0x100 ADD PUSH1 0x40 MSTORE SWAP1 DUP2 PUSH1 0x0 DUP3 ADD SLOAD DUP2 MSTORE PUSH1 0x20 ADD PUSH1 0x1 DUP3 ADD PUSH1 0x0 SWAP1 SLOAD SWAP1 PUSH2 0x100 EXP SWAP1 DIV PUSH1 0x1 PUSH1 0x1 PUSH1 0xA0 SHL SUB AND PUSH1 0x1 PUSH1 0x1 PUSH1 0xA0 SHL SUB AND PUSH1 0x1 PUSH1 0x1 PUSH1 0xA0 SHL SUB AND DUP2 MSTORE PUSH1 0x20 ADD PUSH1 0x2 DUP3 ADD SLOAD DUP2 MSTORE PUSH1 0x20 ADD PUSH1 0x3 DUP3 ADD SLOAD DUP2 MSTORE PUSH1 0x20 ADD PUSH1 0x4 DUP3 ADD SLOAD DUP2 MSTORE PUSH1 0x20 ADD PUSH1 0x5 DUP3 ADD SLOAD DUP2 MSTORE PUSH1 0x20 ADD PUSH1 0x6 DUP3 ADD SLOAD DUP2 MSTORE PUSH1 0x20 ADD PUSH1 0x7 DUP3 ADD DUP1 SLOAD PUSH2 0x41F SWAP1 PUSH2 0x1347 JUMP JUMPDEST DUP1 PUSH1 0x1F ADD PUSH1 0x20 DUP1 SWAP2 DIV MUL PUSH1 0x20 ADD PUSH1 0x40 MLOAD SWAP1 DUP2 ADD PUSH1 0x40 MSTORE DUP1 SWAP3 SWAP2 SWAP1 DUP2 DUP2 MSTORE PUSH1 0x20 ADD DUP3 DUP1 SLOAD PUSH2 0x44B SWAP1 PUSH2 0x1347 JUMP JUMPDEST DUP1 ISZERO PUSH2 0x498 JUMPI DUP1 PUSH1 0x1F LT PUSH2 0x46D JUMPI PUSH2 0x100 DUP1 DUP4 SLOAD DIV MUL DUP4 MSTORE SWAP2 PUSH1 0x20 ADD SWAP2 PUSH2 0x498 JUMP JUMPDEST DUP3 ADD SWAP2 SWAP1 PUSH1 0x0 MSTORE PUSH1 0x20 PUSH1 0x0 KECCAK256 SWAP1 JUMPDEST DUP2 SLOAD DUP2 MSTORE SWAP1 PUSH1 0x1 ADD SWAP1 PUSH1 0x20 ADD DUP1 DUP4 GT PUSH2 0x47B JUMPI DUP3 SWAP1 SUB PUSH1 0x1F AND DUP3 ADD SWAP2 JUMPDEST POP POP POP POP POP DUP2 MSTORE POP POP SWAP1 POP SWAP2 SWAP1 POP JUMP JUMPDEST PUSH1 0x1 PUSH1 0x1 PUSH1 0xA0 SHL SUB DUP2 AND PUSH1 0x0 SWAP1 DUP2 MSTORE PUSH1 0x3 PUSH1 0x20 SWAP1 DUP2 MSTORE PUSH1 0x40 SWAP2 DUP3 SWAP1 KECCAK256 DUP1 SLOAD DUP4 MLOAD DUP2 DUP5 MUL DUP2 ADD DUP5 ADD SWAP1 SWAP5 MSTORE DUP1 DUP5 MSTORE PUSH1 0x60 SWAP4 SWAP3 DUP4 ADD DUP3 DUP3 DUP1 ISZERO PUSH2 0x508 JUMPI PUSH1 0x20 MUL DUP3 ADD SWAP2 SWAP1 PUSH1 0x0 MSTORE PUSH1 0x20 PUSH1 0x0 KECCAK256 SWAP1 JUMPDEST DUP2 SLOAD DUP2 MSTORE PUSH1 0x20 ADD SWAP1 PUSH1 0x1 ADD SWAP1 DUP1 DUP4 GT PUSH2 0x4F4 JUMPI JUMPDEST POP POP POP POP POP SWAP1 POP SWAP2 SWAP1 POP JUMP JUMPDEST PUSH2 0x51C PUSH2 0xF3A JUMP JUMPDEST PUSH2 0x526 PUSH1 0x0 PUSH2 0xF94 JUMP JUMPDEST JUMP JUMPDEST PUSH1 0x0 CALLVALUE GT PUSH2 0x58C JUMPI PUSH1 0x40 MLOAD PUSH3 0x461BCD PUSH1 0xE5 SHL DUP2 MSTORE PUSH1 0x20 PUSH1 0x4 DUP3 ADD MSTORE PUSH1 0x2B PUSH1 0x24 DUP3 ADD MSTORE PUSH32 0x496E766573746D656E7420616D6F756E74206D75737420626520677265617465 PUSH1 0x44 DUP3 ADD MSTORE PUSH11 0x72207468616E207A65726F PUSH1 0xA8 SHL PUSH1 0x64 DUP3 ADD MSTORE PUSH1 0x84 ADD PUSH2 0x36E JUMP JUMPDEST PUSH1 0x4 DUP1 SLOAD PUSH1 0x40 MLOAD PUSH4 0xB6821B77 PUSH1 0xE0 SHL DUP2 MSTORE SWAP2 DUP3 ADD DUP6 SWAP1 MSTORE PUSH1 0x1 PUSH1 0x1 PUSH1 0xA0 SHL SUB AND SWAP1 PUSH4 0xB6821B77 SWAP1 PUSH1 0x24 ADD PUSH1 0x20 PUSH1 0x40 MLOAD DUP1 DUP4 SUB DUP2 DUP7 GAS STATICCALL ISZERO DUP1 ISZERO PUSH2 0x5D3 JUMPI RETURNDATASIZE PUSH1 0x0 DUP1 RETURNDATACOPY RETURNDATASIZE PUSH1 0x0 REVERT JUMPDEST POP POP POP POP PUSH1 0x40 MLOAD RETURNDATASIZE PUSH1 0x1F NOT PUSH1 0x1F DUP3 ADD AND DUP3 ADD DUP1 PUSH1 0x40 MSTORE POP DUP2 ADD SWAP1 PUSH2 0x5F7 SWAP2 SWAP1 PUSH2 0x1396 JUMP JUMPDEST PUSH2 0x64F JUMPI PUSH1 0x40 MLOAD PUSH3 0x461BCD PUSH1 0xE5 SHL DUP2 MSTORE PUSH1 0x20 PUSH1 0x4 DUP3 ADD MSTORE PUSH1 0x24 DUP1 DUP3 ADD MSTORE PUSH32 0x4661726D6572206D75737420626520617070726F76656420627920617574686F PUSH1 0x44 DUP3 ADD MSTORE PUSH4 0x72697479 PUSH1 0xE0 SHL PUSH1 0x64 DUP3 ADD MSTORE PUSH1 0x84 ADD PUSH2 0x36E JUMP JUMPDEST PUSH1 0x4 DUP1 SLOAD PUSH1 0x40 MLOAD PUSH4 0x5686553B PUSH1 0xE1 SHL DUP2 MSTORE SWAP2 DUP3 ADD DUP6 SWAP1 MSTORE PUSH1 0x0 SWAP2 PUSH1 0x1 PUSH1 0x1 PUSH1 0xA0 SHL SUB SWAP1 SWAP2 AND SWAP1 PUSH4 0xAD0CAA76 SWAP1 PUSH1 0x24 ADD PUSH1 0x0 PUSH1 0x40 MLOAD DUP1 DUP4 SUB DUP2 DUP7 GAS STATICCALL ISZERO DUP1 ISZERO PUSH2 0x69B JUMPI RETURNDATASIZE PUSH1 0x0 DUP1 RETURNDATACOPY RETURNDATASIZE PUSH1 0x0 REVERT JUMPDEST POP POP POP POP PUSH1 0x40 MLOAD RETURNDATASIZE PUSH1 0x0 DUP3 RETURNDATACOPY PUSH1 0x1F RETURNDATASIZE SWAP1 DUP2 ADD PUSH1 0x1F NOT AND DUP3 ADD PUSH1 0x40 MSTORE PUSH2 0x6C3 SWAP2 SWAP1 DUP2 ADD SWAP1 PUSH2 0x1401 JUMP JUMPDEST PUSH2 0x100 ADD MLOAD SWAP1 POP PUSH1 0x1 PUSH1 0x1 PUSH1 0xA0 SHL SUB DUP2 AND PUSH2 0x720 JUMPI PUSH1 0x40 MLOAD PUSH3 0x461BCD PUSH1 0xE5 SHL DUP2 MSTORE PUSH1 0x20 PUSH1 0x4 DUP3 ADD MSTORE PUSH1 0x1F PUSH1 0x24 DUP3 ADD MSTORE PUSH32 0x4661726D65722077616C6C65742061646472657373206E6F7420666F756E6400 PUSH1 0x44 DUP3 ADD MSTORE PUSH1 0x64 ADD PUSH2 0x36E JUMP JUMPDEST CALLER PUSH1 0x1 PUSH1 0x1 PUSH1 0xA0 SHL SUB DUP3 AND SUB PUSH2 0x789 JUMPI PUSH1 0x40 MLOAD PUSH3 0x461BCD PUSH1 0xE5 SHL DUP2 MSTORE PUSH1 0x20 PUSH1 0x4 DUP3 ADD MSTORE PUSH1 0x28 PUSH1 0x24 DUP3 ADD MSTORE PUSH32 0x4661726D6572732063616E6E6F7420696E7665737420696E207468656972206F PUSH1 0x44 DUP3 ADD MSTORE PUSH8 0x776E2063726F7073 PUSH1 0xC0 SHL PUSH1 0x64 DUP3 ADD MSTORE PUSH1 0x84 ADD PUSH2 0x36E JUMP JUMPDEST PUSH1 0x5 SLOAD PUSH1 0x40 MLOAD PUSH4 0x54FCD1B7 PUSH1 0xE1 SHL DUP2 MSTORE PUSH1 0x4 DUP2 ADD DUP6 SWAP1 MSTORE PUSH1 0x1 PUSH1 0x1 PUSH1 0xA0 SHL SUB SWAP1 SWAP2 AND SWAP1 PUSH4 0xA9F9A36E SWAP1 PUSH1 0x24 ADD PUSH1 0x20 PUSH1 0x40 MLOAD DUP1 DUP4 SUB DUP2 DUP7 GAS STATICCALL ISZERO DUP1 ISZERO PUSH2 0x7D2 JUMPI RETURNDATASIZE PUSH1 0x0 DUP1 RETURNDATACOPY RETURNDATASIZE PUSH1 0x0 REVERT JUMPDEST POP POP POP POP PUSH1 0x40 MLOAD RETURNDATASIZE PUSH1 0x1F NOT PUSH1 0x1F DUP3 ADD AND DUP3 ADD DUP1 PUSH1 0x40 MSTORE POP DUP2 ADD SWAP1 PUSH2 0x7F6 SWAP2 SWAP1 PUSH2 0x1396 JUMP JUMPDEST PUSH2 0x842 JUMPI PUSH1 0x40 MLOAD PUSH3 0x461BCD PUSH1 0xE5 SHL DUP2 MSTORE PUSH1 0x20 PUSH1 0x4 DUP3 ADD MSTORE PUSH1 0x1A PUSH1 0x24 DUP3 ADD MSTORE PUSH32 0x50726F64756374206C6F7420646F6573206E6F74206578697374000000000000 PUSH1 0x44 DUP3 ADD MSTORE PUSH1 0x64 ADD PUSH2 0x36E JUMP JUMPDEST PUSH1 0x1 DUP1 SLOAD PUSH1 0x40 DUP1 MLOAD PUSH2 0x100 DUP2 ADD DUP3 MSTORE DUP3 DUP2 MSTORE CALLER PUSH1 0x20 DUP1 DUP4 ADD SWAP2 DUP3 MSTORE DUP3 DUP5 ADD DUP11 DUP2 MSTORE PUSH1 0x60 DUP5 ADD DUP11 DUP2 MSTORE CALLVALUE PUSH1 0x80 DUP7 ADD SWAP1 DUP2 MSTORE TIMESTAMP PUSH1 0xA0 DUP8 ADD SWAP1 DUP2 MSTORE PUSH1 0xC0 DUP8 ADD DUP13 DUP2 MSTORE DUP9 MLOAD DUP1 DUP11 ADD SWAP1 SWAP10 MSTORE PUSH1 0x6 DUP10 MSTORE PUSH6 0x414354495645 PUSH1 0xD0 SHL SWAP6 DUP10 ADD SWAP6 SWAP1 SWAP6 MSTORE PUSH1 0xE0 DUP8 ADD SWAP8 DUP9 MSTORE DUP9 DUP11 ADD DUP11 SSTORE PUSH1 0x0 SWAP10 SWAP1 SWAP10 MSTORE DUP6 MLOAD PUSH32 0xB10E2D527612073B26EECDFD717E6A320CF44B4AFAC2B0732D9FCBE2B7FA0CF6 PUSH1 0x8 DUP11 MUL SWAP1 DUP2 ADD SWAP2 DUP3 SSTORE SWAP6 MLOAD PUSH32 0xB10E2D527612073B26EECDFD717E6A320CF44B4AFAC2B0732D9FCBE2B7FA0CF7 DUP8 ADD DUP1 SLOAD PUSH1 0x1 PUSH1 0x1 PUSH1 0xA0 SHL SUB NOT AND PUSH1 0x1 PUSH1 0x1 PUSH1 0xA0 SHL SUB SWAP1 SWAP3 AND SWAP2 SWAP1 SWAP2 OR SWAP1 SSTORE SWAP3 MLOAD PUSH32 0xB10E2D527612073B26EECDFD717E6A320CF44B4AFAC2B0732D9FCBE2B7FA0CF8 DUP7 ADD SSTORE SWAP1 MLOAD PUSH32 0xB10E2D527612073B26EECDFD717E6A320CF44B4AFAC2B0732D9FCBE2B7FA0CF9 DUP6 ADD SSTORE MLOAD PUSH32 0xB10E2D527612073B26EECDFD717E6A320CF44B4AFAC2B0732D9FCBE2B7FA0CFA DUP5 ADD SSTORE SWAP6 MLOAD PUSH32 0xB10E2D527612073B26EECDFD717E6A320CF44B4AFAC2B0732D9FCBE2B7FA0CFB DUP4 ADD SSTORE MLOAD PUSH32 0xB10E2D527612073B26EECDFD717E6A320CF44B4AFAC2B0732D9FCBE2B7FA0CFC DUP3 ADD SSTORE SWAP2 MLOAD SWAP3 SWAP4 SWAP1 SWAP3 SWAP1 SWAP2 PUSH32 0xB10E2D527612073B26EECDFD717E6A320CF44B4AFAC2B0732D9FCBE2B7FA0CFD ADD SWAP1 PUSH2 0xA10 SWAP1 DUP3 PUSH2 0x15AA JUMP JUMPDEST POP POP POP PUSH1 0x0 DUP6 DUP2 MSTORE PUSH1 0x2 PUSH1 0x20 SWAP1 DUP2 MSTORE PUSH1 0x40 DUP1 DUP4 KECCAK256 DUP1 SLOAD PUSH1 0x1 DUP1 DUP3 ADD DUP4 SSTORE SWAP2 DUP6 MSTORE DUP4 DUP6 KECCAK256 ADD DUP6 SWAP1 SSTORE CALLER DUP5 MSTORE PUSH1 0x3 DUP4 MSTORE DUP2 DUP5 KECCAK256 DUP1 SLOAD SWAP2 DUP3 ADD DUP2 SSTORE DUP5 MSTORE SWAP2 DUP4 KECCAK256 SWAP1 SWAP2 ADD DUP4 SWAP1 SSTORE MLOAD PUSH1 0x1 PUSH1 0x1 PUSH1 0xA0 SHL SUB DUP5 AND SWAP1 CALLVALUE SWAP1 DUP4 DUP2 DUP2 DUP2 DUP6 DUP8 GAS CALL SWAP3 POP POP POP RETURNDATASIZE DUP1 PUSH1 0x0 DUP2 EQ PUSH2 0xA99 JUMPI PUSH1 0x40 MLOAD SWAP2 POP PUSH1 0x1F NOT PUSH1 0x3F RETURNDATASIZE ADD AND DUP3 ADD PUSH1 0x40 MSTORE RETURNDATASIZE DUP3 MSTORE RETURNDATASIZE PUSH1 0x0 PUSH1 0x20 DUP5 ADD RETURNDATACOPY PUSH2 0xA9E JUMP JUMPDEST PUSH1 0x60 SWAP2 POP JUMPDEST POP POP SWAP1 POP DUP1 PUSH2 0xAFA JUMPI PUSH1 0x40 MLOAD PUSH3 0x461BCD PUSH1 0xE5 SHL DUP2 MSTORE PUSH1 0x20 PUSH1 0x4 DUP3 ADD MSTORE PUSH1 0x22 PUSH1 0x24 DUP3 ADD MSTORE PUSH32 0x4661696C656420746F207472616E736665722066756E647320746F206661726D PUSH1 0x44 DUP3 ADD MSTORE PUSH2 0x32B9 PUSH1 0xF1 SHL PUSH1 0x64 DUP3 ADD MSTORE PUSH1 0x84 ADD PUSH2 0x36E JUMP JUMPDEST PUSH1 0x40 DUP1 MLOAD DUP7 DUP2 MSTORE CALLVALUE PUSH1 0x20 DUP3 ADD MSTORE TIMESTAMP DUP2 DUP4 ADD MSTORE SWAP1 MLOAD DUP8 SWAP2 CALLER SWAP2 DUP6 SWAP2 PUSH32 0x988EE0CE356371BD02E26905D798551F68FB405C9440E599D1F7148045980832 SWAP2 SWAP1 DUP2 SWAP1 SUB PUSH1 0x60 ADD SWAP1 LOG4 POP POP POP POP POP POP JUMP JUMPDEST PUSH1 0x2 PUSH1 0x20 MSTORE DUP2 PUSH1 0x0 MSTORE PUSH1 0x40 PUSH1 0x0 KECCAK256 DUP2 DUP2 SLOAD DUP2 LT PUSH2 0xB63 JUMPI PUSH1 0x0 DUP1 REVERT JUMPDEST SWAP1 PUSH1 0x0 MSTORE PUSH1 0x20 PUSH1 0x0 KECCAK256 ADD PUSH1 0x0 SWAP2 POP SWAP2 POP POP SLOAD DUP2 JUMP JUMPDEST PUSH1 0x0 DUP2 DUP2 MSTORE PUSH1 0x2 PUSH1 0x20 SWAP1 DUP2 MSTORE PUSH1 0x40 SWAP2 DUP3 SWAP1 KECCAK256 DUP1 SLOAD DUP4 MLOAD DUP2 DUP5 MUL DUP2 ADD DUP5 ADD SWAP1 SWAP5 MSTORE DUP1 DUP5 MSTORE PUSH1 0x60 SWAP4 SWAP3 DUP4 ADD DUP3 DUP3 DUP1 ISZERO PUSH2 0x508 JUMPI PUSH1 0x20 MUL DUP3 ADD SWAP2 SWAP1 PUSH1 0x0 MSTORE PUSH1 0x20 PUSH1 0x0 KECCAK256 SWAP1 DUP2 SLOAD DUP2 MSTORE PUSH1 0x20 ADD SWAP1 PUSH1 0x1 ADD SWAP1 DUP1 DUP4 GT PUSH2 0x4F4 JUMPI POP POP POP POP POP SWAP1 POP SWAP2 SWAP1 POP JUMP JUMPDEST PUSH1 0x1 SLOAD DUP3 LT PUSH2 0xC21 JUMPI PUSH1 0x40 MLOAD PUSH3 0x461BCD PUSH1 0xE5 SHL DUP2 MSTORE PUSH1 0x20 PUSH1 0x4 DUP3 ADD MSTORE PUSH1 0x15 PUSH1 0x24 DUP3 ADD MSTORE PUSH21 0x125B9D985B1A59081A5B9D995CDD1B595B9D081251 PUSH1 0x5A SHL PUSH1 0x44 DUP3 ADD MSTORE PUSH1 0x64 ADD PUSH2 0x36E JUMP JUMPDEST PUSH1 0x0 PUSH1 0x1 DUP4 DUP2 SLOAD DUP2 LT PUSH2 0xC36 JUMPI PUSH2 0xC36 PUSH2 0x1331 JUMP JUMPDEST PUSH1 0x0 SWAP2 DUP3 MSTORE PUSH1 0x20 DUP3 KECCAK256 PUSH1 0x2 PUSH1 0x8 SWAP1 SWAP3 MUL ADD ADD SLOAD PUSH1 0x4 DUP1 SLOAD PUSH1 0x40 MLOAD PUSH4 0x5686553B PUSH1 0xE1 SHL DUP2 MSTORE SWAP3 SWAP5 POP PUSH1 0x1 PUSH1 0x1 PUSH1 0xA0 SHL SUB AND SWAP2 PUSH4 0xAD0CAA76 SWAP2 PUSH2 0xC7D SWAP2 DUP7 SWAP2 ADD SWAP1 DUP2 MSTORE PUSH1 0x20 ADD SWAP1 JUMP JUMPDEST PUSH1 0x0 PUSH1 0x40 MLOAD DUP1 DUP4 SUB DUP2 DUP7 GAS STATICCALL ISZERO DUP1 ISZERO PUSH2 0xC9A JUMPI RETURNDATASIZE PUSH1 0x0 DUP1 RETURNDATACOPY RETURNDATASIZE PUSH1 0x0 REVERT JUMPDEST POP POP POP POP PUSH1 0x40 MLOAD RETURNDATASIZE PUSH1 0x0 DUP3 RETURNDATACOPY PUSH1 0x1F RETURNDATASIZE SWAP1 DUP2 ADD PUSH1 0x1F NOT AND DUP3 ADD PUSH1 0x40 MSTORE PUSH2 0xCC2 SWAP2 SWAP1 DUP2 ADD SWAP1 PUSH2 0x1401 JUMP JUMPDEST PUSH2 0x100 ADD MLOAD SWAP1 POP CALLER PUSH1 0x1 PUSH1 0x1 PUSH1 0xA0 SHL SUB DUP3 AND EQ DUP1 PUSH2 0xCEA JUMPI POP PUSH1 0x0 SLOAD PUSH1 0x1 PUSH1 0x1 PUSH1 0xA0 SHL SUB AND CALLER EQ JUMPDEST PUSH2 0xD49 JUMPI PUSH1 0x40 MLOAD PUSH3 0x461BCD PUSH1 0xE5 SHL DUP2 MSTORE PUSH1 0x20 PUSH1 0x4 DUP3 ADD MSTORE PUSH1 0x2A PUSH1 0x24 DUP3 ADD MSTORE PUSH32 0x4F6E6C7920746865206661726D6572206F72206F776E65722063616E20757064 PUSH1 0x44 DUP3 ADD MSTORE PUSH10 0x61746520737461747573 PUSH1 0xB0 SHL PUSH1 0x64 DUP3 ADD MSTORE PUSH1 0x84 ADD PUSH2 0x36E JUMP JUMPDEST DUP3 PUSH1 0x1 DUP6 DUP2 SLOAD DUP2 LT PUSH2 0xD5D JUMPI PUSH2 0xD5D PUSH2 0x1331 JUMP JUMPDEST SWAP1 PUSH1 0x0 MSTORE PUSH1 0x20 PUSH1 0x0 KECCAK256 SWAP1 PUSH1 0x8 MUL ADD PUSH1 0x7 ADD SWAP1 DUP2 PUSH2 0xD7A SWAP2 SWAP1 PUSH2 0x15AA JUMP JUMPDEST POP DUP4 PUSH32 0x67A7DCCDDDA0F01BD21939CE27532437F60D9CA7B32D6395F3D89FE50A572CC4 DUP5 PUSH1 0x40 MLOAD PUSH2 0xDAB SWAP2 SWAP1 PUSH2 0x166A JUMP JUMPDEST PUSH1 0x40 MLOAD DUP1 SWAP2 SUB SWAP1 LOG2 POP POP POP POP JUMP JUMPDEST PUSH1 0x3 PUSH1 0x20 MSTORE DUP2 PUSH1 0x0 MSTORE PUSH1 0x40 PUSH1 0x0 KECCAK256 DUP2 DUP2 SLOAD DUP2 LT PUSH2 0xB63 JUMPI PUSH1 0x0 DUP1 REVERT JUMPDEST PUSH2 0xDDD PUSH2 0xF3A JUMP JUMPDEST PUSH1 0x1 PUSH1 0x1 PUSH1 0xA0 SHL SUB DUP2 AND PUSH2 0xE42 JUMPI PUSH1 0x40 MLOAD PUSH3 0x461BCD PUSH1 0xE5 SHL DUP2 MSTORE PUSH1 0x20 PUSH1 0x4 DUP3 ADD MSTORE PUSH1 0x26 PUSH1 0x24 DUP3 ADD MSTORE PUSH32 0x4F776E61626C653A206E6577206F776E657220697320746865207A65726F2061 PUSH1 0x44 DUP3 ADD MSTORE PUSH6 0x646472657373 PUSH1 0xD0 SHL PUSH1 0x64 DUP3 ADD MSTORE PUSH1 0x84 ADD PUSH2 0x36E JUMP JUMPDEST PUSH2 0xE4B DUP2 PUSH2 0xF94 JUMP JUMPDEST POP JUMP JUMPDEST PUSH1 0x1 DUP2 DUP2 SLOAD DUP2 LT PUSH2 0xE5E JUMPI PUSH1 0x0 DUP1 REVERT JUMPDEST PUSH1 0x0 SWAP2 DUP3 MSTORE PUSH1 0x20 SWAP1 SWAP2 KECCAK256 PUSH1 0x8 SWAP1 SWAP2 MUL ADD DUP1 SLOAD PUSH1 0x1 DUP3 ADD SLOAD PUSH1 0x2 DUP4 ADD SLOAD PUSH1 0x3 DUP5 ADD SLOAD PUSH1 0x4 DUP6 ADD SLOAD PUSH1 0x5 DUP7 ADD SLOAD PUSH1 0x6 DUP8 ADD SLOAD PUSH1 0x7 DUP9 ADD DUP1 SLOAD SWAP8 SWAP10 POP PUSH1 0x1 PUSH1 0x1 PUSH1 0xA0 SHL SUB SWAP1 SWAP7 AND SWAP8 SWAP5 SWAP7 SWAP4 SWAP6 SWAP3 SWAP5 SWAP2 SWAP4 SWAP1 SWAP3 SWAP1 PUSH2 0xEB7 SWAP1 PUSH2 0x1347 JUMP JUMPDEST DUP1 PUSH1 0x1F ADD PUSH1 0x20 DUP1 SWAP2 DIV MUL PUSH1 0x20 ADD PUSH1 0x40 MLOAD SWAP1 DUP2 ADD PUSH1 0x40 MSTORE DUP1 SWAP3 SWAP2 SWAP1 DUP2 DUP2 MSTORE PUSH1 0x20 ADD DUP3 DUP1 SLOAD PUSH2 0xEE3 SWAP1 PUSH2 0x1347 JUMP JUMPDEST DUP1 ISZERO PUSH2 0xF30 JUMPI DUP1 PUSH1 0x1F LT PUSH2 0xF05 JUMPI PUSH2 0x100 DUP1 DUP4 SLOAD DIV MUL DUP4 MSTORE SWAP2 PUSH1 0x20 ADD SWAP2 PUSH2 0xF30 JUMP JUMPDEST DUP3 ADD SWAP2 SWAP1 PUSH1 0x0 MSTORE PUSH1 0x20 PUSH1 0x0 KECCAK256 SWAP1 JUMPDEST DUP2 SLOAD DUP2 MSTORE SWAP1 PUSH1 0x1 ADD SWAP1 PUSH1 0x20 ADD DUP1 DUP4 GT PUSH2 0xF13 JUMPI DUP3 SWAP1 SUB PUSH1 0x1F AND DUP3 ADD SWAP2 JUMPDEST POP POP POP POP POP SWAP1 POP DUP9 JUMP JUMPDEST PUSH1 0x0 SLOAD PUSH1 0x1 PUSH1 0x1 PUSH1 0xA0 SHL SUB AND CALLER EQ PUSH2 0x526 JUMPI PUSH1 0x40 MLOAD PUSH3 0x461BCD PUSH1 0xE5 SHL DUP2 MSTORE PUSH1 0x20 PUSH1 0x4 DUP3 ADD DUP2 SWAP1 MSTORE PUSH1 0x24 DUP3 ADD MSTORE PUSH32 0x4F776E61626C653A2063616C6C6572206973206E6F7420746865206F776E6572 PUSH1 0x44 DUP3 ADD MSTORE PUSH1 0x64 ADD PUSH2 0x36E JUMP JUMPDEST PUSH1 0x0 DUP1 SLOAD PUSH1 0x1 PUSH1 0x1 PUSH1 0xA0 SHL SUB DUP4 DUP2 AND PUSH1 0x1 PUSH1 0x1 PUSH1 0xA0 SHL SUB NOT DUP4 AND DUP2 OR DUP5 SSTORE PUSH1 0x40 MLOAD SWAP2 SWAP1 SWAP3 AND SWAP3 DUP4 SWAP2 PUSH32 0x8BE0079C531659141344CD1FD0A4F28419497F9722A3DAAFE3B4186F6B6457E0 SWAP2 SWAP1 LOG3 POP POP JUMP JUMPDEST PUSH1 0x0 PUSH1 0x20 DUP3 DUP5 SUB SLT ISZERO PUSH2 0xFF6 JUMPI PUSH1 0x0 DUP1 REVERT JUMPDEST POP CALLDATALOAD SWAP2 SWAP1 POP JUMP JUMPDEST PUSH1 0x0 JUMPDEST DUP4 DUP2 LT ISZERO PUSH2 0x1018 JUMPI DUP2 DUP2 ADD MLOAD DUP4 DUP3 ADD MSTORE PUSH1 0x20 ADD PUSH2 0x1000 JUMP JUMPDEST POP POP PUSH1 0x0 SWAP2 ADD MSTORE JUMP JUMPDEST PUSH1 0x0 DUP2 MLOAD DUP1 DUP5 MSTORE PUSH2 0x1039 DUP2 PUSH1 0x20 DUP7 ADD PUSH1 0x20 DUP7 ADD PUSH2 0xFFD JUMP JUMPDEST PUSH1 0x1F ADD PUSH1 0x1F NOT AND SWAP3 SWAP1 SWAP3 ADD PUSH1 0x20 ADD SWAP3 SWAP2 POP POP JUMP JUMPDEST PUSH1 0x20 DUP2 MSTORE DUP2 MLOAD PUSH1 0x20 DUP3 ADD MSTORE PUSH1 0x1 DUP1 PUSH1 0xA0 SHL SUB PUSH1 0x20 DUP4 ADD MLOAD AND PUSH1 0x40 DUP3 ADD MSTORE PUSH1 0x40 DUP3 ADD MLOAD PUSH1 0x60 DUP3 ADD MSTORE PUSH1 0x60 DUP3 ADD MLOAD PUSH1 0x80 DUP3 ADD MSTORE PUSH1 0x80 DUP3 ADD MLOAD PUSH1 0xA0 DUP3 ADD MSTORE PUSH1 0xA0 DUP3 ADD MLOAD PUSH1 0xC0 DUP3 ADD MSTORE PUSH1 0xC0 DUP3 ADD MLOAD PUSH1 0xE0 DUP3 ADD MSTORE PUSH1 0x0 PUSH1 0xE0 DUP4 ADD MLOAD PUSH2 0x100 DUP1 DUP2 DUP6 ADD MSTORE POP PUSH2 0x10BA PUSH2 0x120 DUP5 ADD DUP3 PUSH2 0x1021 JUMP JUMPDEST SWAP5 SWAP4 POP POP POP POP JUMP JUMPDEST PUSH1 0x1 PUSH1 0x1 PUSH1 0xA0 SHL SUB DUP2 AND DUP2 EQ PUSH2 0xE4B JUMPI PUSH1 0x0 DUP1 REVERT JUMPDEST PUSH1 0x0 PUSH1 0x20 DUP3 DUP5 SUB SLT ISZERO PUSH2 0x10E9 JUMPI PUSH1 0x0 DUP1 REVERT JUMPDEST DUP2 CALLDATALOAD PUSH2 0x10F4 DUP2 PUSH2 0x10C2 JUMP JUMPDEST SWAP4 SWAP3 POP POP POP JUMP JUMPDEST PUSH1 0x20 DUP1 DUP3 MSTORE DUP3 MLOAD DUP3 DUP3 ADD DUP2 SWAP1 MSTORE PUSH1 0x0 SWAP2 SWAP1 DUP5 DUP3 ADD SWAP1 PUSH1 0x40 DUP6 ADD SWAP1 DUP5 JUMPDEST DUP2 DUP2 LT ISZERO PUSH2 0x1133 JUMPI DUP4 MLOAD DUP4 MSTORE SWAP3 DUP5 ADD SWAP3 SWAP2 DUP5 ADD SWAP2 PUSH1 0x1 ADD PUSH2 0x1117 JUMP JUMPDEST POP SWAP1 SWAP7 SWAP6 POP POP POP POP POP POP JUMP JUMPDEST PUSH1 0x0 DUP1 PUSH1 0x0 PUSH1 0x60 DUP5 DUP7 SUB SLT ISZERO PUSH2 0x1154 JUMPI PUSH1 0x0 DUP1 REVERT JUMPDEST POP POP DUP2 CALLDATALOAD SWAP4 PUSH1 0x20 DUP4 ADD CALLDATALOAD SWAP4 POP PUSH1 0x40 SWAP1 SWAP3 ADD CALLDATALOAD SWAP2 SWAP1 POP JUMP JUMPDEST PUSH1 0x0 DUP1 PUSH1 0x40 DUP4 DUP6 SUB SLT ISZERO PUSH2 0x117E JUMPI PUSH1 0x0 DUP1 REVERT JUMPDEST POP POP DUP1 CALLDATALOAD SWAP3 PUSH1 0x20 SWAP1 SWAP2 ADD CALLDATALOAD SWAP2 POP JUMP JUMPDEST PUSH4 0x4E487B71 PUSH1 0xE0 SHL PUSH1 0x0 MSTORE PUSH1 0x41 PUSH1 0x4 MSTORE PUSH1 0x24 PUSH1 0x0 REVERT JUMPDEST PUSH1 0x40 MLOAD PUSH2 0x160 DUP2 ADD PUSH8 0xFFFFFFFFFFFFFFFF DUP2 GT DUP3 DUP3 LT OR ISZERO PUSH2 0x11C7 JUMPI PUSH2 0x11C7 PUSH2 0x118D JUMP JUMPDEST PUSH1 0x40 MSTORE SWAP1 JUMP JUMPDEST PUSH1 0x40 MLOAD PUSH1 0x1F DUP3 ADD PUSH1 0x1F NOT AND DUP2 ADD PUSH8 0xFFFFFFFFFFFFFFFF DUP2 GT DUP3 DUP3 LT OR ISZERO PUSH2 0x11F6 JUMPI PUSH2 0x11F6 PUSH2 0x118D JUMP JUMPDEST PUSH1 0x40 MSTORE SWAP2 SWAP1 POP JUMP JUMPDEST PUSH1 0x0 PUSH8 0xFFFFFFFFFFFFFFFF DUP3 GT ISZERO PUSH2 0x1218 JUMPI PUSH2 0x1218 PUSH2 0x118D JUMP JUMPDEST POP PUSH1 0x1F ADD PUSH1 0x1F NOT AND PUSH1 0x20 ADD SWAP1 JUMP JUMPDEST PUSH1 0x0 DUP1 PUSH1 0x40 DUP4 DUP6 SUB SLT ISZERO PUSH2 0x1239 JUMPI PUSH1 0x0 DUP1 REVERT JUMPDEST DUP3 CALLDATALOAD SWAP2 POP PUSH1 0x20 DUP4 ADD CALLDATALOAD PUSH8 0xFFFFFFFFFFFFFFFF DUP2 GT ISZERO PUSH2 0x1257 JUMPI PUSH1 0x0 DUP1 REVERT JUMPDEST DUP4 ADD PUSH1 0x1F DUP2 ADD DUP6 SGT PUSH2 0x1268 JUMPI PUSH1 0x0 DUP1 REVERT JUMPDEST DUP1 CALLDATALOAD PUSH2 0x127B PUSH2 0x1276 DUP3 PUSH2 0x11FE JUMP JUMPDEST PUSH2 0x11CD JUMP JUMPDEST DUP2 DUP2 MSTORE DUP7 PUSH1 0x20 DUP4 DUP6 ADD ADD GT ISZERO PUSH2 0x1290 JUMPI PUSH1 0x0 DUP1 REVERT JUMPDEST DUP2 PUSH1 0x20 DUP5 ADD PUSH1 0x20 DUP4 ADD CALLDATACOPY PUSH1 0x0 PUSH1 0x20 DUP4 DUP4 ADD ADD MSTORE DUP1 SWAP4 POP POP POP POP SWAP3 POP SWAP3 SWAP1 POP JUMP JUMPDEST PUSH1 0x0 DUP1 PUSH1 0x40 DUP4 DUP6 SUB SLT ISZERO PUSH2 0x12C3 JUMPI PUSH1 0x0 DUP1 REVERT JUMPDEST DUP3 CALLDATALOAD PUSH2 0x12CE DUP2 PUSH2 0x10C2 JUMP JUMPDEST SWAP5 PUSH1 0x20 SWAP4 SWAP1 SWAP4 ADD CALLDATALOAD SWAP4 POP POP POP JUMP JUMPDEST PUSH1 0x0 PUSH2 0x100 DUP11 DUP4 MSTORE PUSH1 0x1 DUP1 PUSH1 0xA0 SHL SUB DUP11 AND PUSH1 0x20 DUP5 ADD MSTORE DUP9 PUSH1 0x40 DUP5 ADD MSTORE DUP8 PUSH1 0x60 DUP5 ADD MSTORE DUP7 PUSH1 0x80 DUP5 ADD MSTORE DUP6 PUSH1 0xA0 DUP5 ADD MSTORE DUP5 PUSH1 0xC0 DUP5 ADD MSTORE DUP1 PUSH1 0xE0 DUP5 ADD MSTORE PUSH2 0x1322 DUP2 DUP5 ADD DUP6 PUSH2 0x1021 JUMP JUMPDEST SWAP12 SWAP11 POP POP POP POP POP POP POP POP POP POP POP JUMP JUMPDEST PUSH4 0x4E487B71 PUSH1 0xE0 SHL PUSH1 0x0 MSTORE PUSH1 0x32 PUSH1 0x4 MSTORE PUSH1 0x24 PUSH1 0x0 REVERT JUMPDEST PUSH1 0x1 DUP2 DUP2 SHR SWAP1 DUP3 AND DUP1 PUSH2 0x135B JUMPI PUSH1 0x7F DUP3 AND SWAP2 POP JUMPDEST PUSH1 0x20 DUP3 LT DUP2 SUB PUSH2 0x137B JUMPI PUSH4 0x4E487B71 PUSH1 0xE0 SHL PUSH1 0x0 MSTORE PUSH1 0x22 PUSH1 0x4 MSTORE PUSH1 0x24 PUSH1 0x0 REVERT JUMPDEST POP SWAP2 SWAP1 POP JUMP JUMPDEST DUP1 MLOAD DUP1 ISZERO ISZERO DUP2 EQ PUSH2 0x1391 JUMPI PUSH1 0x0 DUP1 REVERT JUMPDEST SWAP2 SWAP1 POP JUMP JUMPDEST PUSH1 0x0 PUSH1 0x20 DUP3 DUP5 SUB SLT ISZERO PUSH2 0x13A8 JUMPI PUSH1 0x0 DUP1 REVERT JUMPDEST PUSH2 0x10F4 DUP3 PUSH2 0x1381 JUMP JUMPDEST PUSH1 0x0 DUP3 PUSH1 0x1F DUP4 ADD SLT PUSH2 0x13C2 JUMPI PUSH1 0x0 DUP1 REVERT JUMPDEST DUP2 MLOAD PUSH2 0x13D0 PUSH2 0x1276 DUP3 PUSH2 0x11FE JUMP JUMPDEST DUP2 DUP2 MSTORE DUP5 PUSH1 0x20 DUP4 DUP7 ADD ADD GT ISZERO PUSH2 0x13E5 JUMPI PUSH1 0x0 DUP1 REVERT JUMPDEST PUSH2 0x10BA DUP3 PUSH1 0x20 DUP4 ADD PUSH1 0x20 DUP8 ADD PUSH2 0xFFD JUMP JUMPDEST DUP1 MLOAD PUSH2 0x1391 DUP2 PUSH2 0x10C2 JUMP JUMPDEST PUSH1 0x0 PUSH1 0x20 DUP3 DUP5 SUB SLT ISZERO PUSH2 0x1413 JUMPI PUSH1 0x0 DUP1 REVERT JUMPDEST DUP2 MLOAD PUSH8 0xFFFFFFFFFFFFFFFF DUP1 DUP3 GT ISZERO PUSH2 0x142B JUMPI PUSH1 0x0 DUP1 REVERT JUMPDEST SWAP1 DUP4 ADD SWAP1 PUSH2 0x160 DUP3 DUP7 SUB SLT ISZERO PUSH2 0x1440 JUMPI PUSH1 0x0 DUP1 REVERT JUMPDEST PUSH2 0x1448 PUSH2 0x11A3 JUMP JUMPDEST DUP3 MLOAD DUP2 MSTORE PUSH1 0x20 DUP4 ADD MLOAD DUP3 DUP2 GT ISZERO PUSH2 0x145E JUMPI PUSH1 0x0 DUP1 REVERT JUMPDEST PUSH2 0x146A DUP8 DUP3 DUP7 ADD PUSH2 0x13B1 JUMP JUMPDEST PUSH1 0x20 DUP4 ADD MSTORE POP PUSH1 0x40 DUP4 ADD MLOAD DUP3 DUP2 GT ISZERO PUSH2 0x1482 JUMPI PUSH1 0x0 DUP1 REVERT JUMPDEST PUSH2 0x148E DUP8 DUP3 DUP7 ADD PUSH2 0x13B1 JUMP JUMPDEST PUSH1 0x40 DUP4 ADD MSTORE POP PUSH1 0x60 DUP4 ADD MLOAD DUP3 DUP2 GT ISZERO PUSH2 0x14A6 JUMPI PUSH1 0x0 DUP1 REVERT JUMPDEST PUSH2 0x14B2 DUP8 DUP3 DUP7 ADD PUSH2 0x13B1 JUMP JUMPDEST PUSH1 0x60 DUP4 ADD MSTORE POP PUSH1 0x80 DUP4 ADD MLOAD DUP3 DUP2 GT ISZERO PUSH2 0x14CA JUMPI PUSH1 0x0 DUP1 REVERT JUMPDEST PUSH2 0x14D6 DUP8 DUP3 DUP7 ADD PUSH2 0x13B1 JUMP JUMPDEST PUSH1 0x80 DUP4 ADD MSTORE POP PUSH1 0xA0 DUP4 ADD MLOAD DUP3 DUP2 GT ISZERO PUSH2 0x14EE JUMPI PUSH1 0x0 DUP1 REVERT JUMPDEST PUSH2 0x14FA DUP8 DUP3 DUP7 ADD PUSH2 0x13B1 JUMP JUMPDEST PUSH1 0xA0 DUP4 ADD MSTORE POP PUSH1 0xC0 DUP4 ADD MLOAD PUSH1 0xC0 DUP3 ADD MSTORE PUSH1 0xE0 DUP4 ADD MLOAD PUSH1 0xE0 DUP3 ADD MSTORE PUSH2 0x100 SWAP2 POP PUSH2 0x1524 DUP3 DUP5 ADD PUSH2 0x13F6 JUMP JUMPDEST DUP3 DUP3 ADD MSTORE PUSH2 0x120 SWAP2 POP PUSH2 0x1538 DUP3 DUP5 ADD PUSH2 0x1381 JUMP JUMPDEST DUP3 DUP3 ADD MSTORE PUSH2 0x140 SWAP2 POP PUSH2 0x154C DUP3 DUP5 ADD PUSH2 0x1381 JUMP JUMPDEST SWAP2 DUP2 ADD SWAP2 SWAP1 SWAP2 MSTORE SWAP5 SWAP4 POP POP POP POP JUMP JUMPDEST PUSH1 0x1F DUP3 GT ISZERO PUSH2 0x15A5 JUMPI PUSH1 0x0 DUP2 DUP2 MSTORE PUSH1 0x20 DUP2 KECCAK256 PUSH1 0x1F DUP6 ADD PUSH1 0x5 SHR DUP2 ADD PUSH1 0x20 DUP7 LT ISZERO PUSH2 0x1582 JUMPI POP DUP1 JUMPDEST PUSH1 0x1F DUP6 ADD PUSH1 0x5 SHR DUP3 ADD SWAP2 POP JUMPDEST DUP2 DUP2 LT ISZERO PUSH2 0x15A1 JUMPI DUP3 DUP2 SSTORE PUSH1 0x1 ADD PUSH2 0x158E JUMP JUMPDEST POP POP POP JUMPDEST POP POP POP JUMP JUMPDEST DUP2 MLOAD PUSH8 0xFFFFFFFFFFFFFFFF DUP2 GT ISZERO PUSH2 0x15C4 JUMPI PUSH2 0x15C4 PUSH2 0x118D JUMP JUMPDEST PUSH2 0x15D8 DUP2 PUSH2 0x15D2 DUP5 SLOAD PUSH2 0x1347 JUMP JUMPDEST DUP5 PUSH2 0x155B JUMP JUMPDEST PUSH1 0x20 DUP1 PUSH1 0x1F DUP4 GT PUSH1 0x1 DUP2 EQ PUSH2 0x160D JUMPI PUSH1 0x0 DUP5 ISZERO PUSH2 0x15F5 JUMPI POP DUP6 DUP4 ADD MLOAD JUMPDEST PUSH1 0x0 NOT PUSH1 0x3 DUP7 SWAP1 SHL SHR NOT AND PUSH1 0x1 DUP6 SWAP1 SHL OR DUP6 SSTORE PUSH2 0x15A1 JUMP JUMPDEST PUSH1 0x0 DUP6 DUP2 MSTORE PUSH1 0x20 DUP2 KECCAK256 PUSH1 0x1F NOT DUP7 AND SWAP2 JUMPDEST DUP3 DUP2 LT ISZERO PUSH2 0x163C JUMPI DUP9 DUP7 ADD MLOAD DUP3 SSTORE SWAP5 DUP5 ADD SWAP5 PUSH1 0x1 SWAP1 SWAP2 ADD SWAP1 DUP5 ADD PUSH2 0x161D JUMP JUMPDEST POP DUP6 DUP3 LT ISZERO PUSH2 0x165A JUMPI DUP8 DUP6 ADD MLOAD PUSH1 0x0 NOT PUSH1 0x3 DUP9 SWAP1 SHL PUSH1 0xF8 AND SHR NOT AND DUP2 SSTORE JUMPDEST POP POP POP POP POP PUSH1 0x1 SWAP1 DUP2 SHL ADD SWAP1 SSTORE POP JUMP JUMPDEST PUSH1 0x20 DUP2 MSTORE PUSH1 0x0 PUSH2 0x10F4 PUSH1 0x20 DUP4 ADD DUP5 PUSH2 0x1021 JUMP INVALID LOG2 PUSH5 0x6970667358 0x22 SLT KECCAK256 0xE4 DUP15 0x4B DUP1 AND 0x4A 0x49 PUSH21 0xB9CF5D5FA9FB4BE93D6928ABACC3EB3F96FD1B1B48 0xBE SHL 0xA5 PUSH5 0x736F6C6343 STOP ADDMOD SGT STOP CALLER "},"methodIdentifiers":{"farmerInvestments(uint256,uint256)":"9827cda8","farmerRegistry()":"0da80980","getFarmerInvestments(uint256)":"9f37353a","getInvestment(uint256)":"22ae634f","getInvestmentCount()":"b8d84697","getInvestorInvestments(address)":"4c431f00","invest(uint256,uint256,uint256)":"79aba36d","investments(uint256)":"fd345c8a","investorInvestments(address,uint256)":"eef90b62","owner()":"8da5cb5b","productRegistry()":"fff218c3","renounceOwnership()":"715018a6","transferOwnership(address)":"f2fde38b","updateInvestmentStatus(uint256,string)":"cc42edbd"}}}}}