{"contracts/RatingSystem.sol":{"RatingSystem":{"abi":[{"inputs":[{"internalType":"address","name":"_farmerRegistryAddress","type":"address"}],"stateMutability":"nonpayable","type":"constructor"},{"anonymous":false,"inputs":[{"indexed":true,"internalType":"uint256","name":"ratingId","type":"uint256"},{"indexed":true,"internalType":"address","name":"consumer","type":"address"},{"indexed":true,"internalType":"uint256","name":"farmerId","type":"uint256"},{"indexed":false,"internalType":"uint256","name":"lotNumber","type":"uint256"},{"indexed":false,"internalType":"uint8","name":"reliability","type":"uint8"},{"indexed":false,"internalType":"uint8","name":"productQuality","type":"uint8"},{"indexed":false,"internalType":"uint8","name":"deliverySatisfaction","type":"uint8"},{"indexed":false,"internalType":"uint256","name":"timestamp","type":"uint256"}],"name":"RatingAdded","type":"event"},{"inputs":[{"internalType":"uint256","name":"_farmerId","type":"uint256"},{"internalType":"uint256","name":"_lotNumber","type":"uint256"},{"internalType":"uint8","name":"_reliability","type":"uint8"},{"internalType":"uint8","name":"_productQuality","type":"uint8"},{"internalType":"uint8","name":"_deliverySatisfaction","type":"uint8"},{"internalType":"string","name":"_comment","type":"string"}],"name":"addRating","outputs":[],"stateMutability":"nonpayable","type":"function"},{"inputs":[{"internalType":"uint256","name":"","type":"uint256"},{"internalType":"uint256","name":"","type":"uint256"}],"name":"farmerRatings","outputs":[{"internalType":"uint256","name":"","type":"uint256"}],"stateMutability":"view","type":"function"},{"inputs":[],"name":"farmerRegistry","outputs":[{"internalType":"contract FarmerRegistry","name":"","type":"address"}],"stateMutability":"view","type":"function"},{"inputs":[{"internalType":"uint256","name":"_farmerId","type":"uint256"}],"name":"getFarmerAverageRating","outputs":[{"internalType":"uint256","name":"","type":"uint256"}],"stateMutability":"view","type":"function"},{"inputs":[{"internalType":"uint256","name":"_farmerId","type":"uint256"}],"name":"getFarmerRatingCount","outputs":[{"internalType":"uint256","name":"","type":"uint256"}],"stateMutability":"view","type":"function"},{"inputs":[{"internalType":"uint256","name":"","type":"uint256"}],"name":"ratings","outputs":[{"internalType":"uint256","name":"ratingId","type":"uint256"},{"internalType":"address","name":"consumer","type":"address"},{"internalType":"uint256","name":"farmerId","type":"uint256"},{"internalType":"uint256","name":"lotNumber","type":"uint256"},{"internalType":"uint8","name":"reliability","type":"uint8"},{"internalType":"uint8","name":"productQuality","type":"uint8"},{"internalType":"uint8","name":"deliverySatisfaction","type":"uint8"},{"internalType":"string","name":"comment","type":"string"},{"internalType":"uint256","name":"timestamp","type":"uint256"}],"stateMutability":"view","type":"function"}],"evm":{"bytecode":{"linkReferences":{},"object":"608060405234801561001057600080fd5b50604051610c5a380380610c5a83398101604081905261002f91610054565b600280546001600160a01b0319166001600160a01b0392909216919091179055610084565b60006020828403121561006657600080fd5b81516001600160a01b038116811461007d57600080fd5b9392505050565b610bc7806100936000396000f3fe608060405234801561001057600080fd5b50600436106100625760003560e01c80630c57556b146100675780630da809801461008d57806347a7116b146100b85780634dd6c6e1146100cd5780635d30e84d146100e0578063b50c109d14610108575b600080fd5b61007a610075366004610747565b610128565b6040519081526020015b60405180910390f35b6002546100a0906001600160a01b031681565b6040516001600160a01b039091168152602001610084565b6100cb6100c636600461078c565b610270565b005b61007a6100db366004610881565b610619565b6100f36100ee366004610747565b61064a565b604051610084999897969594939291906108a3565b61007a610116366004610747565b60009081526001602052604090205490565b6000818152600160205260408120548082036101475750600092915050565b6000805b8281101561025157600085815260016020526040812080548390811061017357610173610945565b9060005260206000200154905060036000828154811061019557610195610945565b906000526020600020906007020160040160029054906101000a900460ff16600083815481106101c7576101c7610945565b906000526020600020906007020160040160019054906101000a900460ff16600084815481106101f9576101f9610945565b600091825260209091206004600790920201015461021a919060ff16610971565b6102249190610971565b61022e91906109a6565b61023b9060ff16846109c8565b9250508080610249906109db565b91505061014b565b508161025e82600a6109f4565b6102689190610a0b565b949350505050565b60025460405163b6821b7760e01b8152600481018890526001600160a01b039091169063b6821b7790602401602060405180830381865afa1580156102b9573d6000803e3d6000fd5b505050506040513d601f19601f820116820180604052508101906102dd9190610a1f565b61033a5760405162461bcd60e51b8152602060048201526024808201527f4661726d6572206d75737420626520617070726f76656420627920617574686f6044820152637269747960e01b60648201526084015b60405180910390fd5b60018460ff1610158015610352575060058460ff1611155b8015610362575060018360ff1610155b8015610372575060058360ff1611155b8015610382575060018260ff1610155b8015610392575060058260ff1611155b6103de5760405162461bcd60e51b815260206004820152601f60248201527f526174696e6773206d757374206265206265747765656e203120616e642035006044820152606401610331565b60008054604080516101208101825282815233602082019081529181018a8152606082018a815260ff808b16608085019081528a821660a086019081528a831660c0870190815260e087018b815242610100808a019190915260018b018c559a8052875160078b027f290decd9548b62a8d60345a988386fc84ba6bc95484008f6362f93160ef3e563810191825599517f290decd9548b62a8d60345a988386fc84ba6bc95484008f6362f93160ef3e5648b0180546001600160a01b03929092166001600160a01b031990921691909117905596517f290decd9548b62a8d60345a988386fc84ba6bc95484008f6362f93160ef3e5658a015594517f290decd9548b62a8d60345a988386fc84ba6bc95484008f6362f93160ef3e56689015591517f290decd9548b62a8d60345a988386fc84ba6bc95484008f6362f93160ef3e56788018054925193518516620100000262ff000019948616909b0261ffff19909316919094161717169690961790955593519293909290917f290decd9548b62a8d60345a988386fc84ba6bc95484008f6362f93160ef3e56801906105849082610ad1565b506101009190910151600690910155600087815260016020818152604080842080549384018155845292819020909101839055815188815260ff8881169282019290925286821681840152908516606082015242608082015290518891339184917f4a5d77ce29b26b4feb2d23bd7c9c52ed8c0d863fa7da643adbf6b43c273b86ff919081900360a00190a450505050505050565b6001602052816000526040600020818154811061063557600080fd5b90600052602060002001600091509150505481565b6000818154811061065a57600080fd5b60009182526020909120600790910201805460018201546002830154600384015460048501546005860180549597506001600160a01b03909416959294919360ff80831694610100840482169462010000909404909116929091906106be90610a48565b80601f01602080910402602001604051908101604052809291908181526020018280546106ea90610a48565b80156107375780601f1061070c57610100808354040283529160200191610737565b820191906000526020600020905b81548152906001019060200180831161071a57829003601f168201915b5050505050908060060154905089565b60006020828403121561075957600080fd5b5035919050565b803560ff8116811461077157600080fd5b919050565b634e487b7160e01b600052604160045260246000fd5b60008060008060008060c087890312156107a557600080fd5b86359550602087013594506107bc60408801610760565b93506107ca60608801610760565b92506107d860808801610760565b915060a087013567ffffffffffffffff808211156107f557600080fd5b818901915089601f83011261080957600080fd5b81358181111561081b5761081b610776565b604051601f8201601f19908116603f0116810190838211818310171561084357610843610776565b816040528281528c602084870101111561085c57600080fd5b8260208601602083013760006020848301015280955050505050509295509295509295565b6000806040838503121561089457600080fd5b50508035926020909101359150565b60006101208b8352602060018060a01b038c16818501528a604085015289606085015260ff8916608085015260ff881660a085015260ff871660c08501528160e085015285518083860152600092505b80831015610912578683018201518584016101400152918101916108f3565b6101409250600083828701015282601f19601f8301168601019350505050826101008301529a9950505050505050505050565b634e487b7160e01b600052603260045260246000fd5b634e487b7160e01b600052601160045260246000fd5b60ff818116838216019081111561098a5761098a61095b565b92915050565b634e487b7160e01b600052601260045260246000fd5b600060ff8316806109b9576109b9610990565b8060ff84160491505092915050565b8082018082111561098a5761098a61095b565b6000600182016109ed576109ed61095b565b5060010190565b808202811582820484141761098a5761098a61095b565b600082610a1a57610a1a610990565b500490565b600060208284031215610a3157600080fd5b81518015158114610a4157600080fd5b9392505050565b600181811c90821680610a5c57607f821691505b602082108103610a7c57634e487b7160e01b600052602260045260246000fd5b50919050565b601f821115610acc57600081815260208120601f850160051c81016020861015610aa95750805b601f850160051c820191505b81811015610ac857828155600101610ab5565b5050505b505050565b815167ffffffffffffffff811115610aeb57610aeb610776565b610aff81610af98454610a48565b84610a82565b602080601f831160018114610b345760008415610b1c5750858301515b600019600386901b1c1916600185901b178555610ac8565b600085815260208120601f198616915b82811015610b6357888601518255948401946001909101908401610b44565b5085821015610b815787850151600019600388901b60f8161c191681555b5050505050600190811b0190555056fea2646970667358221220d1528f59947f1fa970714e3d4f682404ece27118e663a58c0a47d8c10472951164736f6c63430008130033","opcodes":"PUSH1 0x80 PUSH1 0x40 MSTORE CALLVALUE DUP1 ISZERO PUSH2 0x10 JUMPI PUSH1 0x0 DUP1 REVERT JUMPDEST POP PUSH1 0x40 MLOAD PUSH2 0xC5A CODESIZE SUB DUP1 PUSH2 0xC5A DUP4 CODECOPY DUP2 ADD PUSH1 0x40 DUP2 SWAP1 MSTORE PUSH2 0x2F SWAP2 PUSH2 0x54 JUMP JUMPDEST PUSH1 0x2 DUP1 SLOAD PUSH1 0x1 PUSH1 0x1 PUSH1 0xA0 SHL SUB NOT AND PUSH1 0x1 PUSH1 0x1 PUSH1 0xA0 SHL SUB SWAP3 SWAP1 SWAP3 AND SWAP2 SWAP1 SWAP2 OR SWAP1 SSTORE PUSH2 0x84 JUMP JUMPDEST PUSH1 0x0 PUSH1 0x20 DUP3 DUP5 SUB SLT ISZERO PUSH2 0x66 JUMPI PUSH1 0x0 DUP1 REVERT JUMPDEST DUP2 MLOAD PUSH1 0x1 PUSH1 0x1 PUSH1 0xA0 SHL SUB DUP2 AND DUP2 EQ PUSH2 0x7D JUMPI PUSH1 0x0 DUP1 REVERT JUMPDEST SWAP4 SWAP3 POP POP POP JUMP JUMPDEST PUSH2 0xBC7 DUP1 PUSH2 0x93 PUSH1 0x0 CODECOPY PUSH1 0x0 RETURN INVALID PUSH1 0x80 PUSH1 0x40 MSTORE CALLVALUE DUP1 ISZERO PUSH2 0x10 JUMPI PUSH1 0x0 DUP1 REVERT JUMPDEST POP PUSH1 0x4 CALLDATASIZE LT PUSH2 0x62 JUMPI PUSH1 0x0 CALLDATALOAD PUSH1 0xE0 SHR DUP1 PUSH4 0xC57556B EQ PUSH2 0x67 JUMPI DUP1 PUSH4 0xDA80980 EQ PUSH2 0x8D JUMPI DUP1 PUSH4 0x47A7116B EQ PUSH2 0xB8 JUMPI DUP1 PUSH4 0x4DD6C6E1 EQ PUSH2 0xCD JUMPI DUP1 PUSH4 0x5D30E84D EQ PUSH2 0xE0 JUMPI DUP1 PUSH4 0xB50C109D EQ PUSH2 0x108 JUMPI JUMPDEST PUSH1 0x0 DUP1 REVERT JUMPDEST PUSH2 0x7A PUSH2 0x75 CALLDATASIZE PUSH1 0x4 PUSH2 0x747 JUMP JUMPDEST PUSH2 0x128 JUMP JUMPDEST PUSH1 0x40 MLOAD SWAP1 DUP2 MSTORE PUSH1 0x20 ADD JUMPDEST PUSH1 0x40 MLOAD DUP1 SWAP2 SUB SWAP1 RETURN JUMPDEST PUSH1 0x2 SLOAD PUSH2 0xA0 SWAP1 PUSH1 0x1 PUSH1 0x1 PUSH1 0xA0 SHL SUB AND DUP2 JUMP JUMPDEST PUSH1 0x40 MLOAD PUSH1 0x1 PUSH1 0x1 PUSH1 0xA0 SHL SUB SWAP1 SWAP2 AND DUP2 MSTORE PUSH1 0x20 ADD PUSH2 0x84 JUMP JUMPDEST PUSH2 0xCB PUSH2 0xC6 CALLDATASIZE PUSH1 0x4 PUSH2 0x78C JUMP JUMPDEST PUSH2 0x270 JUMP JUMPDEST STOP JUMPDEST PUSH2 0x7A PUSH2 0xDB CALLDATASIZE PUSH1 0x4 PUSH2 0x881 JUMP JUMPDEST PUSH2 0x619 JUMP JUMPDEST PUSH2 0xF3 PUSH2 0xEE CALLDATASIZE PUSH1 0x4 PUSH2 0x747 JUMP JUMPDEST PUSH2 0x64A JUMP JUMPDEST PUSH1 0x40 MLOAD PUSH2 0x84 SWAP10 SWAP9 SWAP8 SWAP7 SWAP6 SWAP5 SWAP4 SWAP3 SWAP2 SWAP1 PUSH2 0x8A3 JUMP JUMPDEST PUSH2 0x7A PUSH2 0x116 CALLDATASIZE PUSH1 0x4 PUSH2 0x747 JUMP JUMPDEST PUSH1 0x0 SWAP1 DUP2 MSTORE PUSH1 0x1 PUSH1 0x20 MSTORE PUSH1 0x40 SWAP1 KECCAK256 SLOAD SWAP1 JUMP JUMPDEST PUSH1 0x0 DUP2 DUP2 MSTORE PUSH1 0x1 PUSH1 0x20 MSTORE PUSH1 0x40 DUP2 KECCAK256 SLOAD DUP1 DUP3 SUB PUSH2 0x147 JUMPI POP PUSH1 0x0 SWAP3 SWAP2 POP POP JUMP JUMPDEST PUSH1 0x0 DUP1 JUMPDEST DUP3 DUP2 LT ISZERO PUSH2 0x251 JUMPI PUSH1 0x0 DUP6 DUP2 MSTORE PUSH1 0x1 PUSH1 0x20 MSTORE PUSH1 0x40 DUP2 KECCAK256 DUP1 SLOAD DUP4 SWAP1 DUP2 LT PUSH2 0x173 JUMPI PUSH2 0x173 PUSH2 0x945 JUMP JUMPDEST SWAP1 PUSH1 0x0 MSTORE PUSH1 0x20 PUSH1 0x0 KECCAK256 ADD SLOAD SWAP1 POP PUSH1 0x3 PUSH1 0x0 DUP3 DUP2 SLOAD DUP2 LT PUSH2 0x195 JUMPI PUSH2 0x195 PUSH2 0x945 JUMP JUMPDEST SWAP1 PUSH1 0x0 MSTORE PUSH1 0x20 PUSH1 0x0 KECCAK256 SWAP1 PUSH1 0x7 MUL ADD PUSH1 0x4 ADD PUSH1 0x2 SWAP1 SLOAD SWAP1 PUSH2 0x100 EXP SWAP1 DIV PUSH1 0xFF AND PUSH1 0x0 DUP4 DUP2 SLOAD DUP2 LT PUSH2 0x1C7 JUMPI PUSH2 0x1C7 PUSH2 0x945 JUMP JUMPDEST SWAP1 PUSH1 0x0 MSTORE PUSH1 0x20 PUSH1 0x0 KECCAK256 SWAP1 PUSH1 0x7 MUL ADD PUSH1 0x4 ADD PUSH1 0x1 SWAP1 SLOAD SWAP1 PUSH2 0x100 EXP SWAP1 DIV PUSH1 0xFF AND PUSH1 0x0 DUP5 DUP2 SLOAD DUP2 LT PUSH2 0x1F9 JUMPI PUSH2 0x1F9 PUSH2 0x945 JUMP JUMPDEST PUSH1 0x0 SWAP2 DUP3 MSTORE PUSH1 0x20 SWAP1 SWAP2 KECCAK256 PUSH1 0x4 PUSH1 0x7 SWAP1 SWAP3 MUL ADD ADD SLOAD PUSH2 0x21A SWAP2 SWAP1 PUSH1 0xFF AND PUSH2 0x971 JUMP JUMPDEST PUSH2 0x224 SWAP2 SWAP1 PUSH2 0x971 JUMP JUMPDEST PUSH2 0x22E SWAP2 SWAP1 PUSH2 0x9A6 JUMP JUMPDEST PUSH2 0x23B SWAP1 PUSH1 0xFF AND DUP5 PUSH2 0x9C8 JUMP JUMPDEST SWAP3 POP POP DUP1 DUP1 PUSH2 0x249 SWAP1 PUSH2 0x9DB JUMP JUMPDEST SWAP2 POP POP PUSH2 0x14B JUMP JUMPDEST POP DUP2 PUSH2 0x25E DUP3 PUSH1 0xA PUSH2 0x9F4 JUMP JUMPDEST PUSH2 0x268 SWAP2 SWAP1 PUSH2 0xA0B JUMP JUMPDEST SWAP5 SWAP4 POP POP POP POP JUMP JUMPDEST PUSH1 0x2 SLOAD PUSH1 0x40 MLOAD PUSH4 0xB6821B77 PUSH1 0xE0 SHL DUP2 MSTORE PUSH1 0x4 DUP2 ADD DUP9 SWAP1 MSTORE PUSH1 0x1 PUSH1 0x1 PUSH1 0xA0 SHL SUB SWAP1 SWAP2 AND SWAP1 PUSH4 0xB6821B77 SWAP1 PUSH1 0x24 ADD PUSH1 0x20 PUSH1 0x40 MLOAD DUP1 DUP4 SUB DUP2 DUP7 GAS STATICCALL ISZERO DUP1 ISZERO PUSH2 0x2B9 JUMPI RETURNDATASIZE PUSH1 0x0 DUP1 RETURNDATACOPY RETURNDATASIZE PUSH1 0x0 REVERT JUMPDEST POP POP POP POP PUSH1 0x40 MLOAD RETURNDATASIZE PUSH1 0x1F NOT PUSH1 0x1F DUP3 ADD AND DUP3 ADD DUP1 PUSH1 0x40 MSTORE POP DUP2 ADD SWAP1 PUSH2 0x2DD SWAP2 SWAP1 PUSH2 0xA1F JUMP JUMPDEST PUSH2 0x33A JUMPI PUSH1 0x40 MLOAD PUSH3 0x461BCD PUSH1 0xE5 SHL DUP2 MSTORE PUSH1 0x20 PUSH1 0x4 DUP3 ADD MSTORE PUSH1 0x24 DUP1 DUP3 ADD MSTORE PUSH32 0x4661726D6572206D75737420626520617070726F76656420627920617574686F PUSH1 0x44 DUP3 ADD MSTORE PUSH4 0x72697479 PUSH1 0xE0 SHL PUSH1 0x64 DUP3 ADD MSTORE PUSH1 0x84 ADD JUMPDEST PUSH1 0x40 MLOAD DUP1 SWAP2 SUB SWAP1 REVERT JUMPDEST PUSH1 0x1 DUP5 PUSH1 0xFF AND LT ISZERO DUP1 ISZERO PUSH2 0x352 JUMPI POP PUSH1 0x5 DUP5 PUSH1 0xFF AND GT ISZERO JUMPDEST DUP1 ISZERO PUSH2 0x362 JUMPI POP PUSH1 0x1 DUP4 PUSH1 0xFF AND LT ISZERO JUMPDEST DUP1 ISZERO PUSH2 0x372 JUMPI POP PUSH1 0x5 DUP4 PUSH1 0xFF AND GT ISZERO JUMPDEST DUP1 ISZERO PUSH2 0x382 JUMPI POP PUSH1 0x1 DUP3 PUSH1 0xFF AND LT ISZERO JUMPDEST DUP1 ISZERO PUSH2 0x392 JUMPI POP PUSH1 0x5 DUP3 PUSH1 0xFF AND GT ISZERO JUMPDEST PUSH2 0x3DE JUMPI PUSH1 0x40 MLOAD PUSH3 0x461BCD PUSH1 0xE5 SHL DUP2 MSTORE PUSH1 0x20 PUSH1 0x4 DUP3 ADD MSTORE PUSH1 0x1F PUSH1 0x24 DUP3 ADD MSTORE PUSH32 0x526174696E6773206D757374206265206265747765656E203120616E64203500 PUSH1 0x44 DUP3 ADD MSTORE PUSH1 0x64 ADD PUSH2 0x331 JUMP JUMPDEST PUSH1 0x0 DUP1 SLOAD PUSH1 0x40 DUP1 MLOAD PUSH2 0x120 DUP2 ADD DUP3 MSTORE DUP3 DUP2 MSTORE CALLER PUSH1 0x20 DUP3 ADD SWAP1 DUP2 MSTORE SWAP2 DUP2 ADD DUP11 DUP2 MSTORE PUSH1 0x60 DUP3 ADD DUP11 DUP2 MSTORE PUSH1 0xFF DUP1 DUP12 AND PUSH1 0x80 DUP6 ADD SWAP1 DUP2 MSTORE DUP11 DUP3 AND PUSH1 0xA0 DUP7 ADD SWAP1 DUP2 MSTORE DUP11 DUP4 AND PUSH1 0xC0 DUP8 ADD SWAP1 DUP2 MSTORE PUSH1 0xE0 DUP8 ADD DUP12 DUP2 MSTORE TIMESTAMP PUSH2 0x100 DUP1 DUP11 ADD SWAP2 SWAP1 SWAP2 MSTORE PUSH1 0x1 DUP12 ADD DUP13 SSTORE SWAP11 DUP1 MSTORE DUP8 MLOAD PUSH1 0x7 DUP12 MUL PUSH32 0x290DECD9548B62A8D60345A988386FC84BA6BC95484008F6362F93160EF3E563 DUP2 ADD SWAP2 DUP3 SSTORE SWAP10 MLOAD PUSH32 0x290DECD9548B62A8D60345A988386FC84BA6BC95484008F6362F93160EF3E564 DUP12 ADD DUP1 SLOAD PUSH1 0x1 PUSH1 0x1 PUSH1 0xA0 SHL SUB SWAP3 SWAP1 SWAP3 AND PUSH1 0x1 PUSH1 0x1 PUSH1 0xA0 SHL SUB NOT SWAP1 SWAP3 AND SWAP2 SWAP1 SWAP2 OR SWAP1 SSTORE SWAP7 MLOAD PUSH32 0x290DECD9548B62A8D60345A988386FC84BA6BC95484008F6362F93160EF3E565 DUP11 ADD SSTORE SWAP5 MLOAD PUSH32 0x290DECD9548B62A8D60345A988386FC84BA6BC95484008F6362F93160EF3E566 DUP10 ADD SSTORE SWAP2 MLOAD PUSH32 0x290DECD9548B62A8D60345A988386FC84BA6BC95484008F6362F93160EF3E567 DUP9 ADD DUP1 SLOAD SWAP3 MLOAD SWAP4 MLOAD DUP6 AND PUSH3 0x10000 MUL PUSH3 0xFF0000 NOT SWAP5 DUP7 AND SWAP1 SWAP12 MUL PUSH2 0xFFFF NOT SWAP1 SWAP4 AND SWAP2 SWAP1 SWAP5 AND OR OR AND SWAP7 SWAP1 SWAP7 OR SWAP1 SWAP6 SSTORE SWAP4 MLOAD SWAP3 SWAP4 SWAP1 SWAP3 SWAP1 SWAP2 PUSH32 0x290DECD9548B62A8D60345A988386FC84BA6BC95484008F6362F93160EF3E568 ADD SWAP1 PUSH2 0x584 SWAP1 DUP3 PUSH2 0xAD1 JUMP JUMPDEST POP PUSH2 0x100 SWAP2 SWAP1 SWAP2 ADD MLOAD PUSH1 0x6 SWAP1 SWAP2 ADD SSTORE PUSH1 0x0 DUP8 DUP2 MSTORE PUSH1 0x1 PUSH1 0x20 DUP2 DUP2 MSTORE PUSH1 0x40 DUP1 DUP5 KECCAK256 DUP1 SLOAD SWAP4 DUP5 ADD DUP2 SSTORE DUP5 MSTORE SWAP3 DUP2 SWAP1 KECCAK256 SWAP1 SWAP2 ADD DUP4 SWAP1 SSTORE DUP2 MLOAD DUP9 DUP2 MSTORE PUSH1 0xFF DUP9 DUP2 AND SWAP3 DUP3 ADD SWAP3 SWAP1 SWAP3 MSTORE DUP7 DUP3 AND DUP2 DUP5 ADD MSTORE SWAP1 DUP6 AND PUSH1 0x60 DUP3 ADD MSTORE TIMESTAMP PUSH1 0x80 DUP3 ADD MSTORE SWAP1 MLOAD DUP9 SWAP2 CALLER SWAP2 DUP5 SWAP2 PUSH32 0x4A5D77CE29B26B4FEB2D23BD7C9C52ED8C0D863FA7DA643ADBF6B43C273B86FF SWAP2 SWAP1 DUP2 SWAP1 SUB PUSH1 0xA0 ADD SWAP1 LOG4 POP POP POP POP POP POP POP JUMP JUMPDEST PUSH1 0x1 PUSH1 0x20 MSTORE DUP2 PUSH1 0x0 MSTORE PUSH1 0x40 PUSH1 0x0 KECCAK256 DUP2 DUP2 SLOAD DUP2 LT PUSH2 0x635 JUMPI PUSH1 0x0 DUP1 REVERT JUMPDEST SWAP1 PUSH1 0x0 MSTORE PUSH1 0x20 PUSH1 0x0 KECCAK256 ADD PUSH1 0x0 SWAP2 POP SWAP2 POP POP SLOAD DUP2 JUMP JUMPDEST PUSH1 0x0 DUP2 DUP2 SLOAD DUP2 LT PUSH2 0x65A JUMPI PUSH1 0x0 DUP1 REVERT JUMPDEST PUSH1 0x0 SWAP2 DUP3 MSTORE PUSH1 0x20 SWAP1 SWAP2 KECCAK256 PUSH1 0x7 SWAP1 SWAP2 MUL ADD DUP1 SLOAD PUSH1 0x1 DUP3 ADD SLOAD PUSH1 0x2 DUP4 ADD SLOAD PUSH1 0x3 DUP5 ADD SLOAD PUSH1 0x4 DUP6 ADD SLOAD PUSH1 0x5 DUP7 ADD DUP1 SLOAD SWAP6 SWAP8 POP PUSH1 0x1 PUSH1 0x1 PUSH1 0xA0 SHL SUB SWAP1 SWAP5 AND SWAP6 SWAP3 SWAP5 SWAP2 SWAP4 PUSH1 0xFF DUP1 DUP4 AND SWAP5 PUSH2 0x100 DUP5 DIV DUP3 AND SWAP5 PUSH3 0x10000 SWAP1 SWAP5 DIV SWAP1 SWAP2 AND SWAP3 SWAP1 SWAP2 SWAP1 PUSH2 0x6BE SWAP1 PUSH2 0xA48 JUMP JUMPDEST DUP1 PUSH1 0x1F ADD PUSH1 0x20 DUP1 SWAP2 DIV MUL PUSH1 0x20 ADD PUSH1 0x40 MLOAD SWAP1 DUP2 ADD PUSH1 0x40 MSTORE DUP1 SWAP3 SWAP2 SWAP1 DUP2 DUP2 MSTORE PUSH1 0x20 ADD DUP3 DUP1 SLOAD PUSH2 0x6EA SWAP1 PUSH2 0xA48 JUMP JUMPDEST DUP1 ISZERO PUSH2 0x737 JUMPI DUP1 PUSH1 0x1F LT PUSH2 0x70C JUMPI PUSH2 0x100 DUP1 DUP4 SLOAD DIV MUL DUP4 MSTORE SWAP2 PUSH1 0x20 ADD SWAP2 PUSH2 0x737 JUMP JUMPDEST DUP3 ADD SWAP2 SWAP1 PUSH1 0x0 MSTORE PUSH1 0x20 PUSH1 0x0 KECCAK256 SWAP1 JUMPDEST DUP2 SLOAD DUP2 MSTORE SWAP1 PUSH1 0x1 ADD SWAP1 PUSH1 0x20 ADD DUP1 DUP4 GT PUSH2 0x71A JUMPI DUP3 SWAP1 SUB PUSH1 0x1F AND DUP3 ADD SWAP2 JUMPDEST POP POP POP POP POP SWAP1 DUP1 PUSH1 0x6 ADD SLOAD SWAP1 POP DUP10 JUMP JUMPDEST PUSH1 0x0 PUSH1 0x20 DUP3 DUP5 SUB SLT ISZERO PUSH2 0x759 JUMPI PUSH1 0x0 DUP1 REVERT JUMPDEST POP CALLDATALOAD SWAP2 SWAP1 POP JUMP JUMPDEST DUP1 CALLDATALOAD PUSH1 0xFF DUP2 AND DUP2 EQ PUSH2 0x771 JUMPI PUSH1 0x0 DUP1 REVERT JUMPDEST SWAP2 SWAP1 POP JUMP JUMPDEST PUSH4 0x4E487B71 PUSH1 0xE0 SHL PUSH1 0x0 MSTORE PUSH1 0x41 PUSH1 0x4 MSTORE PUSH1 0x24 PUSH1 0x0 REVERT JUMPDEST PUSH1 0x0 DUP1 PUSH1 0x0 DUP1 PUSH1 0x0 DUP1 PUSH1 0xC0 DUP8 DUP10 SUB SLT ISZERO PUSH2 0x7A5 JUMPI PUSH1 0x0 DUP1 REVERT JUMPDEST DUP7 CALLDATALOAD SWAP6 POP PUSH1 0x20 DUP8 ADD CALLDATALOAD SWAP5 POP PUSH2 0x7BC PUSH1 0x40 DUP9 ADD PUSH2 0x760 JUMP JUMPDEST SWAP4 POP PUSH2 0x7CA PUSH1 0x60 DUP9 ADD PUSH2 0x760 JUMP JUMPDEST SWAP3 POP PUSH2 0x7D8 PUSH1 0x80 DUP9 ADD PUSH2 0x760 JUMP JUMPDEST SWAP2 POP PUSH1 0xA0 DUP8 ADD CALLDATALOAD PUSH8 0xFFFFFFFFFFFFFFFF DUP1 DUP3 GT ISZERO PUSH2 0x7F5 JUMPI PUSH1 0x0 DUP1 REVERT JUMPDEST DUP2 DUP10 ADD SWAP2 POP DUP10 PUSH1 0x1F DUP4 ADD SLT PUSH2 0x809 JUMPI PUSH1 0x0 DUP1 REVERT JUMPDEST DUP2 CALLDATALOAD DUP2 DUP2 GT ISZERO PUSH2 0x81B JUMPI PUSH2 0x81B PUSH2 0x776 JUMP JUMPDEST PUSH1 0x40 MLOAD PUSH1 0x1F DUP3 ADD PUSH1 0x1F NOT SWAP1 DUP2 AND PUSH1 0x3F ADD AND DUP2 ADD SWAP1 DUP4 DUP3 GT DUP2 DUP4 LT OR ISZERO PUSH2 0x843 JUMPI PUSH2 0x843 PUSH2 0x776 JUMP JUMPDEST DUP2 PUSH1 0x40 MSTORE DUP3 DUP2 MSTORE DUP13 PUSH1 0x20 DUP5 DUP8 ADD ADD GT ISZERO PUSH2 0x85C JUMPI PUSH1 0x0 DUP1 REVERT JUMPDEST DUP3 PUSH1 0x20 DUP7 ADD PUSH1 0x20 DUP4 ADD CALLDATACOPY PUSH1 0x0 PUSH1 0x20 DUP5 DUP4 ADD ADD MSTORE DUP1 SWAP6 POP POP POP POP POP POP SWAP3 SWAP6 POP SWAP3 SWAP6 POP SWAP3 SWAP6 JUMP JUMPDEST PUSH1 0x0 DUP1 PUSH1 0x40 DUP4 DUP6 SUB SLT ISZERO PUSH2 0x894 JUMPI PUSH1 0x0 DUP1 REVERT JUMPDEST POP POP DUP1 CALLDATALOAD SWAP3 PUSH1 0x20 SWAP1 SWAP2 ADD CALLDATALOAD SWAP2 POP JUMP JUMPDEST PUSH1 0x0 PUSH2 0x120 DUP12 DUP4 MSTORE PUSH1 0x20 PUSH1 0x1 DUP1 PUSH1 0xA0 SHL SUB DUP13 AND DUP2 DUP6 ADD MSTORE DUP11 PUSH1 0x40 DUP6 ADD MSTORE DUP10 PUSH1 0x60 DUP6 ADD MSTORE PUSH1 0xFF DUP10 AND PUSH1 0x80 DUP6 ADD MSTORE PUSH1 0xFF DUP9 AND PUSH1 0xA0 DUP6 ADD MSTORE PUSH1 0xFF DUP8 AND PUSH1 0xC0 DUP6 ADD MSTORE DUP2 PUSH1 0xE0 DUP6 ADD MSTORE DUP6 MLOAD DUP1 DUP4 DUP7 ADD MSTORE PUSH1 0x0 SWAP3 POP JUMPDEST DUP1 DUP4 LT ISZERO PUSH2 0x912 JUMPI DUP7 DUP4 ADD DUP3 ADD MLOAD DUP6 DUP5 ADD PUSH2 0x140 ADD MSTORE SWAP2 DUP2 ADD SWAP2 PUSH2 0x8F3 JUMP JUMPDEST PUSH2 0x140 SWAP3 POP PUSH1 0x0 DUP4 DUP3 DUP8 ADD ADD MSTORE DUP3 PUSH1 0x1F NOT PUSH1 0x1F DUP4 ADD AND DUP7 ADD ADD SWAP4 POP POP POP POP DUP3 PUSH2 0x100 DUP4 ADD MSTORE SWAP11 SWAP10 POP POP POP POP POP POP POP POP POP POP JUMP JUMPDEST PUSH4 0x4E487B71 PUSH1 0xE0 SHL PUSH1 0x0 MSTORE PUSH1 0x32 PUSH1 0x4 MSTORE PUSH1 0x24 PUSH1 0x0 REVERT JUMPDEST PUSH4 0x4E487B71 PUSH1 0xE0 SHL PUSH1 0x0 MSTORE PUSH1 0x11 PUSH1 0x4 MSTORE PUSH1 0x24 PUSH1 0x0 REVERT JUMPDEST PUSH1 0xFF DUP2 DUP2 AND DUP4 DUP3 AND ADD SWAP1 DUP2 GT ISZERO PUSH2 0x98A JUMPI PUSH2 0x98A PUSH2 0x95B JUMP JUMPDEST SWAP3 SWAP2 POP POP JUMP JUMPDEST PUSH4 0x4E487B71 PUSH1 0xE0 SHL PUSH1 0x0 MSTORE PUSH1 0x12 PUSH1 0x4 MSTORE PUSH1 0x24 PUSH1 0x0 REVERT JUMPDEST PUSH1 0x0 PUSH1 0xFF DUP4 AND DUP1 PUSH2 0x9B9 JUMPI PUSH2 0x9B9 PUSH2 0x990 JUMP JUMPDEST DUP1 PUSH1 0xFF DUP5 AND DIV SWAP2 POP POP SWAP3 SWAP2 POP POP JUMP JUMPDEST DUP1 DUP3 ADD DUP1 DUP3 GT ISZERO PUSH2 0x98A JUMPI PUSH2 0x98A PUSH2 0x95B JUMP JUMPDEST PUSH1 0x0 PUSH1 0x1 DUP3 ADD PUSH2 0x9ED JUMPI PUSH2 0x9ED PUSH2 0x95B JUMP JUMPDEST POP PUSH1 0x1 ADD SWAP1 JUMP JUMPDEST DUP1 DUP3 MUL DUP2 ISZERO DUP3 DUP3 DIV DUP5 EQ OR PUSH2 0x98A JUMPI PUSH2 0x98A PUSH2 0x95B JUMP JUMPDEST PUSH1 0x0 DUP3 PUSH2 0xA1A JUMPI PUSH2 0xA1A PUSH2 0x990 JUMP JUMPDEST POP DIV SWAP1 JUMP JUMPDEST PUSH1 0x0 PUSH1 0x20 DUP3 DUP5 SUB SLT ISZERO PUSH2 0xA31 JUMPI PUSH1 0x0 DUP1 REVERT JUMPDEST DUP2 MLOAD DUP1 ISZERO ISZERO DUP2 EQ PUSH2 0xA41 JUMPI PUSH1 0x0 DUP1 REVERT JUMPDEST SWAP4 SWAP3 POP POP POP JUMP JUMPDEST PUSH1 0x1 DUP2 DUP2 SHR SWAP1 DUP3 AND DUP1 PUSH2 0xA5C JUMPI PUSH1 0x7F DUP3 AND SWAP2 POP JUMPDEST PUSH1 0x20 DUP3 LT DUP2 SUB PUSH2 0xA7C JUMPI PUSH4 0x4E487B71 PUSH1 0xE0 SHL PUSH1 0x0 MSTORE PUSH1 0x22 PUSH1 0x4 MSTORE PUSH1 0x24 PUSH1 0x0 REVERT JUMPDEST POP SWAP2 SWAP1 POP JUMP JUMPDEST PUSH1 0x1F DUP3 GT ISZERO PUSH2 0xACC JUMPI PUSH1 0x0 DUP2 DUP2 MSTORE PUSH1 0x20 DUP2 KECCAK256 PUSH1 0x1F DUP6 ADD PUSH1 0x5 SHR DUP2 ADD PUSH1 0x20 DUP7 LT ISZERO PUSH2 0xAA9 JUMPI POP DUP1 JUMPDEST PUSH1 0x1F DUP6 ADD PUSH1 0x5 SHR DUP3 ADD SWAP2 POP JUMPDEST DUP2 DUP2 LT ISZERO PUSH2 0xAC8 JUMPI DUP3 DUP2 SSTORE PUSH1 0x1 ADD PUSH2 0xAB5 JUMP JUMPDEST POP POP POP JUMPDEST POP POP POP JUMP JUMPDEST DUP2 MLOAD PUSH8 0xFFFFFFFFFFFFFFFF DUP2 GT ISZERO PUSH2 0xAEB JUMPI PUSH2 0xAEB PUSH2 0x776 JUMP JUMPDEST PUSH2 0xAFF DUP2 PUSH2 0xAF9 DUP5 SLOAD PUSH2 0xA48 JUMP JUMPDEST DUP5 PUSH2 0xA82 JUMP JUMPDEST PUSH1 0x20 DUP1 PUSH1 0x1F DUP4 GT PUSH1 0x1 DUP2 EQ PUSH2 0xB34 JUMPI PUSH1 0x0 DUP5 ISZERO PUSH2 0xB1C JUMPI POP DUP6 DUP4 ADD MLOAD JUMPDEST PUSH1 0x0 NOT PUSH1 0x3 DUP7 SWAP1 SHL SHR NOT AND PUSH1 0x1 DUP6 SWAP1 SHL OR DUP6 SSTORE PUSH2 0xAC8 JUMP JUMPDEST PUSH1 0x0 DUP6 DUP2 MSTORE PUSH1 0x20 DUP2 KECCAK256 PUSH1 0x1F NOT DUP7 AND SWAP2 JUMPDEST DUP3 DUP2 LT ISZERO PUSH2 0xB63 JUMPI DUP9 DUP7 ADD MLOAD DUP3 SSTORE SWAP5 DUP5 ADD SWAP5 PUSH1 0x1 SWAP1 SWAP2 ADD SWAP1 DUP5 ADD PUSH2 0xB44 JUMP JUMPDEST POP DUP6 DUP3 LT ISZERO PUSH2 0xB81 JUMPI DUP8 DUP6 ADD MLOAD PUSH1 0x0 NOT PUSH1 0x3 DUP9 SWAP1 SHL PUSH1 0xF8 AND SHR NOT AND DUP2 SSTORE JUMPDEST POP POP POP POP POP PUSH1 0x1 SWAP1 DUP2 SHL ADD SWAP1 SSTORE POP JUMP INVALID LOG2 PUSH5 0x6970667358 0x22 SLT KECCAK256 0xD1 MSTORE DUP16 MSIZE SWAP5 PUSH32 0x1FA970714E3D4F682404ECE27118E663A58C0A47D8C10472951164736F6C6343 STOP ADDMOD SGT STOP CALLER "},"methodIdentifiers":{"addRating(uint256,uint256,uint8,uint8,uint8,string)":"47a7116b","farmerRatings(uint256,uint256)":"4dd6c6e1","farmerRegistry()":"0da80980","getFarmerAverageRating(uint256)":"0c57556b","getFarmerRatingCount(uint256)":"b50c109d","ratings(uint256)":"5d30e84d"}}}}}